:020000040800F2
:10000000E0070020490200081F1F0008A71C000885
:100010001D1F0008730A00089D240008000000004E
:10002000000000000000000000000000231F000886
:10003000750A000800000000211F0008251F0008A5
:1000400063020008630200086302000863020008FC
:1000500063020008630200086302000863020008EC
:1000600063020008630200086302000863020008DC
:1000700063020008630200086302000863020008CC
:100080006302000863020008630200080000000029
:1000900000000000000000000000000063020008F3
:1000A000630200086302000863020008630200089C
:1000B000630200086302000863020008630200088C
:1000C000630200086302000863020008630200087C
:1000D0006302000891240008630200080000000089
:1000E000770A0008630200086302000800000000AD
:1000F0000000000000000000000000006302000893
:1001000000000000630200086302000863020008A8
:1001100000000000000000000000000000000000DF
:10012000630200086302000863020008630200081B
:100130006302000800000000000000000000000052
:100140000000000000000000000000006302000842
:1001500063020008630200086302000863020008EB
:1001600063020008630200080000000000000000B5
:10017000000000000000000000000000000000007F
:100180000000000063020008000000000000000002
:10019000630200086302000800F002F800F045F86E
:1001A0000AA090E8000C82448344AAF10107DA45D2
:1001B00001D100F03AF8AFF2090EBAE80F0013F0DF
:1001C000010F18BFFB1A43F0010318472C2A000047
:1001D0004C2A0000103A24BF78C878C1FAD85207D8
:1001E00024BF30C830C144BF04680C6070470000B1
:1001F0000023002400250026103A28BF78C1FBD830
:10020000520728BF30C148BF0B6070471FB502F0CE
:10021000E1FC00F0E3FB04000020002102F0C4FC3C
:10022000401C60601FBD10B510BD00F09BFB114667
:10023000FFF7ECFF02F044F900F0C2FB03B4FFF754
:10024000F2FF03BC00F0CEFB094880470948004795
:10025000FEE7FEE7FEE7FEE7FEE7FEE7FEE7FEE776
:10026000FEE7FEE704480549054A064B70470000D3
:10027000B91F000899010008E0010020E0070020F4
:10028000E0030020E003002053EA020C00F0698044
:100290002DE9F04B4FF00006002B1FBFB3FA83F59A
:1002A00003FA05F424FA05F65E4012BF1643B2FACB
:1002B00082F502FA05F4C5F120051EBF22FA05FCFD
:1002C00044EA0C04203556EA044C4FEA144418BFA3
:1002D000641C4FF000084FF00009904271EB030CD2
:1002E00039D3002919BFB1FA81F701FA07F6B0FA3C
:1002F00080F700FA07F6C7F120071EBF20FA07FCB7
:1003000046EA0C062037B6FBF4FCA7EB0507103FC6
:1003100007F01F0BCBF120060CFA0BFB2CFA06F6AC
:1003200044BFB3460026202FA4BF5E464FF0000B0B
:100330005BEA060C08BF4FF0010B19EB0B09ABFB96
:10034000027C48EB0608C01B06FB02CC0BFB03CC6F
:1003500071EB0C01C1E70B46024641464846BDE839
:10036000F08B13B54FF000004FF00001AFF30080A9
:10037000BDE81C40704700000FB400B58DB010A957
:10038000099000910B904FF0FF300A9000200C90E4
:10039000064878440690064878446A4607900F99C4
:1003A00009A800F0EBF80DB05DF814FB070200009F
:1003B0001F0200002DE9FF5F1D464FF0FF3B9146F5
:1003C0004FF000085F46D5E90146A96901987F1CF6
:1003D0008847296A824688470028F6D1BAF1FF3F4C
:1003E0000CD0002E24F4C06419DD600614D5BAF1D7
:1003F0002B0F09D0BAF12D0F0ED103E0584604B0EF
:10040000BDE8F09F44F48064A96901987F1C884787
:10041000761E8246002E02DDBAF1300F03D0B9F10C
:10042000000F26D032E0A969761E01987F1C44F4A3
:1004300000748847002E824605DDBAF1780F06D099
:10044000BAF1580F03D0B9F1000F10D01EE0B9F186
:10045000000F02D0B9F1100F18D1A969761E0198CA
:100460007F1C24F4007488478246102002E0082094
:1004700000E00A20814609E0A96908FB0908761E08
:1004800001987F1C44F4007488478246002E05DDE5
:100490004946504600F05EF80028EDDAE969019817
:1004A0008847A00502D46FF00100A8E7E00725D136
:1004B000600613D5600502D5C8F1000000E0404693
:1004C00029680A1D2A600968220501D5087015E00F
:1004D000220701D5088011E008600FE02868011D9F
:1004E00029600068210502D580F8008006E0210718
:1004F00002D5A0F8008001E0C0F8008038467EE711
:100500004FF0000200B5134694469646203922BFAC
:10051000A0E80C50A0E80C50B1F12001BFF4F7AFF7
:10052000090728BFA0E80C5048BF0CC05DF804EBD9
:10053000890028BF40F8042B08BF704748BF20F847
:10054000022B11F0804F18BF00F8012B7047704745
:10055000704770473A2800D2303820F02002412AF4
:1005600001D3A2F13700884201D34FF0FF3070472A
:10057000026811441378016018467047D16005493C
:100580007944516104497944116200211161114695
:1005900000F02EB8EDFFFFFF53000000426842B1AB
:1005A000016811F8013B23B1521EC0E90012184640
:1005B00070470121C160881E704742685AB1C36804
:1005C000016843B983688B4205D0491E521CC0E9BB
:1005D0000012002070474FF0FF30704710B50446FE
:1005E00000F0E6F90068005D00F0010010BD0000B9
:1005F0002DE9F34F4FF0000A0C4656468DB001200E
:100600000C9001F10C000B9062690B98012190474E
:10061000051E2DD0252D2CD0216A8847C0B16269D6
:100620000B9801219047216A88470028F7D1626919
:10063000411E0B98904700E0761CA1690D988847F1
:10064000216A88470028F7D1E1690D988847DBE7E0
:10065000A1690D988847A842074601D1761CD3E7C7
:10066000E1690D9888477F1C02D1BAF1000F6FD065
:100670006BE162690B9800273D46394690472A286E
:1006800004D162690B98012190470125DFF8D082DF
:1006900062690B9801219047A0F130010A290AD222
:1006A0004745E5DC07EB870100EB4107303FDFD42E
:1006B00045F01005ECE7E90601D46FF000476C281F
:1006C0000AD04C2814D0682815D06A280DD0742878
:1006D0001CD07A281AD01DE062690B98012190473E
:1006E0006C2802D045F0040514E045F002050DE049
:1006F00045F020050AE062690B98012190476828BF
:1007000002D045F0080505E045F4006562690B98E4
:1007100001219047C4E9015765283DD019DC5828CC
:100720007AD00CDC452837D004DC252826D0412897
:100730009ED131E046282FD0472899D12CE05B2864
:1007400077D0612828D063287CD0642823D15AE050
:10075000F6E06F2848D008DC66281DD067281BD03B
:10076000692821D06E2816D127E0702845D073283B
:1007700068D0752847D078280DD14DE0A1690D9833
:100780008847252805463FF469AFE1690D988847F9
:100790006D1C3FF46AAFD8E00D9923466A466FF0AE
:1007A0000100AFF30080C5E045F0400023464FF064
:1007B00000026060A80736D43EE0E8077FF447AF48
:1007C0002068011D21600068290501D506701BE71E
:1007D000290701D5068017E7A90703D5F117C0E956
:1007E000006111E706600FE745F0400023464FF037
:1007F00008026060A80716D41EE040F60E0125EA44
:100800000100606016E045F0400023464FF00A0208
:100810006060A80707D40FE045F040006060A807BB
:1008200008D5234610220D996FF00100AFF3008028
:1008300080E007E0102223460D996FF00100FFF7DA
:10084000B9FD77E04FF0000963284F46C8464B4694
:10085000CB4602D05B2806D038E0E80601D4012060
:10086000A060012732E06269D4F80CB00B98012136
:1008700090475E2807D14FF0010949466269D4F8D4
:100880000CB00B989047216939B900210A4603AB97
:1008900043F82120491C0829FADBD8B3216949B360
:1008A00008F1010862690B98012190475D28F4D195
:1008B000B9F1000F09D0002003A951F82020D2433C
:1008C00041F82020401C0828F7DB03AB20690028F2
:1008D00020794FEA40701ED05B462246CDF800805A
:1008E000CDE901970D9900286FF0010020DAAFF3F0
:1008F00000801FE0C11703AA00EBD1614B1121F06A
:100900001F0102EB8302411A136801208840034350
:100910001360C7E719E00D99224600286FF0010027
:10092000009702DAAFF3008004E0AFF3008001E04B
:10093000AFF3008000280ADA401C06D10C9820B1E1
:100940004FF0FF300FB0BDE8F08F5046FAE7E907EF
:1009500001D10AF1010A064400200C9054E600007F
:10096000CCCCCC0C754600F035F8AE460500694697
:10097000534620F00700854618B020B5FFF772FCFB
:10098000BDE820404FF000064FF000074FF0000890
:100990004FF0000B21F00701AC46ACE8C009ACE811
:1009A000C009ACE8C009ACE8C0098D46704700003A
:1009B00010B500F013F8001D10BD00BFED210000C0
:1009C00010B50446AFF300802046BDE81040FFF7A5
:1009D00035BC000000487047800100200048704787
:1009E000A001002001491820ABBEFEE7260002004E
:1009F0004FF0013C50F8042B51F8043B9A4221D1AE
:100A0000A2EB0C03934313EACC1317D150F8042B39
:100A100051F8043B9A4215D1A2EB0C03934313EA1D
:100A2000CC130BD150F8042B51F8043B9A4209D156
:100A3000A2EB0C03934313EACC13DBD04FF000007E
:100A4000704700BFD01A01BAB1FA81F101F0180164
:100A500022FA01F0CB40C1F12001DBB2C0B2C01AD2
:100A60002CFA01F3D11A914311EAC311E6D1704770
:100A70007047FEE770474FF4005000F05DB82DE975
:100A8000F0410446876D00F05DF9064694F83500A4
:100A90000025022806D08020606584F834500120AB
:100AA000BDE8F0812068016821F01601016020682E
:100AB000416921F080014161206C08B9A06C20B12E
:100AC0002068016821F0080101602068016821F0B8
:100AD000010101600CE000F035F9801B052807D901
:100AE00020206065032084F8350084F83450D7E76F
:100AF00020680068C007EED194F85C103F20884061
:100B0000B860012084F8350084F834500020C7E72D
:100B100090F83510022903D08021416501207047EB
:100B2000052180F835100068016821F0010101609D
:100B30000020704770470000044910B50A6802425F
:100B400002D00860FFF7F6FF10BD0000143C014022
:100B50002DE9F84FDFF8B8A10022012403254FF05A
:100B60000F090AF1040BAAF1040E00BF0B6804FA86
:100B700002F63340B34273D10F7907F00307012F18
:100B800001D0022F16D187684FEA420805FA08FC07
:100B900027EA0C07D1F80CC00CFA08FC4CEA070C49
:100BA000C0F808C04768B7430E79C6F300169640F0
:100BB0003E4346600E79F643B6070DD0C76856002F
:100BC00005FA06FC27EA0C07D1F808C00CFA06FC67
:100BD0004CEA070CC0F80CC00E7906F00306022E92
:100BE00010D1D60800EB8608D8F8206057074FEAE6
:100BF000D76C09FA0CF7BE430F6907FA0CF73743B5
:100C0000C8F8207006684FEA420C05FA0CF7BE439C
:100C10000F7907F0030707FA0CF7374307604E68B0
:100C200016F4403F6DD03B4E376847F4804737603D
:100C3000366822F0030706F480460096364E07EB2E
:100C4000060CDCF8086897073F0F09FA07F826EA50
:100C50000806DFF8C880404503D14FF000081EE0C9
:100C60004FE0DFF8BC80404502D14FF0010816E0AC
:100C7000DFF8B080404502D14FF002080FE0DFF806
:100C8000A880404502D14FF0030808E0DFF89C80BF
:100C9000404502D14FF0040801E04FF0070808FA80
:100CA00007F848EA0608CCF80888DAF800605746E2
:100CB000D1F804C09E435FEACC2C00D51E433E60B1
:100CC000DBF800605F46D1F804C09E435FEA8C2CDD
:100CD00000D51E433E60DEF800607746D1F804C0C0
:100CE0009E435FEA8C3C00D51E433E60084F083FA0
:100CF0003E68D1F804C09E435FEACC3C00D51E4359
:100D00003E60521C102AFFF431AFBDE8F88F00009E
:100D1000083C0140443802400030014000000240DD
:100D20000004024000080240000C02400010024093
:100D30000069084000D0012070470AB18161704706
:100D40000904FBE701488068704700002400002088
:100D500002488168027811448160704724000020B5
:100D60000B4810B5016841F400710160016841F45D
:100D700080610160016841F480710160032000F02E
:100D800071F8002000F006F800F024F8002010BDF3
:100D9000003C024070B50D4D04464FF47A7128783E
:100DA000B1FBF0F00A490968B1FBF0F000F00CFB70
:100DB00048B9102C07D200222146501E00F032F80C
:100DC00000206C6070BD012070BD00002400002078
:100DD000300000200B4882B0016841F4804101607E
:100DE000006800F4804000900648001F016841F050
:100DF00080510160006800F080500090072002B030
:100E000000F030B844380240002809DB00F01F022F
:100E1000012191404009800000F1E020C0F800115C
:100E200070470000F0B40E4B1B680C46C3F302235E
:100E3000C3F10705042D00D90425191D072901D286
:100E4000002300E0DB1E012606FA05F1491E2140C1
:100E500099409E40761E16403143F0BC01F01FBB06
:100E60000CED00E0064900F0070208684FF6FF03AA
:100E7000184040EA0220034A10430860704700000F
:100E80000CED00E00000FA052DE9F0470E460500E4
:100E900065D0DFF81481D8F80000F7B200F0070041
:100EA000B04207D288F80070D8F8000000F00700C0
:100EB000B04254D128683D4C810712D5400703D574
:100EC000206840F4E05020602878000703D52068AF
:100ED00040F4604020602068A96820F0F0000843DA
:100EE00020602878C0072DD030496868083901286B
:100EF00012D0022813D0032811D0096889070029CD
:100F00002DDA216821F0030101432160FFF71AFF68
:100F1000814641F2883A0EE009688903EFE70968E3
:100F20008901ECE7FFF70EFFA0EB0901514502D95B
:100F30000320BDE8F0872068696800F00C00B0EB82
:100F4000810FEFD1D8F80010404601F00701B142FF
:100F500007D90770006800F00700B04201D00120F7
:100F6000E7E72878400705D52068E96820F4E050D5
:100F7000084320602878000706D52068296920F4F6
:100F8000604040EAC100206000F038F82168084A5B
:100F9000C1F30311515CC840064908600648006867
:100FA000FFF7F8FE0020C4E7003C0240083802408A
:100FB000DE2B0008300000202800002004480549EE
:100FC00000680968044AC1F38221515CC840704737
:100FD0003000002008380240EE2B00080448054984
:100FE00000680968044AC1F34231515CC840704747
:100FF0003000002008380240EE2B0008154810B5DC
:10100000006810F00C02144813D04110042A0FD0CD
:10101000082A0ED10F4C241F2268236802F03F02D9
:101020005B0207D52068C0F38810A0FB010106E031
:10103000084610BD2168C1F38811A1FB00010023FF
:10104000FFF722F92168C1F30141491C4900B0FBB7
:10105000F1F010BD083802400024F4002DE9F84FEB
:1010600004006ED02078DFF84C93C007A9F1040586
:101070004AD009F104000168C1F38101012908D0B7
:101080000068C0F3810002280AD1D9F800004002AC
:1010900006D52868800337D560680028E1D033E0A2
:1010A0006068B0F5803F10D0B0F5A02F286810D050
:1010B00020F480302860286820F480202860606850
:1010C000A8B1FFF73FFE06460DE0286840F48030E7
:1010D000F4E740F480202860F7E700BFFFF732FE16
:1010E000801B642873D828688003F7D50CE0FFF7CD
:1010F00029FE064605E000BFFFF724FE801B64289A
:10110000F0D828688003F7D42078DFF8AC82800715
:101110004FF0000A3ED5A748001D016811F00C0FE2
:1011200008D00068C0F3810002280BD1D9F8000074
:10113000400207D42868800716D5E068012800D14E
:1011400012E033E1E068B8B10120C8F80000FFF711
:10115000F9FD064605E000BFFFF7F4FD801B0228FD
:10116000C0D828688007F7D52868216920F0F800E2
:1011700040EAC10028600DE0C8F800A0FFF7E2FDDA
:10118000064604E0FFF7DEFD801B02281FD8286812
:101190008007F7D42078000722D5864F87486169F9
:1011A000703771B101210160FFF7CCFD064604E004
:1011B000FFF7C8FD801B022809D838688007F7D5DB
:1011C0000EE0C0F800A0FFF7BDFD064605E082E096
:1011D000FFF7B8FD801B02287DD838688007F7D458
:1011E0002078400768D5DFF8CCB100270BF13C0B25
:1011F000DBF80000C0000BD4DBF8001041F0805198
:10120000CBF80010DBF80000012700F080500090C0
:101210006B4E3068C00510D4306840F48070306088
:10122000FFF790FD009005E0FFF78CFD0099401A54
:10123000022850D83068C005F6D55E4EA0686C36DE
:1012400001280FD00528306810D020F00100306050
:10125000306820F004003060A068B8B1FFF772FD7C
:1012600000900FE0306840F00100F4E740F0040027
:101270003060F7E7FFF766FD0099411A41F28830C8
:10128000814266D830688007F4D50EE0FFF75AFD3A
:10129000009007E0FFF756FD0099411A41F28830AF
:1012A000814256D830688007F4D42FB1DBF80010A3
:1012B00021F08051CBF80010A069C8B33D49091D49
:1012C0000968C1F3810102294AD00228504607D09B
:1012D000C8F8600000E03CE0FFF734FD04463BE066
:1012E0004746C8F86000FFF72DFD064605E000BF41
:1012F000FFF728FD801B02282BD828688001F7D42F
:10130000D4E907010843A16A2E4A490802EB0141CA
:10131000626A41EA8211084394F82C1040EA0161A4
:10132000C9F8001001203866FFF70CFD044606E0FE
:101330003EE000BFFFF706FD001B022809D8286821
:101340008001F7D534E000BFFFF7FCFC001B02284A
:1013500002D90320BDE8F88F28688001F4D427E083
:101360000128F7D0D9F80000E26900F48001914229
:101370001CD1226A00F03F01914217D147F6C0719B
:10138000626A0140B1EB821F10D1A26A4FF0FF33B5
:1013900000F4403103EB5202B1EB024F06D194F856
:1013A0002C1000F07060B0EB016F01D00120D1E78C
:1013B0000020CFE70438024000004742800E474239
:1013C000007000400000FFFF10B5401EB0F1807FAC
:1013D00001D3012010BD4FF0E02460610F216017A0
:1013E00001F05DF80020A06107202061002010BD01
:1013F00070B590F83C20012A2CD0012480F83C40A4
:10140000022280F83D2003685A689D6822F0700629
:101410000A6832435A60104B02689A420ED0B2F109
:10142000804F0BD00D4B9A4208D00D4B9A4205D0FD
:101430000C4B9A4202D00C4B9A4204D1496825F0D9
:1014400080031943916080F83D40002180F83C10F2
:10145000084670BD022070BD00000140000400403D
:1014600000080040000C00400040014010B504009E
:1014700003D094F83D0010B107E0012010BD00201A
:1014800084F83C00204600F01FF8022084F83D005C
:10149000211D206800F098FD012084F8460084F8A2
:1014A0003E0084F83F0084F8400084F8410084F84E
:1014B000420084F8430084F8440084F8450084F82E
:1014C0003D00002010BD000008B50C4A01680C4822
:1014D000914207D1016841F002010160006800F00B
:1014E000020009E0074A914207D1016841F0040176
:1014F0000160006800F00400009008BD0004004096
:10150000403802400008004070B5044690F83C00A6
:101510000025012817D0012684F83C60022084F8B9
:101520003D002068826822F0770222F47F428260C8
:101530000868502838D00DDC20284FD005DC90B347
:10154000102811D14AE0022070BD302846D0402832
:101550000AD13BE060282FD070280DD0B0F5805F15
:1015600003D0B0F5005F12D0012584F83D60002063
:1015700084F83C00284670BDCB68D1E90121206881
:1015800000F07BFD2068816841F0770109E0CB68BD
:10159000D1E90121206800F070FD2068816841F4E4
:1015A00080418160E1E719E0CA684968206800F07D
:1015B00019FE5021206806E0CA684968206800F0DA
:1015C00022FE6021206800F062FDCEE7CA6849680B
:1015D000206800F007FE40212068F4E722680146F9
:1015E0001046F0E770B586B0044614216846FEF751
:1015F00087FF204B226800241F49C02002251F4E70
:101600009A4221D10A6842F001020A600A6802F097
:10161000010205920A6842F002020A60096800901D
:10162000CDE9015401F00201CDE90451039469466A
:101630001348FFF78DFA03200090CDE90154694665
:101640003046CDE9034511E00E4B9A4210D10A68AD
:1016500042F002020A6009680090CDE9015401F0ED
:101660000201CDE90451039469463046FFF770FA50
:1016700006B070BD00040040303802400004024053
:10168000000002400008004070B5044690F83C009D
:1016900000260D4601280FD0012084F83C006AB1D5
:1016A000042A1DD0082A2FD00C2A3FD00126002062
:1016B00084F83C00304670BD022070BD206800F008
:1016C000EFFC2068816941F008018161206881692F
:1016D00021F004018161206881692A69114311E0C8
:1016E000206800F005FD2068816941F40061816196
:1016F0002068816921F480618161206881692A699B
:1017000041EA02218161D2E7206800F01DFD2068D6
:10171000C16941F00801C1612068C16921F004017B
:10172000C1612068C1692A69114311E0206800F095
:1017300037FD2068C16941F40061C1612068C16959
:1017400021F48061C1612068C1692A6941EA0221EE
:10175000C161ACE710B5040003D094F83D0010B1AE
:1017600007E0012010BD002084F83C00204600F076
:101770001EF8022084F83D00211D206800F024FCA2
:10178000012084F8460084F83E0084F83F0084F885
:10179000400084F8410084F8420084F8430084F853
:1017A000440084F8450084F83D00002010BD7047D7
:1017B00010B50446022249B104290ED0082913D0DD
:1017C00094F84100012816D0012010BD94F83E0085
:1017D0000128F9D184F83E200FE094F83F00012859
:1017E000F2D184F83F2008E094F840000128EBD1C2
:1017F00084F8402001E084F841200122206800F0B4
:101800002FFC12492068884203D1426C42F4004206
:101810004264206888420ED0B0F1804F0BD00C4952
:10182000884208D00B49884205D00B49884202D033
:101830000A49884204D1816801F00701062903D0D2
:10184000016841F001010160002010BD000001406D
:101850000004004000080040000C0040004001402F
:1018600070477047F8B5016804460868CA684B6954
:1018700010F00F0F4FF0000559D003F0010602F4ED
:101880009077374365D0C10705D0D10503D5216CCA
:1018900041F001012164410705D5D90703D0216C2E
:1018A00041F002012164810705D5D90703D0216CDD
:1018B00041F004012164010707D502F02001314302
:1018C00003D0216C41F008012164216C00293AD039
:1018D000800604D5900602D5204600F0D5FC20688D
:1018E0004069216CC0F38010090700D460B3204622
:1018F00000F0A3FC20684069400621D52068143020
:1019000050E8001F21F0400140E80012002AF5D104
:10191000A06BA8B16C490165A06BFFF7F9F800282E
:1019200011D0A06B016D01B0BDE8F04008478306FF
:101930000FD593060DD52046BDE8F84000F0A4BCB5
:101940002046FFF78EFFF8BD2046FFF78AFF25648B
:10195000F8BD266B2023012E79D1C60677D5D60691
:1019600075D50868486800904869400640D5A16B65
:10197000086840680004000CEAD0A28D8242E7D9D2
:10198000E085C869B0F5807F2DD020680C3050E824
:10199000001F21F4807140E80012002AF5D1206870
:1019A000143050E8001F21F0010140E80012002A25
:1019B000F5D12068143050E8001F21F0400140E8C4
:1019C0000012002AF5D184F83E30256320680C30DF
:1019D00050E8001F21F0100140E80012002AF5D164
:1019E000A06BFFF74CF8A08DE18D401A81B229E081
:1019F000A08DE18D401A81B2E08D0028A8D0002989
:101A0000A6D020680C3050E8002F22F4907240E8F5
:101A10000026002EF5D12068143050E8002F22F067
:101A2000010240E80026002EF5D184F83E302563FF
:101A300020680C3050E8002F22F0100240E800230C
:101A4000002BF5D12046FFF70BFFF8BDFFE7050699
:101A50002BD5150629D594F83D002128F5D1A0688D
:101A6000B0F5805F01D12069B0B1206A411C2162CC
:101A7000216800784860E08C401E0004000CE0847F
:101A8000E3D12068C16821F08001C1602068C1688D
:101A900041F04001C160D8E7206A0088C0F3080027
:101AA0004860206A801C2062E5E74006CDD55006DC
:101AB000CBD5CA68204622F04002CA6084F83D3087
:101AC00000F0F0F8C1E700002B22000870B5040018
:101AD00004D094F83D00002510B106E0012070BD4F
:101AE00084F83C50204600F023F8242084F83D0080
:101AF0002068C16821F40051C160204600F024FC38
:101B00002068016921F4904101612068416921F058
:101B10002A0141612068C16841F40051C160256417
:101B2000202084F83D0084F83E00002070BD0000B5
:101B3000F0B587B0044614216846FEF7E1FC274F54
:101B40002368002226490224032507262548BB4294
:101B500024D1234B14331F6847F010071F601B6804
:101B600003F0100305930B6843F001030B60096851
:101B700002AB01F0010105916902CDE9001483E88F
:101B800064006946FEF7E4FF002211462520FFF7B6
:101B900049F92520FFF738F907B0F0BD124FBB42D5
:101BA000FAD10F4B10331F6847F400371F601B68D2
:101BB00003F4003305930B6843F001030B600968DD
:101BC00002AB01F0010105910C21CDE9001483E87D
:101BD00064006946FEF7BCFFDEE70000001001402C
:101BE00030380240000002400044004090F83E308F
:101BF000202B0ED159B152B190F83C30012B08D0B6
:101C0000012380F83C300023036300F023BC012053
:101C1000704702207047000010B51A49006886B06E
:101C2000096888422CD1184C164A6078217888328D
:101C30006129115409D0401C607006B00122BDE832
:101C4000104011490F48FFF7D1BF0F4B0DF1080CA1
:101C500020331A1F111F081F8CE80F00011F0838BE
:101C6000031FCDE900010748183A08A18830FEF7A4
:101C700083FB044832218830FEF742FC0020DBE77A
:101C800006B010BDC40000200000002025642C25F3
:101C9000642C25642C25642C25642C25642C256457
:101CA0002C2564007047FEE72DE9F04786B014212B
:101CB0006846FEF725FC38480024016841F004011D
:101CC0000160016801F004010591016841F08001A3
:101CD0000160016801F080010591016841F0010196
:101CE0000160016801F001010591016841F0020104
:101CF00001600068DFF8A4A000F002000590002257
:101D000037215046FFF719F8DFF894800022202190
:101D10004046FFF712F8DFF88C904FF4704700222E
:101D200039464846FFF709F84FF4005000904FF449
:101D30000410CDE9010469465046FEF709FF37203B
:101D40000125022603948DE8610069465046FEF79E
:101D5000FFFE20200090CDE90154694640460394DF
:101D6000FEF7F6FECDE90264CDE900756946484606
:101D7000FEF7EEFEC0208DE8310069465046FEF7C2
:101D8000E7FE012200212820FFF74CF82820FFF76A
:101D90003BF806B0BDE8F08730380240000802404A
:101DA000000002400004024010B58EB000240794E9
:101DB000089409940A940B941C2168460C94FEF72D
:101DC0009FFB2A48284901600321C0E9011440F221
:101DD0004731C0E903148461FFF748FB08B172B6CC
:101DE000FEE74FF48050079007A92048FFF78CFBCF
:101DF00008B172B6FEE71D48FFF7ACFC08B172B639
:101E0000FEE70B940BA919480C94FFF7F1FA08B1FF
:101E100072B6FEE76020CDE9000402940022694614
:101E200012480494FFF730FC08B172B6FEE70422B2
:101E300069460E48FFF728FC08B172B6FEE7082293
:101E400069460A48FFF720FC08B172B6FEE70C228B
:101E500069460648FFF718FC08B172B6FEE703486A
:101E6000FFF7C0FB0EB010BD00040040340000209E
:101E700010B58EB000240794089409940A940B942A
:101E80001C2168460C94FEF73BFB23482149016066
:101E900040F24731C0E9011440F2CF71C0E90314A8
:101EA0008461FFF7E3FA08B172B6FEE74FF48050A1
:101EB000079007A91848FFF727FB08B172B6FEE79D
:101EC0001548FFF747FC08B172B6FEE70B940BA963
:101ED00011480C94FFF78CFA08B172B6FEE7602047
:101EE000CDE900040294002269460B480494FFF7F0
:101EF000CBFB08B172B6FEE7042269460648FFF73D
:101F0000C3FB08B172B6FEE70348FFF76BFB0EB0E8
:101F100010BD0000000800407C000020FEE7FEE746
:101F200070477047FEF714BF30B593B03021684654
:101F3000FEF7E6FA14210CA8FEF7E2FA1C4800248A
:101F4000016841F080510160006800F080501190FC
:101F50001848016841F4404101600068022500F41E
:101F600040401190012003901020009506950490A8
:101F7000CDE907404FF4A870099004200A900B9017
:101F80006846FFF76BF808B172B6FEE70F20CDE99F
:101F90000C054FF48050CDE90E4002210CA810949E
:101FA000FEF772FF002801D072B6FEE713B030BD15
:101FB00040380240007000400248016841F470015E
:101FC0000160704788ED00E0F0B502681D4B1E4CC3
:101FD0009F031E4D1E4E984207D0B84205D0A04226
:101FE00003D0A84201D0B04204D122F0700C4A685C
:101FF00042EA0C02984210D0B8420ED0A0420CD057
:10200000A8420AD0B04208D0124CA04205D0124CCF
:10201000A04202D0114CA04203D122F44074CA68FD
:1020200022434C6922F08002224302608A68C26225
:102030000A688262984201D1096901630121416104
:10204000F0BD000000000140000400400008004016
:10205000000C0040004001400044014000480140A5
:1020600010B501F01F030121046A99408C430462FA
:10207000016A9A401143016210BD10B5846842EABA
:10208000032224F47F440A432243826010BD826805
:1020900022F070020A4342F007018160704700009D
:1020A00030B5026A22F001020262026A4368846962
:1020B00024F073050C682C4322F002058A682A4339
:1020C0000A4DA8420BD122F00805CA6823F44073D8
:1020D0002A434D6922F004021D438B692B43436060
:1020E000846149684163026230BD00000000014024
:1020F00030B5026A22F010020262026A4368846903
:102100000D6824F4E64444EA05248D6822F0200298
:1021100042EA05120B4DA8420ED1CD6822F0800292
:1021200042EA05124D6923F4406343EA85038D6951
:1021300022F0400243EA8503436084614968816379
:10214000026230BD0000014030B5026A22F48072A4
:102150000262036A4268C46923F4007324F07305C1
:102160000C682C438D6843EA05230C4DA8420ED120
:10217000CD6823F4006343EA05234D6922F44052FD
:1021800042EA05128D6923F4806342EA0512426037
:10219000C4614968C163036230BD000000000140B2
:1021A00030B5026A22F480520262046A4268C3694E
:1021B0000D6823F4E64343EA05238D6824F40054B4
:1021C00044EA0534064DA84204D14D6922F4804208
:1021D00042EA85124260C36149680164046230BD0D
:1021E0000000014010B5036A046A24F0010404628F
:1021F000846924F0F00444EA021423F00A020A433A
:102200008461026210BD10B5036A23F010030362FB
:102210008369046A23F4704343EA023224F0A00382
:1022200043EA01118261016210BD10B5806B00218B
:10223000C185C184FFF715FB10BD01680C3151E861
:10224000002F22F4907241E80023002BF5D10168A1
:10225000143151E8002F22F0010241E80023002B45
:10226000F5D1016B012909D101680C3151E8002F2A
:1022700022F0100241E80023002BF5D1202180F844
:102280003E1000210163704708B590F83E102229E6
:1022900001D0022008BD82684FF480539A4201D1D8
:1022A000016921B1816A9A421BD04AB10AE00268F1
:1022B000816A5268C2F308020A80816A891C08E0B8
:1022C000026972B10268526802F07F020A70816A84
:1022D000491C8162C18D491E0904090CC18503D0C6
:1022E00019E002685268F1E70168CA6822F020022A
:1022F000CA600168CA6822F48072CA6001684A69CB
:1023000022F001024A61202180F83E10016B012970
:1023100003D0FFF781FC002008BD002101630168A4
:102320000C3151E8002F22F0100241E80023002B6D
:10233000F5D101680A68D20602D50A684968009199
:10234000818DFFF78DFAE6E770B5044600680169F4
:10235000E26821F44051114301612169A068E269FA
:1023600008436169114308432168CA6849F20C6354
:102370009A430243CA6020684169A26921F440710E
:102380001143416131492068884202D03049884276
:1023900002D1FEF723FE01E0FEF710FEE269002302
:1023A000192164253226B2F5004F626828D0A0FBBF
:1023B0000101930F9200FDF767FF0146B0FBF5F0B6
:1023C0006FF01802504301EB800006EB0010B0FBE9
:1023D000F5F000F0F002B1FBF5F002EB0012B1FBFA
:1023E000F5F06FF01803584301EB800006EB001086
:1023F000B0FBF5F000F00F0021681044886070BD5C
:10240000A0FB010192185B41FDF73EFF0146B0FBC6
:10241000F5F00201B1FBF5F06FF01803584301EB42
:10242000800006EBC000B0FBF5F000F0F80002EB16
:102430004002B1FBF5F0584301EB800006EBC00011
:10244000B0FBF5F000F00700D6E7000000100140F7
:102450000014014081628285C2850021016422222C
:1024600080F83E2080F83C10016921B10168CA68FB
:1024700042F48072CA6001684A6942F001024A610E
:102480000068C16841F02001C16000207047000071
:102490000148FFF7E7B90000C4000020FEE7090784
:1024A000090E002804DB00F1E02080F800147047DA
:1024B00000F00F0000F1E02080F8141D70470000CC
:1024C000FEF74EFCFFF730FDFFF7EEFBFE48FD493F
:1024D0004FF4E13500240160C0E901540C26C460CA
:1024E000C0E904468461C461FFF7F0FA08B172B62E
:1024F000FEE7F548F5494438A046C0E90015846078
:10250000C460C0E904468461C461FFF7DFFA08B122
:1025100072B6FEE7FFF748FCFFF7AAFCEA48012283
:10252000EB494438FFF762FBE7480021D438FFF756
:102530003FF9E5480421D438FFF73AF9E248082189
:10254000D438FFF735F9E0480C21D438FFF730F9DB
:10255000DD4800218C38FFF72BF9DB4804218C384B
:10256000FFF726F9DFF860939620A9F18C09D9F8D6
:1025700000104863D9F800108863D64ED64F40F259
:10258000CF7BA9F14805D24C207BC0077DD1616883
:1025900040F6B830814226DB002201213046FEF7AA
:1025A000CCFB012202213046FEF7C7FB01220421A9
:1025B0003046FEF7C2FB002210213046FEF7BDFB7D
:1025C000012220213046FEF7B8FB60680621A0F208
:1025D000DC5292FBF1F22B685A63A0F5C86090FBC5
:1025E000F1F0296888636068A0F2E930584523D289
:1025F000A068A0F2E93058451ED22968C1F834809D
:102600002968C1F83880002201213046FEF795FB89
:10261000002202213046FEF790FB012204213046C1
:10262000FEF78BFB002210213046FEF786FB0022CE
:1026300020213046FEF781FB60684FF47A7A5045DE
:102640002BDCA0F23A714942CA1701EB92718A1051
:1026500029684A63C0F5F060C11700EB91702968E2
:1026600080108863012211463046FEF766FB002287
:1026700002213046FEF761FB012204213046FEF7BD
:102680005CFB01221021304600E0B7E0FEF755FB6D
:10269000002220213046FEF750FBA068504527DA83
:1026A0006068504524DAC0F5F060032190FBF1F139
:1026B0002A6851630B2190FBF1F02968886301229D
:1026C00011463046FEF739FB002202213046FEF764
:1026D00034FB012204213046FEF72FFB012210219A
:1026E0003046FEF72AFB002220213046FEF725FB6C
:1026F000A16840F6B830814227DD6068504524DA91
:10270000C0F5F0600B2190FBF1F12A6851630321C1
:1027100090FBF1F029688863012211463046FEF7EC
:102720000CFB002202213046FEF707FB01220421A8
:102730003046FEF702FB012210213046FEF7FDFA7B
:10274000002220213046FEF7F8FAA06840F6B831A2
:10275000884227DB6268A2F2E9325A4522D2A0F60B
:102760000200C11700EB51702968C0104863296846
:102770008863002201213046FEF7DFFA01220221A0
:102780003046FEF7DAFA012204213046FEF7D5FA88
:10279000012210213046FEF7D0FA002220213046D7
:1027A000FEF7CBFAA068504528DC6168A1F2E93158
:1027B000594523D2A0F602004042C11700EB5170E8
:1027C0002968C01048632968886301221146304691
:1027D000FEF7B3FA002202213046FEF7AEFA0122DC
:1027E00004213046FEF7A9FA002210213046FEF7F8
:1027F000A4FA012220213046FEF79FFA3748E1680B
:10280000014001296CD1616840F6B830814223DB78
:10281000002201213046FEF790FA012202213046C3
:10282000FEF78BFA012204213046FEF786FA0022D9
:1028300010213046FEF781FA012220213046FEF7B2
:102840007CFA6068A0F6B830C11700EB51702968B7
:10285000C0104863296888636068DA46A0F2E930EE
:10286000504523D2A068A0F2E93050451ED2296815
:10287000C1F834802968C1F838800022012130462F
:10288000FEF75BFA002202213046FEF756FA0122DB
:1028900004213046FEF751FA002210213046FEF79F
:1028A0004CFA002220213046FEF747FA6068B0F566
:1028B0007A7F32DCC0F57A70C11700EB5170C0101E
:1028C00029680EE00044004008010020001001408B
:1028D00000000020000802400004024001000080C7
:1028E00077E0486329688863012211463046FEF785
:1028F00024FA002202213046FEF71FFA01220421A9
:102900003046FEF71AFA012210213046FEF715FA7A
:10291000002220213046FEF710FAA06840F6B831B8
:10292000884228DB6168A1F2E931514523D20D21AB
:10293000A0F6020090FBF1F22B685A6390FBF1F0D5
:1029400029688863002201213046FEF7F6F901224A
:1029500002213046FEF7F1F9012204213046FEF74C
:10296000ECF9012210213046FEF7E7F90022202180
:102970003046FEF7E2F9A068B0F57A7F29DC61689D
:10298000A1F2E931514524D2A0F6020041420D20C6
:1029900091FBF0F22B685A6391FBF0F02968886391
:1029A000012211463046FEF7C8F9002202213046C6
:1029B000FEF7C3F9012204213046FEF7BEF90022DA
:1029C00010213046FEF7B9F9012220213046FEF7EA
:1029D000B4F92069012813D129684FF4C870C8637D
:1029E00000224FF480513846FEF7A7F90122510327
:1029F0003846FEF7A2F9012204213046FEF79DF980
:102A00006069012813D129684FF4C870C863012296
:102A100011033846FEF791F900224FF40051384671
:102A2000FEF78BF9012204213046FEF786F9D4E93E
:102A30000410084312D12968C1F83C8000224FF4E9
:102A400080513846FEF779F9012251033846FEF7E6
:102A500074F9012204213046FEF76FF9A0690128BC
:102A600035D1E06900286AD180213046FEF760F94F
:102A7000D0B14FF4E16A80213046FEF759F930B306
:102A80002968C1F840A000224FF480413846FEF783
:102A900054F90122D1033846FEF74FF901220421EF
:102AA0003046FEF74AF9E6E72968C1F8408000227F
:102AB0004FF480413846FEF740F90122D1033846F1
:102AC000FEF73BF9012204213046FEF736F9A069F2
:102AD000A8BBE069012832D140213046FEF728F931
:102AE000D0B14FF4966A40213046FEF721F930B359
:102AF0002868C0F840A0012291033846FEF71DF96E
:102B000000224FF400413846FEF717F90122042154
:102B10003046FEF712F9E6E72968C1F84080012245
:102B200091033846FEF709F900224FF40041384678
:102B3000FEF703F9012204213046FEF7FEF8D4E93E
:102B40000601084312D12968C1F8408000224FF4E1
:102B500080413846FEF7F1F80122D1033846FEF7EE
:102B6000ECF8012204213046FEF7E7F8206A01283C
:102B70000AD002280ED000287FF405ADD9F8002035
:102B80004146C2F834800AE0D9F80020B4215163EC
:102B9000782104E0D9F8002078215163B421D9F8D4
:102BA00000008163EFE4000010B500290AD0087826
:102BB000002807D005487844FDF71AFF002801D007
:102BC000002010BD0248784410BD000062000000E3
:102BD0005A0000004FF04070E1EE100A704700000C
:102BE00000000000000001020304060708090000BD
:102BF0000000010203040000282D0008000000204E
:102C000034000000D40100085C2D000834000020CE
:102C1000AC070000F00100081001000043000000B4
:102C2000F8FFFFFF004040404040404040404141ED
:102C30004141414040404040404040404040404091
:102C4000404040404005020202020202020202022B
:102C50000202020202202020202020202020200228
:102C600002020202020290909090909010101010B8
:102C70001010101010101010101010101010101054
:102C800002020202020288888888888808080808E8
:102C900008080808080808080808080808080808B4
:102CA00002020202400000000000000000000000DC
:102CB0000000000000000000000000000000000014
:102CC0000000000000000000000000000000000004
:102CD00000000000000000000000000000000000F4
:102CE00000000000000000000000000000000000E4
:102CF00000000000000000000000000000000000D4
:102D000000000000000000000000000000000000C3
:102D100000000000000000000000000000000000B3
:102D20000000000000000000000000009E070000FE
:102D3000F807000000000000000000000000000094
:102D40000000000000000000000000000100000082
:0C2D500010000000000000000024F4004F
:040000050800019955
:00000001FF
