:020000040800F2
:10000000005000202D210008E11E0008E91E000814
:10001000F11E0008F91E0008011F00080000000082
:10002000000000000000000000000000091F0008A0
:10003000151F000800000000211F00082D1F0008E8
:100040007521000875210008752100087521000838
:100050007521000875210008752100087521000828
:100060007521000875210008752100087521000818
:100070007521000875210008752100087521000808
:1000800075210008752100087521000875210008F8
:1000900075210008752100087521000875210008E8
:1000A000391F00084D1F0008611F0008751F000858
:1000B00075210008752100087521000875210008C8
:1000C00075210008752100087521000875210008B8
:1000D0007521000875210008891F00087521000896
:1000E0007521000875210008752100080000000036
:1000F0000000000000000000000000000000000000
:0C01000000000000000000005FF808F1A3
:1001100010B5054C237833B9044B13B10448AFF341
:1001200000800123237010BDD401002000000000D6
:100130009470000808B5034B1BB103490348AFF3A3
:10014000008008BD00000000D80100209470000865
:10015000034613F8012B002AFBD1181A0138704707
:1001600081F0004102E000BF83F0004330B54FEA68
:1001700041044FEA430594EA050F08BF90EA020FD5
:100180001FBF54EA000C55EA020C7FEA645C7FEA68
:10019000655C00F0E2804FEA5454D4EB5555B8BF8B
:1001A0006D420CDD2C4480EA020281EA030382EAFC
:1001B000000083EA010180EA020281EA0303362D8E
:1001C00088BF30BD11F0004F4FEA01314FF4801C61
:1001D0004CEA113102D0404261EB410113F0004F73
:1001E0004FEA03334CEA133302D0524263EB43032A
:1001F00094EA050F00F0A780A4F10104D5F1200EC8
:100200000DDB02FA0EFC22FA05F2801841F1000122
:1002100003FA0EF2801843FA05F359410EE0A5F1F6
:1002200020050EF1200E012A03FA0EFC28BF4CF027
:10023000020C43FA05F3C01851EBE37101F00045DD
:1002400007D54FF0000EDCF1000C7EEB00006EEBEA
:100250000101B1F5801F1BD3B1F5001F0CD3490874
:100260005FEA30004FEA3C0C04F101044FEA4452CB
:1002700012F5800F80F09A80BCF1004F08BF5FEA52
:10028000500C50F1000041EB045141EA050130BD32
:100290005FEA4C0C404141EB0101013C28BFB1F544
:1002A000801FE9D291F0000F04BF01460020B1FA8F
:1002B00081F308BF2033A3F10B03B3F120020CDA62
:1002C0000C3208DD02F1140CC2F10C0201FA0CF040
:1002D00021FA02F10CE002F11402D8BFC2F1200CA5
:1002E00001FA02F120FA0CFCDCBF41EA0C0190405B
:1002F000E41AA2BF01EB0451294330BD6FEA0404A4
:100300001F3C1CDA0C340EDC04F11404C4F120028E
:1003100020FA04F001FA02F340EA030021FA04F3A0
:1003200045EA030130BDC4F10C04C4F1200220FAF7
:1003300002F001FA04F340EA0300294630BD21FA35
:1003400004F0294630BD94F0000F83F4801306BFFB
:1003500081F480110134013D4EE77FEA645C18BFEF
:100360007FEA655C29D094EA050F08BF90EA020F86
:1003700005D054EA000C04BF1946104630BD91EA7E
:10038000030F1EBF0021002030BD5FEA545C05D181
:100390004000494128BF41F0004130BD14F58004C0
:1003A0003CBF01F5801130BD01F0004545F0FE4134
:1003B00041F470014FF0000030BD7FEA645C1ABF69
:1003C000194610467FEA655C1CBF0B46024650EAA0
:1003D000013406BF52EA033591EA030F41F40021CC
:1003E00030BD00BF90F0000F04BF0021704730B552
:1003F0004FF4806404F132044FF000054FF0000127
:1004000050E700BF90F0000F04BF0021704730B5E7
:100410004FF4806404F1320410F0004548BF4042BC
:100420004FF000013EE700BF42004FEAE2014FEA11
:1004300031014FEA02701FBF12F07F4393F07F4FEC
:1004400081F06051704732F07F4208BF704793F0EF
:100450007F4F04BF41F40021704730B54FF4607402
:1004600001F0004521F000411CE700BF50EA010205
:1004700008BF704730B54FF000050AE050EA0102AE
:1004800008BF704730B511F0004502D5404261EB1E
:1004900041014FF4806404F132045FEA915C3FF45F
:1004A000D8AE4FF003025FEADC0C18BF03325FEAFC
:1004B000DC0C18BF033202EBDC02C2F1200300FAAD
:1004C00003FC20FA02F001FA03FE40EA0E0021FAD2
:1004D00002F11444BDE600BF70B54FF0FF0C4CF4C0
:1004E000E06C1CEA11541DBF1CEA135594EA0C0F72
:1004F00095EA0C0F00F0DEF82C4481EA030621EAAD
:100500004C5123EA4C5350EA013518BF52EA0335E7
:1005100041F4801143F4801338D0A0FB02CE4FF099
:100520000005E1FB02E506F00042E0FB03E54FF0C9
:100530000006E1FB03569CF0000F18BF4EF0010EC1
:10054000A4F1FF04B6F5007F64F5407404D25FEABD
:100550004E0E6D4146EB060642EAC62141EA555170
:100560004FEAC52040EA5E504FEACE2EB4F1FD0CB2
:1005700088BFBCF5E06F1ED8BEF1004F08BF5FEA30
:10058000500E50F1000041EB045170BD06F00046E2
:1005900046EA010140EA020081EA0301B4EB5C048F
:1005A000C2BFD4EB0C0541EA045170BD41F4801187
:1005B0004FF0000E013C00F3AB8014F1360FDEBFAC
:1005C000002001F0004170BDC4F10004203C35DA88
:1005D0000C341BDC04F11404C4F1200500FA05F30B
:1005E00020FA04F001FA05F240EA020001F00042AC
:1005F00021F0004110EBD37021FA04F642EB060122
:100600005EEA430E08BF20EAD37070BDC4F10C044B
:10061000C4F1200500FA04F320FA05F001FA04F20F
:1006200040EA020001F0004110EBD37041F10001FB
:100630005EEA430E08BF20EAD37070BDC4F1200506
:1006400000FA05F24EEA020E20FA04F301FA05F26E
:1006500043EA020321FA04F001F0004121FA04F216
:1006600020EA020000EBD3705EEA430E08BF20EAE6
:10067000D37070BD94F0000F0FD101F00046400020
:1006800041EB010111F4801F08BF013CF7D041EAA2
:10069000060195F0000F18BF704703F000465200A6
:1006A00043EB030313F4801F08BF013DF7D043EA77
:1006B0000603704794EA0C0F0CEA135518BF95EA2D
:1006C0000C0F0CD050EA410618BF52EA4306D1D1B4
:1006D00081EA030101F000414FF0000070BD50EAD3
:1006E000410606BF1046194652EA430619D094EA5D
:1006F0000C0F02D150EA013613D195EA0C0F05D147
:1007000052EA03361CBF104619460AD181EA03019A
:1007100001F0004141F0FE4141F470014FF0000052
:1007200070BD41F0FE4141F4780170BD70B54FF0ED
:10073000FF0C4CF4E06C1CEA11541DBF1CEA13556D
:1007400094EA0C0F95EA0C0F00F0A7F8A4EB05044F
:1007500081EA030E52EA03354FEA013100F0888046
:100760004FEA03334FF0805545EA131343EA12630F
:100770004FEA022245EA111545EA10654FEA0026C4
:100780000EF000419D4208BF964244F1FD0404F57D
:10079000407402D25B084FEA3202B61A65EB0305D9
:1007A0005B084FEA32024FF480104FF4002CB6EB96
:1007B000020E75EB030E22BFB61A754640EA0C0016
:1007C0005B084FEA3202B6EB020E75EB030E22BF56
:1007D000B61A754640EA5C005B084FEA3202B6EB97
:1007E000020E75EB030E22BFB61A754640EA9C0056
:1007F0005B084FEA3202B6EB020E75EB030E22BF26
:10080000B61A754640EADC0055EA060E18D04FEAE3
:10081000051545EA16754FEA06164FEAC30343EA83
:1008200052734FEAC2025FEA1C1CC0D111F4801F50
:100830000BD141EA00014FF000004FF0004CB6E749
:1008400011F4801F04BF01430020B4F1FD0C88BFE8
:10085000BCF5E06F3FF6AFAEB5EB030C04BFB6EBF3
:10086000020C5FEA500C50F1000041EB045170BDE6
:100870000EF0004E4EEA113114EB5C04C2BFD4EB13
:100880000C0541EA045170BD41F480114FF0000E97
:10089000013C90E645EA060E8DE60CEA135594EA13
:1008A0000C0F08BF95EA0C0F3FF43BAF94EA0C0F16
:1008B0000AD150EA01347FF434AF95EA0C0F7FF48B
:1008C00025AF104619462CE795EA0C0F06D152EADF
:1008D00003353FF4FDAE1046194622E750EA4106C3
:1008E00018BF52EA43067FF4C5AE50EA41047FF4D4
:1008F0000DAF52EA43057FF4EBAE12E74FF0FF3C39
:1009000006E000BF4FF0010C02E000BF4FF0010C09
:100910004DF804CD4FEA410C7FEA6C5C4FEA430C82
:1009200018BF7FEA6C5C1BD001B050EA410C0CBFD1
:1009300052EA430C91EA030F02BF90EA020F002033
:10094000704710F1000F91EA030F58BF994208BF9A
:1009500090422CBFD8176FEAE37040F00100704757
:100960004FEA410C7FEA6C5C02D150EA013C07D1AE
:100970004FEA430C7FEA6C5CD6D152EA033CD3D0F9
:100980005DF8040B704700BF8446104662468C46F3
:100990001946634600E000BF01B5FFF7B7FF002826
:1009A00048BF10F1000F01BD4DF808EDFFF7F4FF4F
:1009B0000CBF012000205DF808FB00BF4DF808EDDA
:1009C000FFF7EAFF34BF012000205DF808FB00BFFD
:1009D0004DF808EDFFF7E0FF94BF012000205DF81F
:1009E00008FB00BF4DF808EDFFF7CEFF94BF0120D4
:1009F00000205DF808FB00BF4DF808EDFFF7C4FFCD
:100A000034BF012000205DF808FB00BF4FEA410C15
:100A10007FEA6C5C02D150EA013C0AD14FEA430CF8
:100A20007FEA6C5C02D152EA033C02D14FF0000035
:100A300070474FF0010070474FEA410212F5001273
:100A400015D211D56FF47873B3EB625212D94FEA15
:100A5000C12343F0004343EA505311F0004F23FAFF
:100A600002F018BF404270474FF00000704750EA54
:100A7000013005D111F0004008BF6FF00040704711
:100A80004FF00000704700BF80B582B000AF7860C3
:100A90007B681A68044B1B689A4201D100F05AFA2D
:100AA00000BF0837BD4680BDF405002090B587B073
:100AB00000AF0446084611461A462346FB7103461A
:100AC000BB710B467B7113463B710023FB75DCE069
:100AD000FB79BB75BB7D23F07F03BB75BB797B7551
:100AE0007B7D23F07F037B757B793B753B7D23F01A
:100AF0007F033B753B79FB74FB7C23F07F03FB7426
:100B000097F82830BB74BB7C23F07F03BB7497F845
:100B10002C307B747B7C23F07F037B7497F8303020
:100B20003B743B7C23F07F033B7497F83430FB73BA
:100B3000FB7B23F07F03FB73BB7D802B06D1002260
:100B40004FF48071554801F0F8FE05E001224FF4A2
:100B50008071524801F0F1FE7B7D802B06D100228E
:100B60004FF400714D4801F0E8FE05E001224FF41A
:100B700000714A4801F0E1FE3B7D802B06D1002246
:100B80004FF40041454801F0D8FE05E001224FF442
:100B90000041424801F0D1FEFB7C802B06D10022AF
:100BA0004FF480413D4801F0C8FE05E001224FF4BA
:100BB00080413A4801F0C1FEBB7C802B06D1002267
:100BC0004FF40051354801F0B8FE05E001224FF422
:100BD0000051324801F0B1FE7B7C802B06D100220F
:100BE0004FF480512D4801F0A8FE05E001224FF49A
:100BF00080512A4801F0A1FE3B7C802B05D10022C8
:100C00000221274801F099FE04E001220221244834
:100C100001F093FEFB7B802B05D1002201212048AF
:100C200001F08BFE04E0012201211D4801F085FE48
:100C300000221021194801F080FEFB795B00FB7156
:100C4000BB795B00BB717B795B007B713B795B009F
:100C50003B7197F828305B0087F8283097F82C30E4
:100C60005B0087F82C3097F830305B0087F8303025
:100C700097F834305B0087F83430012210210748A0
:100C800001F05BFEFB7D0133FB75FB7D072B7FF6DF
:100C90001FAF00BF00BF1C37BD4690BD000C014018
:100CA0000008014090B589B000AF044608461146DF
:100CB0001A462346FB710346BB710B46BB801346A5
:100CC0007B800023FB820023BB82BB79203B5B4AF5
:100CD000DB0013445B683B61BB79203B574ADB0078
:100CE00013449B78FB81BB79203B544A12F8333084
:100CF000BB810023BB8350E00023FB820023FB83E6
:100D000044E0BB8A5A1CBA821A463B6913441B78DA
:100D10003B8300237B832FE0BA88FB8A13443F2B5D
:100D20002EDC3B8B03F08003002B0CD0BA88FB8AAF
:100D3000134498B27A88BB8B13449BB201221946A4
:100D400000F0CEFA0BE0BA88FB8A134498B27A8896
:100D5000BB8B13449BB20022194600F0C1FA3B8BB7
:100D60005B003B83FB8A0133FB82FA8ABB899A4290
:100D700008D27B8B01337B837B8B072BCCD902E0A2
:100D800000BF00E000BFFB8B0133FB83FA8BFB89C4
:100D90009A42B6D3BB8B0133BB83BB8B0E2BABD933
:100DA000274B1B78012B43D10023FB833DE000231D
:100DB000BB8334E0FB8B053398B2BB8B05339BB20E
:100DC0000022194600F08CFAFB8B0E3398B2BB8BD5
:100DD00010339BB20022194600F082FAFB8B1833C5
:100DE00098B2BB8B20339BB20022194600F078FAF0
:100DF000FB8B223398B2BB8B30339BB20022194657
:100E000000F06EFAFB8B2C3398B2BB8B40339BB255
:100E10000022194600F064FABB8B0133BB83BB8B05
:100E2000072BC7D9FB8B0133FB83FB8B072BBED969
:100E3000BB89DBB218462437BD4690BD0C7E000846
:100E40008406002080B483B000AF0023FB8022E042
:100E5000FB88154A0021D154FB88144A0021D15443
:100E6000FB88134A0021D154FB88124A0021D15437
:100E7000FB88114A0021D154FB88104A0021D1542B
:100E8000FB880F4A0021D154FB880E4A0021D1541F
:100E9000FB880133FB80FB887F2BD9D900BF00BFC3
:100EA0000C37BD4680BC7047F00100207002002066
:100EB000F002002070030020F003002070040020E6
:100EC000F00400207005002080B584B000AF3960C8
:100ED00011461A460346FB710B46BB7113467B71E4
:100EE0000023FB7311E03B681978FB7B9AB27B7996
:100EF0009BB20020FFF7D6FE0346013BDAB2FB7B34
:100F00001344FB733B6801333B603B681B78002B49
:100F1000E9D1FB7B18461037BD4680BD80B582B055
:100F200000AF0023FB8006E0FB88084A0021D15473
:100F3000FB880133FB80FB887F2BF5D9044802F046
:100F400075F900BF0837BD4680BD00BFF001002025
:100F5000F4050020F0B587B004AF0023FB7142E137
:100F6000FB7903F16002A84B1B78DB001344A74A0E
:100F7000D55CFB7903F16002A34B1B78DB001344C3
:100F8000A34AD65CFB7903F160029F4B1B78DB0020
:100F90001344A04A12F803C0FB7903F160029A4B94
:100FA0001B78DB0013449C4A12F803E0FB7903F141
:100FB0006002954B1B78DB001344984AD35CFA79A6
:100FC00002F16001904A1278D2000A4494498A5C86
:100FD000F97901F160008C490978C9000144914810
:100FE000415CF87900F1600487480078C000204433
:100FF0008D4C205C039002910192009373466246EF
:1010000031462846FFF752FDFB7903F140027E4B43
:101010001B78DB0013447D4AD55CFB7903F1400269
:10102000794B1B78DB001344794AD65CFB7903F1DA
:101030004002754B1B78DB001344764A12F803C05C
:10104000FB7903F14002704B1B78DB001344724ABA
:1010500012F803E0FB7903F140026B4B1B78DB00D5
:1010600013446E4AD35CFA7902F14001664A127861
:10107000D2000A446A498A5CF97901F14000624968
:101080000978C90001446748415CF87900F14004DF
:101090005D480078C0002044634C205C03900291BE
:1010A000019200937346624631462846FFF7FEFCE4
:1010B000FB7903F12002544B1B78DB001344534AA5
:1010C000D55CFB7903F120024F4B1B78DB00134406
:1010D0004F4AD65CFB7903F120024B4B1B78DB00B7
:1010E00013444C4A12F803C0FB7903F12002464B2B
:1010F0001B78DB001344484A12F803E0FB7903F144
:101100002002414B1B78DB001344444AD35CFA793C
:1011100002F120013C4A1278D2000A4440498A5C1C
:10112000F97901F1200038490978C90001443D48A6
:10113000415CF87900F1200433480078C000204475
:10114000394C205C039002910192009373466246F1
:1011500031462846FFF7AAFCFA792B4B1B78DB00B7
:1011600013442A4AD55CFA79274B1B78DB001344D9
:10117000274AD65CFA79244B1B78DB001344254AB6
:1011800012F803C0FA79204B1B78DB001344224A83
:1011900012F803E0FA791C4B1B78DB0013441F4A5A
:1011A000D35CF979184A1278D2000A441C498A5C47
:1011B000F87915490978C90001441A48415CFC795D
:1011C00011480078C0002044174C205C0390029125
:1011D000019200937346624631462846FFF766FC4B
:1011E000FB790133FB71FB79072B7FF6B9AE002247
:1011F00040210E4801F0A1FB012208210B4801F01B
:101200009CFB0022082113E0F0050020F0010020E3
:1012100070020020F002002070030020F003002084
:1012200070040020F004002070050020000C014034
:10123000294801F082FB294B1B78002B0AD10022A0
:101240008021254801F079FB00222021224801F06D
:1012500074FB2BE0214B1B78012B0AD1012280214A
:101260001D4801F06AFB002220211B4801F065FBAC
:101270001CE01A4B1B78022B0AD100228021164851
:1012800001F05BFB01222021134801F056FB0DE029
:10129000124B1B78032B09D1012280210E4801F04B
:1012A0004CFB012220210C4801F047FB0B4B1B7823
:1012B0000133DAB2094B1A70084B1B78032B02D9A1
:1012C000064B00221A7001224021034801F035FB31
:1012D00000BF0C37BD46F0BD000C0140F0050020FA
:1012E00080B485B000AF0346FB800B46BB8013463D
:1012F000FB70FB88DB08FB81FB89DB009BB2FA8873
:10130000D31ABB81BB881B097B817B891B019BB2E4
:10131000BA88D31A3B81FB78012B40F0D9807B89B6
:10132000002B17D13B89DA00FB891344944AD35C24
:101330005AB2BB89C3F10703012101FA03F35BB27F
:10134000134359B23B89DA00FB891344C9B28C4A72
:10135000D154B5E17B89012B17D13B89DA00FB8998
:101360001344884AD35C5AB2BB89C3F107030121F5
:1013700001FA03F35BB2134359B23B89DA00FB89EC
:101380001344C9B27F4AD1549AE17B89022B17D109
:101390003B89DA00FB8913447B4AD35C5AB2BB8990
:1013A000C3F10703012101FA03F35BB2134359B2FE
:1013B0003B89DA00FB891344C9B2734AD1547FE1F7
:1013C0007B89032B17D13B89DA00FB8913446F4AD1
:1013D000D35C5AB2BB89C3F10703012101FA03F3BD
:1013E0005BB2134359B23B89DA00FB891344C9B29B
:1013F000664AD15464E17B89042B17D13B89DA001A
:10140000FB891344624AD35C5AB2BB89C3F1070318
:10141000012101FA03F35BB2134359B23B89DA00AD
:10142000FB891344C9B25A4AD15449E17B89052B3F
:1014300017D13B89DA00FB891344564AD35C5AB270
:10144000BB89C3F10703012101FA03F35BB2134324
:1014500059B23B89DA00FB891344C9B24D4AD154D1
:101460002EE17B89062B17D13B89DA00FB891344D7
:10147000494AD35C5AB2BB89C3F10703012101FA7F
:1014800003F35BB2134359B23B89DA00FB8913447F
:10149000C9B2414AD15413E17B89072B40F0108136
:1014A0003B89DA00FB8913443C4AD35C5AB2BB89BE
:1014B000C3F10703012101FA03F35BB2134359B2ED
:1014C0003B89DA00FB891344C9B2344AD154F7E0AE
:1014D0007B89002B19D13B89DA00FB891344284A08
:1014E000D35C5AB2BB89C3F10703012101FA03F3AC
:1014F0005BB2DB435BB2134059B23B89DA00FB8934
:101500001344C9B21E4AD154DAE07B89012B19D1A8
:101510003B89DA00FB8913441A4AD35C5AB2BB896F
:10152000C3F10703012101FA03F35BB2DB435BB2B2
:10153000134059B23B89DA00FB891344C9B2114AFE
:10154000D154BDE07B89022B2AD13B89DA00FB898B
:1015500013440D4AD35C5AB2BB89C3F1070301217E
:1015600001FA03F35BB2DB435BB2134059B23B8930
:10157000DA00FB891344C9B2034AD154A0E000BF8A
:10158000F001002070020020F00200207003002013
:10159000F003002070040020F004002070050020FB
:1015A0007B89032B19D13B89DA00FB891344474A15
:1015B000D35C5AB2BB89C3F10703012101FA03F3DB
:1015C0005BB2DB435BB2134059B23B89DA00FB8963
:1015D0001344C9B23D4AD15472E07B89042B19D11E
:1015E0003B89DA00FB891344394AD35C5AB2BB8980
:1015F000C3F10703012101FA03F35BB2DB435BB2E2
:10160000134059B23B89DA00FB891344C9B2304A0E
:10161000D15455E07B89052B19D13B89DA00FB8930
:1016200013442C4AD35C5AB2BB89C3F1070301218E
:1016300001FA03F35BB2DB435BB2134059B23B895F
:10164000DA00FB891344C9B2224AD15438E07B89BD
:10165000062B19D13B89DA00FB8913441E4AD35C5F
:101660005AB2BB89C3F10703012101FA03F35BB24C
:10167000DB435BB2134059B23B89DA00FB89134468
:10168000C9B2154AD1541BE07B89072B18D13B897D
:10169000DA00FB891344114AD35C5AB2BB89C3F107
:1016A0000703012101FA03F35BB2DB435BB2134092
:1016B00059B23B89DA00FB891344C9B2074AD154B5
:1016C00000BF1437BD4680BC704700BF70030020C8
:1016D000F003002070040020F004002070050020BA
:1016E00080B58CB000AF0346FB712423FB6209E098
:1016F000FB6A9BB2012212211846FFF7F1FDFB6A3B
:101700000133FB62FB6A3A2BF2DD2423BB6209E062
:10171000BB6A9BB2012217211846FFF7E1FDBB6AA5
:101720000133BB62BB6A3A2BF2DD12237B6209E014
:101730007B6A9BB2012219462420FFF7D1FD7B6A08
:1017400001337B627B6A172BF2DD12233B6209E0D7
:101750003B6A9BB2012219463A20FFF7C1FD3B6A62
:1017600001333B623B6A172BF2DD1323FB6109E077
:10177000FB699BB2012219463B20FFF7B1FDFB69D3
:101780000133FB61FB69162BF2DDFB79042B1CD8BE
:1017900001A252F823F000BFAD170008B3170008EC
:1017A000B9170008BF170008C51700080123FB710F
:1017B0000BE00223FB7108E00323FB7105E0042327
:1017C000FB7102E00523FB7100BF2623BB610023F0
:1017D0007B6121E0BB693B6113E01223FB600AE0FF
:1017E0003B699BB2FA6891B201221846FFF778FD77
:1017F000FB680133FB60FB68172BF1DD3B690133AC
:101800003B61BB6902333A699A42E6DDBB69043346
:10181000BB617B6901337B61FB797A699A42D9DBD1
:1018200000BF00BF3037BD4680BD00BF80B500AFF0
:101830000221244801F06AF80346002B3CD1224BD8
:101840001B88012B05D1214B1B8801339AB21F4BFA
:101850001A801E4B1B88012B03D10020FFF740FF8D
:1018600026E01A4B1B88022B03D10120FFF738FF1B
:101870001EE0164B1B88032B03D10220FFF730FF1D
:1018800016E0124B1B88042B03D10320FFF728FF1F
:101890000EE00E4B1B88052B03D10420FFF720FF21
:1018A00006E00A4B1B88052B02D9084B01221A803F
:1018B000054B00221A8002E0034B01221A8000BF70
:1018C00080BD00BF000C0140860600208806002075
:1018D00080B582B000AF00F04FFC00F0E3F800F0FC
:1018E000A1F900F075F900F023F9FFF717FB4FF4A9
:1018F000D2737B6000233B60FFF798FF20215C4898
:1019000001F004F803461A465A4B1A704021584811
:1019100000F0FCFF03461A46574B1A700121574846
:1019200000F0F4FF03461A46554B1A700221534843
:1019300000F0ECFF03461A46524B1A704E4B1B78D0
:10194000002B40F0888001233B6000F06DFC0246D4
:101950004D4B1B68D31AB3F57A7F4AD97B68002BAD
:1019600038DB4A4B1B68002B34D17B68484A82FB2A
:1019700003121A445211DB17D01A7A68444B83FBC6
:10198000021313445911D317C91A0B461B015B1AD2
:101990009B00D11A0B4602463E493F4803F044FAE9
:1019A000032300223C490020FFF78EFA7B68013BAD
:1019B0007B60304B1B78002B03D1344B01221A6023
:1019C00017E0324B00221A6000F02EFC03462E4A2C
:1019D00013600EE03149304803F026FA0323002259
:1019E0002D490020FFF770FA01220121204800F064
:1019F000A4FF234B1B78002B7FF47EAF0A2000F05E
:101A00001DFC1F4B1B78002B7FF476AF7B68204AB0
:101A100082FB03121A445211DB17D01A7A681C4B4E
:101A200083FB021313445911D317C91A0B461B0128
:101A30005B1A9B00D11A0B4602461949164803F05F
:101A4000F3F90323002214490020FFF73DFA7B68D5
:101A50001E3B7B6050E7084B1B78012B7FF44CAF9B
:101A6000FFF7F0F94FF4D2737B6001233B6043E74B
:101A700000080140B0060020B1060020000C014023
:101A8000B2060020B3060020AC060020B4060020F9
:101A900089888888B07000088C060020CC70000807
:101AA000E470000880B590B000AF07F11803282259
:101AB0000021184603F01BFA3B1D00221A605A60F1
:101AC0009A60DA601A610123BB614FF48033FB61D5
:101AD00000233B620123BB6202237B634FF480330C
:101AE000BB634FF4E013FB6307F11803184600F0E3
:101AF0003DFF0346002B01D000F02AF90F237B6045
:101B00000223BB600023FB604FF480633B61002332
:101B10007B613B1D0221184601F0AAF90346002B08
:101B200001D000F015F900BF4037BD4680BD000070
:101B300080B586B000AF07F1080300221A605A6032
:101B40009A60DA603B4600221A605A601E4B1F4AB8
:101B50001A601D4B47225A601B4B00229A601A4B99
:101B600040F69F72DA60184B00221A61164B002271
:101B70005A61154B00229A61134801F007FB034696
:101B8000002B01D000F0E4F84FF48053BB6007F164
:101B9000080319460C4801F0A3FC0346002B01D0B2
:101BA00000F0D6F800233B6000237B603B461946DB
:101BB000054801F079FE0346002B01D000F0C8F87B
:101BC00000BF1837BD4680BDF4050020002C014041
:101BD00080B500AF114B124A1A60104B4FF4E1323E
:101BE0005A600E4B00229A600C4B0022DA600B4BBD
:101BF00000221A61094B0C225A61084B00229A619B
:101C0000064B0022DA61054801F0BEFE0346002BB8
:101C100001D000F09DF800BF80BD00BF3C06002051
:101C20000044004080B588B000AF07F110030022E7
:101C30001A605A609A60DA60424B9B69414A43F0ED
:101C4000200393613F4B9B6903F02003FB60FB681B
:101C50003C4B9B693B4A43F004039361394B9B69BE
:101C600003F00403BB60BB68364B9B69354A43F005
:101C700008039361334B9B6903F008037B607B6827
:101C800000221321304800F058FE00224FF6F87170
:101C90002E4800F052FE03233B6101237B610023A9
:101CA000BB610323FB6107F110031946264800F0CE
:101CB000A9FC10233B6101237B610023BB6102234C
:101CC000FB6107F1100319461F4800F09BFCE0235D
:101CD0003B6100237B610023BB6107F110031946C0
:101CE000194800F08FFC03233B6100237B61002334
:101CF000BB6107F110031946144800F083FC4FF450
:101D000040633B6101237B610023BB610223FB61D4
:101D100007F1100319460D4800F074FC4FF2F83338
:101D20003B6101237B610023BB610323FB6107F15E
:101D300010031946054800F065FC00BF2037BD467A
:101D400080BD00BF0010024000080140000C0140AF
:101D500080B400AF72B600BF00BFFDE780B485B0AD
:101D600000AF154B9B69144A43F001039361124B7A
:101D70009B6903F00103BB60BB680F4BDB690E4A34
:101D800043F08053D3610C4BDB6903F080537B60DD
:101D90007B680A4B5B68FB60FB6823F0E063FB60D9
:101DA000FB6843F00073FB60044AFB68536000BFAC
:101DB0001437BD4680BC704700100240000001404F
:101DC00080B584B000AF78607B681B68194A934285
:101DD0002BD1194B9B69184A43F400639361164B4E
:101DE0009B6903F40063FB60FB6800220721182055
:101DF00000F01FFB182000F038FB002207211920FB
:101E000000F017FB192000F030FB002207211A20F8
:101E100000F00FFB1A2000F028FB002207211B20F6
:101E200000F007FB1B2000F020FB00BF1037BD4671
:101E300080BD00BF002C01400010024080B588B07A
:101E400000AF786007F1100300221A605A609A60B0
:101E5000DA607B681B681F4A934237D11E4BDB69EF
:101E60001D4A43F40033D3611B4BDB6903F4003399
:101E7000FB60FB68184B9B69174A43F004039361AE
:101E8000154B9B6903F00403BB60BB6804233B61F3
:101E900002237B610323FB6107F1100319460F48FE
:101EA00000F0B0FB08233B6100237B610023BB6192
:101EB00007F110031946094800F0A4FB0022002195
:101EC000262000F0B6FA262000F0CFFA00BF203717
:101ED000BD4680BD004400400010024000080140A3
:101EE00080B400AF00BFFDE780B400AF00BFFDE7E6
:101EF00080B400AF00BFFDE780B400AF00BFFDE7D6
:101F000080B400AF00BFFDE780B400AF00BFBD46A6
:101F100080BC704780B400AF00BFBD4680BC704736
:101F200080B400AF00BFBD4680BC704780B500AF35
:101F300000F068F900BF80BD80B500AF024801F035
:101F4000C7F900BF80BD00BFF405002080B500AF19
:101F5000024801F0BDF900BF80BD00BFF4050020BC
:101F600080B500AF024801F0B3F900BF80BD00BFEB
:101F7000F405002080B500AF024801F0A9F900BFC8
:101F800080BD00BFF405002080B500AF024801F01D
:101F90004BFD00BF80BD00BF3C06002080B400AFF9
:101FA00001231846BD4680BC704780B582B000AFA3
:101FB0007860396002F0EEFF034616221A604FF097
:101FC000FF3318460837BD4680BD80B582B000AFEC
:101FD00078604FF0FF317868FFF7E7FF00BFFDE75B
:101FE00080B586B000AFF860B9607A6000237B618D
:101FF0000AE0AFF300800146BB685A1CBA60CAB25F
:102000001A707B6901337B617A697B689A42F0DBE5
:102010007B6818461837BD4680BD80B586B000AFD6
:10202000F860B9607A6000237B6109E0BB685A1CE4
:10203000BA601B781846AFF300807B6901337B617F
:102040007A697B689A42F1DB7B6818461837BD468F
:1020500080BD80B483B000AF78604FF0FF33184686
:102060000C37BD4680BC704780B483B000AF786049
:1020700039603B684FF400525A60002318460C3711
:10208000BD4680BC704780B483B000AF7860012348
:1020900018460C37BD4680BC704780B485B000AF91
:1020A000F860B9607A60002318461437BD4680BCDA
:1020B0007047000080B586B000AF7860144A154BB9
:1020C000D31A7B617B693B61134B1B68002B02D1E8
:1020D000114B124A1A60104B1A687B6813443A6914
:1020E0009A4207D202F056FF03460C221A604FF0C4
:1020F000FF3309E0084B1B68FB60074B1A687B68DD
:102100001344054A1360FB6818461837BD4680BD66
:102110000050002000040000B80600201008002035
:1021200080B400AF00BFBD4680BC7047FFF7F8FF2A
:102130000B480C490C4A002302E0D458C450043325
:10214000C4188C42F9D3094A094C002301E01360FA
:102150000432A242FBD302F023FFFFF7B9FB704722
:1021600000000020D401002098850008D401002040
:102170000C080020FEE7000080B500AF084B1B688C
:10218000074A43F010031360032000F047F90F20C3
:1021900000F008F8FFF7E2FD0023184680BD00BFFD
:1021A0000020024080B582B000AF7860124B1A6800
:1021B000124B1B7819464FF47A73B3FBF1F3B2FB61
:1021C000F3F3184600F05FF90346002B01D001231A
:1021D0000EE07B680F2B0AD8002279684FF0FF30A1
:1021E00000F027F9064A7B681360002300E0012312
:1021F00018460837BD4680BD0000002008000020BA
:102200000400002080B400AF054B1B781A46054B34
:102210001B681344034A136000BFBD4680BC70476F
:1022200008000020BC06002080B400AF024B1B68F1
:102230001846BD4680BC7047BC06002080B584B0FF
:1022400000AF7860FFF7F0FFB8607B68FB60FB6869
:10225000B3F1FF3F05D00A4B1B781A46FB681344C5
:10226000FB6000BFFFF7E0FF0246BB68D31AFA68C5
:102270009A42F7D800BF00BF1037BD4680BD00BFEF
:102280000800002080B485B000AF78607B6803F060
:102290000703FB600C4BDB68BB60BA684FF6FF03BB
:1022A0001340BB60FB681A02BB68134343F0BF6373
:1022B00043F40033BB60044ABB68D36000BF1437EB
:1022C000BD4680BC704700BF00ED00E080B400AFA9
:1022D000044BDB681B0A03F007031846BD4680BCAD
:1022E000704700BF00ED00E080B483B000AF03464C
:1022F000FB7197F90730002B0BDBFB7903F01F0212
:10230000064997F907305B09012000FA02F241F80B
:10231000232000BF0C37BD4680BC704700E100E0C1
:1023200080B483B000AF03463960FB7197F9073082
:10233000002B0ADB3B68DAB20C4997F9073012012F
:10234000D2B20B4483F800230AE03B68DAB20849B2
:10235000FB7903F00F03043B1201D2B20B441A764F
:1023600000BF0C37BD4680BC704700BF00E100E0F5
:1023700000ED00E080B489B000AFF860B9607A6029
:10238000FB6803F00703FB61FB69C3F10703042B40
:1023900028BF0423BB61FB690433062B02D9FB6908
:1023A000033B00E000237B614FF0FF32BB6902FA80
:1023B00003F3DA43BB681A407B699A404FF0FF3160
:1023C0007B6901FA03F3D9437B680B40134318463A
:1023D0002437BD4680BC704780B582B000AF7860BE
:1023E0007B68013BB3F1807F01D301230FE00A4AF0
:1023F0007B68013B53600F214FF0FF30FFF790FFE8
:10240000054B00229A60044B07221A6000231846ED
:102410000837BD4680BD00BF10E000E080B582B047
:1024200000AF78607868FFF72DFF00BF0837BD4622
:1024300080BD80B586B000AF0346B9607A60FB739B
:1024400000237B61FFF742FF78617A68B968786999
:10245000FFF790FF024697F90F3011461846FFF735
:102460005FFF00BF1837BD4680BD80B582B000AFAA
:102470000346FB7197F907301846FFF735FF00BF99
:102480000837BD4680BD80B582B000AF78607868FF
:10249000FFF7A2FF034618460837BD4680BD80B44B
:1024A00085B000AF78600023FB737B6893F8213020
:1024B000DBB2022B08D07B6804229A637B6800227F
:1024C00083F82020012320E07B681B681A687B6862
:1024D0001B6822F00E021A607B681B681A687B6812
:1024E0001B6822F001021A607B681A6C7B68DB6B48
:1024F000012101FA02F25A607B68012283F821204F
:102500007B68002283F82020FB7B18461437BD46E9
:1025100080BC704780B584B000AF78600023FB7347
:102520007B6893F82130DBB2022B05D07B68042254
:102530009A630123FB7351E07B681B681A687B6810
:102540001B6822F00E021A607B681B681A687B68A1
:102550001B6822F001021A607B681B68224A9342C2
:1025600029D07B681B68214A934222D07B681B6874
:102570001F4A93421AD07B681B681E4A934212D0AE
:102580007B681B681C4A93420AD07B681B681B4A05
:10259000934202D14FF480130EE04FF080730BE0B2
:1025A0004FF4803308E04FF4805305E04FF480731C
:1025B00002E0102300E00123114A53607B680122EE
:1025C00083F821207B68002283F820207B685B6BE6
:1025D000002B03D07B685B6B78689847FB7B1846C1
:1025E0001037BD4680BD00BF080002401C000240FD
:1025F0003000024044000240580002406C0002409B
:102600000000024080B48BB000AF786039600023D6
:102610007B6200233B6269E101227B6A02FA03F3D9
:10262000FB613B681B68FA691340BB61BA69FB69CF
:102630009A4240F058813B685B689A4A93425ED068
:10264000984A934275D8984A934258D0964A9342F2
:102650006FD8964A934252D0944A934269D8944A8A
:1026600093424CD0924A934263D8924A934246D0C6
:10267000904A93425DD8122B2AD8122B59D801A226
:1026800052F823F0FF260008D9260008EB260008A0
:102690002D270008332700083327000833270008B8
:1026A00033270008332700083327000833270008A2
:1026B0003327000833270008332700083327000892
:1026C0003327000833270008E1260008F526000814
:1026D000794A934213D02CE03B68DB683B6229E0E7
:1026E0003B68DB6804333B6224E03B68DB6808330B
:1026F0003B621FE03B68DB680C333B621AE03B68DF
:102700009B68002B02D104233B6213E03B689B686B
:10271000012B05D108233B627B68FA691A6109E045
:1027200008233B627B68FA695A6103E000233B623D
:1027300000E000BFBB69FF2B01D87B6801E07B682C
:1027400004337B61BB69FF2B02D87B6A9B0002E0EC
:102750007B6A083B9B003B617B691A680F213B69E0
:1027600001FA03F3DB431A40396A3B6901FA03F3C8
:102770001A437B691A603B685B6803F08053002B47
:1027800000F0B1804D4B9B694C4A43F001039361CB
:102790004A4B9B6903F00103BB60BB68484A7B6AF4
:1027A0009B08023352F82330FB607B6A03F003037B
:1027B0009B000F2202FA03F3DB43FA681340FB602D
:1027C0007B68404A934213D07B683F4A93420DD0C6
:1027D0007B683E4A934207D07B683D4A934201D1D1
:1027E000032306E0042304E0022302E0012300E0C7
:1027F00000237A6A02F0030292009340FA681343BE
:10280000FB602F497B6A9B080233FA6841F823205A
:102810003B685B6803F48013002B06D02D4B9A684D
:102820002C49BB6913438B6006E02A4B9A68BB694D
:10283000DB43284913408B603B685B6803F400135B
:10284000002B06D0234BDA682249BB691343CB60C7
:1028500006E0204BDA68BB69DB431E491340CB60BE
:102860003B685B6803F40033002B06D0194B5A68B1
:102870001849BB6913434B6006E0164B5A68BB69A5
:10288000DB43144913404B603B685B6803F48033BF
:10289000002B21D00F4B1A680E49BB6913430B6004
:1028A00021E000BF000032100000311000002210B3
:1028B0000000211000001210000011100010024052
:1028C0000000014000080140000C014000100140E0
:1028D00000140140000401400B4B1A68BB69DB4344
:1028E000094913400B607B6A01337B623B681A68BD
:1028F0007B6A22FA03F3002B7FF48EAE00BF00BF89
:102900002C37BD4680BC70470004014080B485B0C0
:1029100000AF78600B467B807B689A687B881340A9
:10292000002B02D00123FB7301E00023FB73FB7B30
:1029300018461437BD4680BC704780B483B000AFE2
:1029400078600B467B8013467B707B78002B03D02E
:102950007A887B681A6103E07B881A047B681A61B5
:1029600000BF0C37BD4680BC7047000080B586B004
:1029700000AF78607B68002B01D1012372E27B6895
:102980001B6803F00103002B00F08780924B5B680B
:1029900003F00C03042B0CD08F4B5B6803F00C038B
:1029A000082B12D18C4B5B6803F48033B3F5803F66
:1029B0000BD1894B1B6803F40033002B6CD07B6870
:1029C0005B68002B68D101234CE27B685B68B3F540
:1029D000803F06D1804B1B687F4A43F480331360ED
:1029E0002EE07B685B68002B0CD17B4B1B687A4A1E
:1029F00023F480331360784B1B68774A23F48023D9
:102A000013601DE07B685B68B3F5A02F0CD1724B9F
:102A10001B68714A43F4802313606F4B1B686E4A36
:102A200043F4803313600BE06B4B1B686A4A23F45A
:102A300080331360684B1B68674A23F4802313605C
:102A40007B685B68002B13D0FFF7EEFB386108E072
:102A5000FFF7EAFB02463B69D31A642B01D9032333
:102A600000E25D4B1B6803F40033002BF0D014E050
:102A7000FFF7DAFB386108E0FFF7D6FB02463B6957
:102A8000D31A642B01D90323ECE1534B1B6803F4E5
:102A90000033002BF0D100E000BF7B681B6803F01F
:102AA0000203002B63D04C4B5B6803F00C03002B3C
:102AB0000BD0494B5B6803F00C03082B1CD1464B31
:102AC0005B6803F48033002B16D1434B1B6803F083
:102AD0000203002B05D07B681B69012B01D0012369
:102AE000C0E13D4B1B6823F0F8027B685B69DB00AB
:102AF000394913430B603AE07B681B69002B20D0F7
:102B0000364B01221A60FFF78FFB386108E0FFF7B0
:102B10008BFB02463B69D31A022B01D90323A1E1A7
:102B20002D4B1B6803F00203002BF0D02A4B1B68CF
:102B300023F0F8027B685B69DB00274913430B60D5
:102B400015E0264B00221A60FFF76EFB386108E0A3
:102B5000FFF76AFB02463B69D31A022B01D9032314
:102B600080E11D4B1B6803F00203002BF0D17B6852
:102B70001B6803F00803002B3AD07B689B69002B8D
:102B800019D0174B01221A60FFF74EFB386108E09D
:102B9000FFF74AFB02463B69D31A022B01D90323F4
:102BA00060E10D4B5B6A03F00203002BF0D00120C3
:102BB00000F0CEFA1CE00A4B00221A60FFF734FB4B
:102BC00038610FE0FFF730FB02463B69D31A022B56
:102BD00008D9032346E100BF001002400000424232
:102BE00080044242924B5B6A03F00203002BE9D15E
:102BF0007B681B6803F00403002B00F0A680002311
:102C0000FB758B4BDB6903F08053002B0DD1884B98
:102C1000DB69874A43F08053D361854BDB6903F05E
:102C20008053BB60BB680123FB75824B1B6803F4B8
:102C30008073002B18D17F4B1B687E4A43F480734E
:102C40001360FFF7F1FA386108E0FFF7EDFA02468A
:102C50003B69D31A642B01D9032303E1754B1B682D
:102C600003F48073002BF0D07B68DB68012B06D166
:102C70006F4B1B6A6E4A43F0010313622DE07B68C1
:102C8000DB68002B0CD16A4B1B6A694A23F00103F5
:102C90001362674B1B6A664A23F0040313621CE04D
:102CA0007B68DB68052B0CD1614B1B6A604A43F0E3
:102CB000040313625E4B1B6A5D4A43F00103136217
:102CC0000BE05B4B1B6A5A4A23F001031362584B1B
:102CD0001B6A574A23F0040313627B68DB68002BEE
:102CE00015D0FFF7A1FA38610AE0FFF79DFA024616
:102CF0003B69D31A41F28832934201D90323B1E0F0
:102D00004B4B1B6A03F00203002BEED014E0FFF7DD
:102D10008BFA38610AE0FFF787FA02463B69D31A5B
:102D200041F28832934201D903239BE0404B1B6A56
:102D300003F00203002BEED1FB7D012B05D13C4BB0
:102D4000DB693B4A23F08053D3617B68DB69002B4E
:102D500000F08780364B5B6803F00C03082B61D0D2
:102D60007B68DB69022B46D1334B00221A60FFF7E8
:102D70005BFA386108E0FFF757FA02463B69D31A5D
:102D8000022B01D903236DE0294B1B6803F000736C
:102D9000002BF0D17B681B6AB3F5803F08D1244B30
:102DA0005B6823F400327B689B68214913434B60C6
:102DB0001F4B5B6823F474127B68196A7B685B6A3B
:102DC0000B431B4913434B601B4B01221A60FFF757
:102DD0002BFA386108E0FFF727FA02463B69D31A5D
:102DE000022B01D903233DE0114B1B6803F0007354
:102DF000002BF0D035E0104B00221A60FFF714FAD8
:102E0000386108E0FFF710FA02463B69D31A022B3B
:102E100001D9032326E0064B1B6803F00073002B47
:102E2000F0D11EE07B68DB69012B07D1012319E09B
:102E30000010024000700040600042420B4B5B6893
:102E4000FB60FB6803F480327B681B6A9A4206D100
:102E5000FB6803F470127B685B6A9A4201D001231D
:102E600000E0002318461837BD4680BD0010024020
:102E700080B584B000AF786039607B68002B01D1E9
:102E80000123D0E06A4B1B6803F007033A689A42BB
:102E900010D9674B1B6823F0070265493B68134351
:102EA0000B60634B1B6803F007033A689A4201D03A
:102EB0000123B8E07B681B6803F00203002B20D0DD
:102EC0007B681B6803F00403002B05D0594B5B683B
:102ED000584A43F4E06353607B681B6803F00803BF
:102EE000002B05D0534B5B68524A43F46053536048
:102EF000504B5B6823F0F0027B689B684D4913439D
:102F00004B607B681B6803F00103002B40D07B689B
:102F10005B68012B07D1474B1B6803F40033002B80
:102F200015D101237FE07B685B68022B07D1414B01
:102F30001B6803F00073002B09D1012373E03D4BA4
:102F40001B6803F00203002B01D101236BE0394B16
:102F50005B6823F003027B685B68364913434B6070
:102F6000FFF762F9F8600AE0FFF75EF90246FB68D6
:102F7000D31A41F28832934201D9032353E02D4BF7
:102F80005B6803F00C027B685B689B009A42EBD1A4
:102F9000274B1B6803F007033A689A4210D2244B70
:102FA0001B6823F0070222493B6813430B60204B48
:102FB0001B6803F007033A689A4201D0012332E00C
:102FC0007B681B6803F00403002B08D0194B5B6877
:102FD00023F4E0627B68DB68164913434B607B682F
:102FE0001B6803F00803002B09D0124B5B6823F425
:102FF00060527B681B69DB000E4913434B6000F095
:1030000021F802460B4B5B681B0903F00F030A49CA
:10301000CB5C22FA03F3094A1360094B1B6818467C
:10302000FFF7C0F8002318461037BD4680BD00BF2B
:103030000020024000100240EC8100080000002047
:103040000400002080B487B000AF0023FB600023A1
:10305000BB6000237B6100237B6000233B611E4B30
:103060005B68FB60FB6803F00C03042B02D0082BA9
:1030700003D027E0194B3B6127E0FB689B0C03F072
:103080000F03174AD35C7B60FB6803F48033002B8B
:1030900010D0114B5B685B0C03F00103114AD35C49
:1030A000BB607B680D4A03FB02F2BB68B2FBF3F323
:1030B0007B6104E07B680C4A02FB03F37B617B6964
:1030C0003B6102E0054B3B6100BF3B6918461C3782
:1030D000BD4680BC704700BF0010024000127A005D
:1030E000048200081482000800093D0080B400AF8B
:1030F000024B1B681846BD4680BC7047000000208C
:1031000080B500AFFFF7F2FF0246054B5B681B0A74
:1031100003F007030349CB5C22FA03F3184680BD92
:1031200000100240FC81000880B500AFFFF7DEFF11
:103130000246054B5B68DB0A03F007030349CB5CDF
:1031400022FA03F3184680BD00100240FC810008FB
:1031500080B485B000AF78600A4B1B680A4AA2FBB6
:1031600003235B0A7A6802FB03F3FB6000BFFB6882
:103170005A1EFA60002BF9D100BF00BF1437BD46BC
:1031800080BC704700000020D34D621080B582B033
:1031900000AF78607B68002B01D1012341E07B68A0
:1031A00093F83D30DBB2002B06D17B68002283F818
:1031B0003C207868FEF704FE7B68022283F83D20FD
:1031C0007B681A687B6804331946104600F074FA6D
:1031D0007B68012283F846207B68012283F83E2029
:1031E0007B68012283F83F207B68012283F840201E
:1031F0007B68012283F841207B68012283F842200A
:103200007B68012283F843207B68012283F84420F5
:103210007B68012283F845207B68012283F83D20EA
:10322000002318460837BD4680BD000080B485B035
:1032300000AF78607B6893F83D30DBB2012B01D0A2
:1032400001233AE07B68022283F83D207B681B68FB
:10325000DA687B681B6842F00102DA607B681B68F1
:10326000184A93420ED07B681B68B3F1804F09D097
:103270007B681B68144A934204D07B681B68134A1E
:10328000934211D17B681B689B6803F00703FB60C6
:10329000FB68062B10D07B681B681A687B681B686C
:1032A00042F001021A6007E07B681B681A687B68BD
:1032B0001B6842F001021A60002318461437BD460D
:1032C00080BC7047002C0140000400400008004012
:1032D00080B582B000AF78607B681B681B6903F023
:1032E0000203022B22D17B681B68DB6803F0020318
:1032F000022B1BD17B681B686FF002021A617B688E
:1033000001221A777B681B689B6903F00303002B7B
:1033100003D0786800F0B4F905E0786800F0A7F908
:10332000786800F0B6F97B6800221A777B681B6822
:103330001B6903F00403042B22D17B681B68DB6844
:1033400003F00403042B1BD17B681B686FF004029D
:103350001A617B6802221A777B681B689B6903F4F9
:103360004073002B03D0786800F08AF905E0786894
:1033700000F07DF9786800F08CF97B6800221A77FC
:103380007B681B681B6903F00803082B22D17B684C
:103390001B68DB6803F00803082B1BD17B681B68E4
:1033A0006FF008021A617B6804221A777B681B6839
:1033B000DB6903F00303002B03D0786800F060F9A9
:1033C00005E0786800F053F9786800F062F97B68EE
:1033D00000221A777B681B681B6903F01003102B0F
:1033E00022D17B681B68DB6803F01003102B1BD114
:1033F0007B681B686FF010021A617B6808221A77DD
:103400007B681B68DB6903F44073002B03D078688A
:1034100000F036F905E0786800F029F9786800F0E6
:1034200038F97B6800221A777B681B681B6903F0F8
:103430000103012B0ED17B681B68DB6803F00103DD
:10344000012B07D17B681B686FF001021A61786855
:10345000FDF71AFB7B681B681B6903F08003802B58
:103460000ED17B681B68DB6803F08003802B07D1DB
:103470007B681B686FF080021A61786800F07BFA45
:103480007B681B681B6903F04003402B0ED17B68EF
:103490001B68DB6803F04003402B07D17B681B6887
:1034A0006FF040021A61786800F0FCF87B681B68D6
:1034B0001B6903F02003202B0ED17B681B68DB689F
:1034C00003F02003202B07D17B681B686FF02002DC
:1034D0001A61786800F046FA00BF0837BD4680BD23
:1034E00080B584B000AF786039600023FB737B68DF
:1034F00093F83C30012B01D10223B4E07B68012218
:1035000083F83C207B68022283F83D207B681B689F
:103510009B68BB60BB6823F07703BB60BB6823F488
:103520007F43BB607B681B68BA689A603B681B6816
:10353000B3F5005F3ED0B3F5005F00F28780B3F5CE
:10354000805F00F08680B3F5805F7FD8702B1AD043
:10355000702B7BD8602B50D0602B77D8502B3CD071
:10356000502B73D8402B58D0402B6FD8302B64D0C1
:10357000302B6BD8202B60D0202B67D8002B5CD051
:10358000102B5AD062E07B6818683B6899683B68EA
:103590005A683B68DB6800F068F97B681B689B68C9
:1035A000BB60BB6843F07703BB607B681B68BA688D
:1035B0009A604FE07B6818683B6899683B685A6876
:1035C0003B68DB6800F051F97B681B689A687B6890
:1035D0001B6842F480429A603CE07B6818683B6854
:1035E00059683B68DB681A4600F0C8F87B681B68BE
:1035F0005021184600F01FF92CE07B6818683B68E2
:1036000059683B68DB681A4600F0E6F87B681B687F
:103610006021184600F00FF91CE07B6818683B68D1
:1036200059683B68DB681A4600F0A8F87B681B689D
:103630004021184600F0FFF80CE07B681A683B68F0
:103640001B681946104600F0F6F803E00123FB73EF
:1036500000E000BF7B68012283F83D207B680022E8
:1036600083F83C20FB7B18461037BD4680BD80B4F4
:1036700083B000AF786000BF0C37BD4680BC704798
:1036800080B483B000AF786000BF0C37BD4680BC0B
:10369000704780B483B000AF786000BF0C37BD4680
:1036A00080BC704780B483B000AF786000BF0C3737
:1036B000BD4680BC7047000080B485B000AF786024
:1036C00039607B681B68FB607B68294A93420BD09A
:1036D0007B68B3F1804F07D07B68264A934203D0C2
:1036E0007B68254A934208D1FB6823F07003FB6096
:1036F0003B685B68FA681343FB607B681C4A934233
:103700000BD07B68B3F1804F07D07B68194A934296
:1037100003D07B68184A934208D1FB6823F44073B6
:10372000FB603B68DB68FA681343FB60FB6823F0CF
:1037300080023B685B691343FB607B68FA681A6030
:103740003B689A687B68DA623B681A687B689A62B1
:103750007B68074A934203D13B681A697B681A6306
:103760007B6801225A6100BF1437BD4680BC704798
:10377000002C0140000400400008004080B487B0E5
:1037800000AFF860B9607A60FB681B6A7B61FB6818
:103790001B6A23F00102FB681A62FB689B693B61AC
:1037A0003B6923F0F0033B617B681B013A691343DB
:1037B0003B617B6923F00A037B617A69BB68134331
:1037C0007B61FB683A699A61FB687A691A6200BF9B
:1037D0001C37BD4680BC704780B487B000AFF8602E
:1037E000B9607A60FB681B6A7B61FB681B6A23F027
:1037F0001002FB681A62FB689B693B613B6923F41A
:1038000070433B617B681B033A6913433B617B69EF
:1038100023F0A0037B61BB681B017A6913437B61C2
:10382000FB683A699A61FB687A691A6200BF1C37C3
:10383000BD4680BC704780B485B000AF7860396009
:103840007B689B68FB60FB6823F07003FB603A6851
:10385000FB68134343F00703FB607B68FA689A60D8
:1038600000BF1437BD4680BC704780B487B000AF3E
:10387000F860B9607A603B60FB689B687B617B693C
:1038800023F47F437B613B681A027B681A43BB6861
:1038900013437A6913437B61FB687A699A6000BFBE
:1038A0001C37BD4680BC704780B485B000AF7860DF
:1038B00039607B6893F83C30012B01D1022346E04C
:1038C0007B68012283F83C207B68022283F83D203C
:1038D0007B681B685B68FB607B681B689B68BB60E0
:1038E000FB6823F07003FB603B681B68FA681343B6
:1038F000FB607B681B68FA685A607B681B68164A25
:1039000093420ED07B681B68B3F1804F09D07B686F
:103910001B68124A934204D07B681B68104A93428A
:103920000CD1BB6823F08003BB603B685B68BA685E
:103930001343BB607B681B68BA689A607B6801228E
:1039400083F83D207B68002283F83C200023184642
:103950001437BD4680BC7047002C01400004004075
:103960000008004080B483B000AF786000BF0C371F
:10397000BD4680BC704780B483B000AF786000BFA4
:103980000C37BD4680BC704780B582B000AF786010
:103990007B68002B01D1012342E07B6893F8413022
:1039A000DBB2002B06D17B68002283F840207868C8
:1039B000FEF744FA7B68242283F841207B681B6869
:1039C000DA687B681B6822F40052DA60786800F0DD
:1039D0007FFC7B681B681A697B681B6822F4904235
:1039E0001A617B681B685A697B681B6822F02A028F
:1039F0005A617B681B68DA687B681B6842F4005276
:103A0000DA607B6800225A647B68202283F84120B8
:103A10007B68202283F842207B6800225A630023BF
:103A200018460837BD4680BD80B5BAB000AF786093
:103A30007B681B681B68C7F8E4307B681B68DB6821
:103A4000C7F8E0307B681B685B69C7F8DC3000238F
:103A5000C7F8D8300023C7F8D430D7F8E43003F0E3
:103A60000F03C7F8D830D7F8D830002B0FD1D7F8CC
:103A7000E43003F02003002B09D0D7F8E03003F046
:103A80002003002B03D0786800F063FB5BE2D7F8DB
:103A9000D830002B00F0DE80D7F8DC3003F00103D3
:103AA000002B06D1D7F8E03003F49073002B00F020
:103AB000D180D7F8E43003F00103002B0BD0D7F806
:103AC000E03003F48073002B05D07B685B6C43F01F
:103AD00001027B685A64D7F8E43003F00403002B3A
:103AE0000BD0D7F8DC3003F00103002B05D07B6846
:103AF0005B6C43F002027B685A64D7F8E43003F051
:103B00000203002B0BD0D7F8DC3003F00103002BAD
:103B100005D07B685B6C43F004027B685A64D7F87D
:103B2000E43003F00803002B11D0D7F8E03003F0A5
:103B30002003002B05D1D7F8DC3003F00103002B64
:103B400005D07B685B6C43F008027B685A647B6835
:103B50005B6C002B00F0F281D7F8E43003F0200317
:103B6000002B08D0D7F8E03003F02003002B02D060
:103B7000786800F0EEFA7B681B685B6903F040032D
:103B8000002B14BF01230023DBB2C7F8D4307B68BD
:103B90005B6C03F00803002B03D1D7F8D430002B63
:103BA0004FD0786800F0F8F97B681B685B6903F018
:103BB0004003002B41D07B681B681433C7F89C304E
:103BC000D7F89C3053E8003FC7F89830D7F89830C2
:103BD00023F04003C7F8D0307B681B681433D7F854
:103BE000D020C7F8A820C7F8A430D7F8A410D7F879
:103BF000A82041E80023C7F8A030D7F8A030002B58
:103C0000D9D17B68DB6B002B13D07B68DB6B7E4AE2
:103C10005A637B68DB6B1846FEF77CFC0346002B7F
:103C200016D07B68DB6B5B6B7A68D26B104698476B
:103C30000EE0786800F09CF90AE0786800F098F9E6
:103C400006E0786800F094F97B6800225A6475E118
:103C500000BF73E17B681B6B012B40F04F81D7F8ED
:103C6000E43003F01003002B00F04881D7F8E03077
:103C700003F01003002B00F041810023BB607B6840
:103C80001B681B68BB607B681B685B68BB60BB68AC
:103C90007B681B685B6903F04003002B00F0B68073
:103CA0007B68DB6B1B685B68A7F8BE30B7F8BE307B
:103CB000002B00F045817B689B8DB7F8BE209A42AF
:103CC00080F03E817B68B7F8BE20DA857B68DB6BCD
:103CD0009B69202B00F088807B681B680C33C7F839
:103CE0008830D7F8883053E8003FC7F88430D7F8D9
:103CF000843023F48073C7F8B8307B681B680C33BA
:103D0000D7F8B820C7F89420C7F89030D7F89010AB
:103D1000D7F8942041E80023C7F88C30D7F88C30CE
:103D2000002BD9D17B681B6814337B677B6F53E80A
:103D3000003F3B673B6F23F00103C7F8B4307B685B
:103D40001B681433D7F8B420C7F88020FB67F96FDD
:103D5000D7F8802041E80023BB67BB6F002BE1D17F
:103D60007B681B6814333B663B6E53E8003FFB6582
:103D7000FB6D23F04003C7F8B0307B681B68143339
:103D8000D7F8B020FA66BB66B96EFA6E41E8002338
:103D90007B667B6E002BE3D17B68202283F8422078
:103DA0007B6800221A637B681B680C33FB64FB6C26
:103DB00053E8003FBB64BB6C23F01003C7F8AC3082
:103DC0007B681B680C33D7F8AC20BA657B65796DCE
:103DD000BA6D41E800233B653B6D002BE3D17B6866
:103DE000DB6B1846FEF75BFB7B6802225A637B683D
:103DF0009A8D7B68DB8D9BB2D31A9BB2194678688B
:103E000000F0BFF89CE000BF5D4000087B689A8D21
:103E10007B68DB8D9BB2D31AA7F8CE307B68DB8D35
:103E20009BB2002B00F08E80B7F8CE30002B00F054
:103E300089807B681B680C33BB63BB6B53E8003F16
:103E40007B637B6B23F49073C7F8C8307B681B6877
:103E50000C33D7F8C8207A643B64396C7A6C41E83B
:103E60000023FB63FB6B002BE3D17B681B681433DF
:103E70007B627B6A53E8003F3B623B6A23F00103AD
:103E8000C7F8C4307B681B681433D7F8C4203A6382
:103E9000FB62F96A3A6B41E80023BB62BB6A002B04
:103EA000E3D17B68202283F842207B6800221A63DA
:103EB0007B681B680C333B613B6953E8003FFB6048
:103EC000FB6823F01003C7F8C0307B681B680C3315
:103ED000D7F8C020FA61BB61B969FA6941E80023EB
:103EE0007B617B69002BE3D17B6802225A63B7F8C0
:103EF000CE301946786800F044F823E0D7F8E43073
:103F000003F08003002B09D0D7F8E03003F08003E2
:103F1000002B03D0786800F0B5F814E0D7F8E4304F
:103F200003F04003002B0ED0D7F8E03003F040033D
:103F3000002B08D0786800F0F4F804E000BF02E03D
:103F400000BF00E000BFE837BD4680BD80B483B04D
:103F500000AF786000BF0C37BD4680BC704780B4AE
:103F600083B000AF786000BF0C37BD4680BC70479F
:103F700080B483B000AF786000BF0C37BD4680BC12
:103F8000704780B483B000AF78600B467B8000BF81
:103F90000C37BD4680BC704780B495B000AF7860E8
:103FA0007B681B680C337B637B6B53E8003F3B6390
:103FB0003B6B23F49073FB647B681B680C33FA6CD7
:103FC0003A64FB63F96B3A6C41E80023BB63BB6B5B
:103FD000002BE5D17B681B6814333B623B6A53E8D6
:103FE000003FFB61FB6923F00103BB647B681B6836
:103FF0001433BA6CFA62BB62B96AFA6A41E8002308
:104000007B627B6A002BE5D17B681B6B012B19D18E
:104010007B681B680C33FB60FB6853E8003FBB60A8
:10402000BB6823F010037B647B681B680C337A6CDD
:10403000BA617B617969BA6941E800233B613B69F8
:10404000002BE5D17B68202283F842207B68002288
:104050001A6300BF5437BD4680BC704780B584B03A
:1040600000AF78607B685B6AFB60FB680022DA85E2
:10407000FB680022DA84F868FFF77AFF00BF103788
:10408000BD4680BD80B485B000AF78607B6893F892
:104090004130DBB2212B3ED17B689B68B3F5805F5A
:1040A00014D17B681B69002B10D17B681B6AFB60F5
:1040B000FB681B881A467B681B68C2F308025A60BB
:1040C0007B681B6A9A1C7B681A6208E07B681B6A23
:1040D000591C7A6811621A787B681B685A607B6881
:1040E000DB8C9BB2013B9BB27A681946D184002BD2
:1040F0000FD17B681B68DA687B681B6822F080023E
:10410000DA607B681B68DA687B681B6842F04002F3
:10411000DA60002300E0022318461437BD4680BC55
:10412000704780B582B000AF78607B681B68DA6842
:104130007B681B6822F04002DA607B68202283F8EB
:1041400041207868FFF702FF002318460837BD4674
:1041500080BD80B58CB000AF78607B6893F842304A
:10416000DBB2222B40F0AE807B689B68B3F5805FAA
:1041700017D17B681B69002B13D10023FB627B687E
:104180009B6ABB627B681B685B689BB2C3F30803D6
:104190009AB2BB6A1A807B689B6A9A1C7B689A6297
:1041A00026E07B689B6AFB620023BB627B689B689E
:1041B000B3F5805F07D07B689B68002B0AD17B68D2
:1041C0001B69002B06D17B681B685B68DAB2FB6A4F
:1041D0001A7008E07B681B685B68DBB203F07F0342
:1041E000DAB2FB6A1A707B689B6A5A1C7B689A6217
:1041F0007B68DB8D9BB2013B9BB27A681946D18507
:10420000002B5DD17B681B68DA687B681B6822F035
:104210002002DA607B681B68DA687B681B6822F41E
:104220008072DA607B681B685A697B681B6822F0C1
:1042300001025A617B68202283F842207B680022B9
:104240005A637B681B6B012B35D17B6800221A6394
:104250007B681B680C337B617B6953E8003F3B61E3
:104260003B6923F010037B627B681B680C337A6A1E
:104270003A62FB61F9693A6A41E80023BB61BB69B4
:10428000002BE5D17B681B681B6803F01003102B23
:104290000AD10023FB607B681B681B68FB607B689E
:1042A0001B685B68FB60FB687B689B8D19467868C0
:1042B000FFF767FE02E07868FFF751FE002302E097
:1042C000002300E0022318463037BD4680BD0000C1
:1042D00080B584B000AF78607B681B681B6923F4ED
:1042E00040517B68DA687B681B680A431A617B6807
:1042F0009A687B681B691A437B685B691343BB60E0
:104300007B681B68DB6823F4B05323F00C037A68E6
:104310001268B9680B43D3607B681B685B6923F440
:1043200040717B689A697B681B680A435A617B68A5
:104330001B682C4A934203D1FEF7F6FEF86002E0B8
:10434000FEF7DEFEF860FA6813469B0013449A00FD
:104350001A447B685B689B00B2FBF3F3224AA2FB22
:1043600003235B091901FA6813469B0013449A0062
:104370001A447B685B689B00B2FBF3F21A4BA3FB09
:1043800002035B09642000FB03F3D31A1B013233E1
:10439000154AA2FB03235B0903F0F0031944FA68F2
:1043A00013469B0013449A001A447B685B689B0089
:1043B000B2FBF3F20C4BA3FB02035B09642000FB8E
:1043C00003F3D31A1B013233074AA2FB03235B0911
:1043D00003F00F027B681B680A449A6000BF103725
:1043E000BD4680BD003801401F85EB51002B2DE9F3
:1043F000F0471D46BBBF03F100431D4600232D239C
:1044000088B01446B8BF1446129A109E1370149BBD
:10441000DDF84CA023F02008B8F1460F05D0B8F124
:10442000450F00D10136022300E0032307AA0492BE
:1044300006AACDE902A2CDE9003622462B4600F0BD
:104440006FFEB8F1470F074619D1119BDB070ED558
:1044500000EB06090022002320462946FCF7A4FAB7
:1044600008B1CDF81C903022079B4B451ED338462F
:10447000079B159ADB1B136008B0BDE8F087B8F105
:10448000460F00EB0609E5D10378302B0AD1002254
:10449000002320462946FCF787FA18B9C6F1010621
:1044A000CAF80060DAF800309944D3E7591C079144
:1044B0001A70D9E7F7B50029B6BF2D232B2349423F
:1044C00009290270437029DD0DF107031D460A27F3
:1044D000B1FBF7F61A4607FB1614303402F8014C0C
:1044E0000C46632C314603F1FF33F1DC3031941E6E
:1044F00003F8011C2346411CAB420AD30DF109030A
:104500009B1AAC4288BF002302330344181A03B03D
:10451000F0BD13F8016B01F8016FEDE73023303186
:104520008370C170031DF1E72DE9F04F91B00C4687
:10453000DDF8688016461F46054600F0E1FC03687A
:1045400018460893FBF704FE00230E93D8F80030BA
:104550000990073323F0070303F1080294F818A029
:10456000D4F800B0C8F80020D3E9008929F000434E
:104570000B93CDF828804FF0FF32DDE90A01C4E942
:1045800012899C4BFCF742FA70BBDDE90A014FF03F
:10459000FF32984BFCF71CFA30BB00220023404648
:1045A0004946FCF70BFA10B12D2384F84330924AA8
:1045B000924BBAF1470F94BF9046984603234FF0B1
:1045C000000923612BF0040323603346214628466B
:1045D00000970FAA00F0D4F9013040F090804FF01E
:1045E000FF3011B0BDE8F08F42464B464046494689
:1045F000FCF70CFA48B14B46002BB8BF2D23804A7C
:10460000B8BF84F843307F4BD3E763680AF0DF011B
:104610005A1C3FD10623636000224BF48063236061
:1046200006920EAACDE904A20DAA03920DF133025F
:10463000CDE9013263684246009328464B460A9111
:10464000FFF7D4FE0A99804647290D9928D1C81C46
:1046500002DB6368994240DDAAF1020A5FFA8AFA36
:104660005246013904F150000D91FFF723FF0E9AD5
:1046700081461318012A236102DC2268D20701D582
:10468000013323619DF83330002B9ED02D2384F815
:1046900043309AE74729BFD1002BBDD10123BAE7A8
:1046A000BAF1650FDCD9BAF1660F18D10029636839
:1046B0000BDD216113B92268D00702D501330B4409
:1046C00023614FF00009A165DCE713B92268D20726
:1046D00001D50233F4E70123F2E74FF0670A0E9B9E
:1046E000994205DB23682161D807EAD54B1CE7E72F
:1046F0000029CCBF0122C1F102021344E0E7236884
:104700005A0507D42369424631462846B847013046
:104710002BD164E7BAF1650F40F2DC80D4E91201D5
:1047200000220023FCF740F9002833D00123314652
:104730002846354AB84701303FF451AFDDE90D381E
:10474000434502DB2368D8070FD5DDE9082331464E
:104750002846B84701303FF442AF4FF0000908F156
:10476000FF3804F11A0AC84509DC23689B0700F1E9
:104770000281E0680F9B9842B8BF184631E70123D9
:10478000524631462846B84701303FF428AF09F178
:104790000109E8E70D9B002B38DC01233146284650
:1047A000194AB84701303FF41AAFDDE90D3959EA2B
:1047B000030302D12368D907D7D5DDE908233146A1
:1047C0002846B84701303FF40AAF4FF0000A04F121
:1047D0001A0B0D9B5B42534501DC4B4693E70123CB
:1047E0005A4631462846B84701303FF4F8AE0AF140
:1047F000010AEEE7FFFFEF7F168200081A82000829
:104800001E8200082282000826820008A36DDDF8BF
:1048100038A05345A8BF5346002B994636DC4FF0CD
:10482000000B29EAE97904F11A02A36D0A93A3EBBC
:1048300009035B4531DC0D9B9A453ADC2368DA07B6
:1048400037D40D9BAAEB03090A9BAAEB03039945F6
:10485000A8BF9946B9F1000F33DC4FF0000829EAF0
:10486000E97904F11A0B0D9BAAEB0303A3EB0903EF
:1048700043457FF77AAF01235A4631462846B84769
:1048800001303FF4ACAE08F10108ECE74246314696
:104890002846B8470130C2D1A1E601233146284657
:1048A0000A92B84701303FF49AAE0A9A0BF1010B15
:1048B000BBE73146DDE908232846B8470130C0D1BF
:1048C0008DE60A9A4B46314628464244B8470130A5
:1048D000C3D184E6DDF838A0BAF1010F01DCDB07B3
:1048E00036D50123424631462846B84701303FF4C9
:1048F00076AEDDE9082331462846B84701303FF45B
:104900006EAED4E91201002200230AF1FF3AFCF74F
:104910004BF8C0B9534608F1010231462846B84762
:1049200001300CD15BE601235A4631462846B84790
:1049300001303FF454AE08F10108D045F3DB4B469B
:1049400004F15002E0E64FF0000804F11A0BF4E71E
:1049500001234246E1E701234A4631462846B8474B
:1049600001303FF43CAE08F10108E3680F995B1A8F
:104970004345F0DCFDE64FF0000804F11909F4E7C7
:104980002DE9F047164698468A680B690746934218
:10499000B8BF1346336091F843200C46DDF82090F1
:1049A0000AB1013333602368990642BF336802338A
:1049B0003360256815F0060506D104F1190AE3688D
:1049C00032689B1AAB422BDC94F843302268003BE0
:1049D00018BF0123920630D44146384604F1430201
:1049E000C847013023D02368226903F00603042B53
:1049F00014BF002533684FF0000608BFE56804F1D6
:104A00001A0408BFED1A54F8123C08BF25EAE575F0
:104A10009342C4BF9B1AED18B5421AD1002008E09A
:104A20000123524641463846C847013003D14FF072
:104A3000FF30BDE8F0870135C1E73020E11881F88B
:104A400043005A1C94F845102244023382F8431064
:104A5000C2E70123224641463846C8470130E6D026
:104A60000136D9E72DE9FF470F7E9146782F804622
:104A70000C469A460C9E01F1430207D8622F0AD8D1
:104A8000002F00F0D380582F00F0BA8004F14206C6
:104A900084F842703AE0A7F16303152BF6D801A120
:104AA00051F823F0FD4A0008114B00088D4A000818
:104AB0008D4A00088D4A00088D4A0008114B0008F5
:104AC0008D4A00088D4A00088D4A00088D4A00086A
:104AD000134C00083B4B0008CD4B00088D4A0008E2
:104AE0008D4A0008354C00088D4A00083B4B0008F1
:104AF0008D4A00088D4A0008D54B000833681A1DFE
:104B00001B68326004F1420684F8423001239EE0C3
:104B100033682068191D3160060601D51D6803E061
:104B20004506FBD5B3F90050002D03DA2D236D4265
:104B300084F843300A23594811E021683368080695
:104B400053F8045B02D4490648BFADB26F2F3360FF
:104B500014BF0A2308235148002184F843106668D3
:104B6000002EA8BF2168A660A4BF21F00401216027
:104B70000DB9002E4BD01646B5FBF3F103FB1157D0
:104B8000C75D06F8017D2F46BB420D46F4D9082BC0
:104B90000BD12368DF0708D5236961689942DEBF1E
:104BA000302306F8013C06F1FF36921B22614B468A
:104BB00021464046CDF800A003AAFFF7E1FE0130F0
:104BC0004AD14FF0FF3004B0BDE8F087236843F0CE
:104BD000200323607827324884F8457023683168C1
:104BE0001F0651F8045B02D45F0648BFADB23160C6
:104BF000D90744BF43F0200323601DB11023ABE766
:104C00002648E9E7236823F020032360F6E71646E9
:104C1000BDE733682568181D616930602E061B6882
:104C200001D5196002E06806FBD5198000231646FD
:104C30002361BCE7336800211A1D32601E68626878
:104C4000304600F0D4F908B1801B606063682361CE
:104C5000002384F84330AAE7324649464046236998
:104C6000D0470130ADD023689B0713D4E068039B85
:104C70009842B8BF1846A6E7012332464946404647
:104C8000D04701309DD00135E36803995B1AAB42F0
:104C9000F2DCEBE7002504F11906F5E728820008AD
:104CA00039820008002310B50446C0E90033C0E98A
:104CB0000433836081814366C2818361194608227F
:104CC0005C3000F014F90D4B246263620C4BA3625C
:104CD0000C4BE3620C4B23630C4B9C4206D003F15C
:104CE0006802944202D0D0339C4205D104F15800AE
:104CF000BDE8104000F078B910BD00BF694E000853
:104D00008B4E0008C34E0008E74E0008C006002086
:104D1000024A0349034800F069B800BF0C000020B4
:104D20005D6900081C00002041680C4B10B59942D9
:104D3000044601D001F012FEA168094B994202D04D
:104D4000204601F00BFEE168064B994204D0204654
:104D5000BDE8104001F002BE10BD00BFC00600203B
:104D6000280700209007002010B50B4B0B4C0C4A75
:104D700020461A6004210022FFF794FF04F1680026
:104D800001220921FFF78EFF04F1D0000222BDE8C5
:104D900010401221FFF786BFF8070020C006002050
:104DA000114D0008014800F020B900BF01080020A3
:104DB000014800F01BB900BF0108002010B50446EF
:104DC000FFF7F0FF236A1BB1BDE81040FFF7F0BF0B
:104DD000044B2362044B1B68002BF5D1FFF7C4FF83
:104DE000F2E700BF294D0008F80700202DE9F8433D
:104DF0000746884614460026D4E90195B9F1010911
:104E000005D52468002CF7D13046BDE8F883AB897E
:104E1000012B07D9B5F90E30013303D029463846A6
:104E2000C04706436835E9E70EB46FF0004100B5AE
:104E30009CB01DAB02900690079104910848094967
:104E400053F8042B0591006802A9019301F00AFCB4
:104E50000022029B1A701CB05DF804EB03B070478F
:104E6000180000200802FFFF10B50C46B1F90E1023
:104E700000F06CF80028ABBF636DA3891B1823F406
:104E80008053ACBF6365A38110BD2DE9F0411F467F
:104E90008B890546DB050C46164605D50223002204
:104EA000B1F90E1000F040F8A389324623F4805384
:104EB000A38128463B46B4F90E10BDE8F04100F04E
:104EC00057B810B50C46B1F90E1000F02DF8431C80
:104ED000A38915BF606523F4805343F48053A381F5
:104EE00018BFA38110BDB1F90E1000F00DB8034634
:104EF0000244934200D1704703F8011BF9E7000018
:104F0000004870475801002038B50023054D04467D
:104F100008462B60FDF79DF8431C02D12B6803B1B6
:104F2000236038BDFC07002038B50446084611460A
:104F30000022054D2A601A46FDF7AFF8431C02D146
:104F40002B6803B1236038BDFC07002038B5044648
:104F5000084611460022054D2A601A46FDF740F822
:104F6000431C02D12B6803B1236038BDFC0700202D
:104F700038B50446084611460022054D2A601A46F7
:104F8000FDF74BF8431C02D12B6803B1236038BDF9
:104F9000FC070020014B1868704700BF1800002074
:104FA00070B500260C4D0D4C641BA410A64209D10F
:104FB00002F070F800260A4D0A4C641BA410A642A9
:104FC00005D170BD55F8043B98470136EEE755F81A
:104FD000043B98470136F2E7908500089085000869
:104FE0009085000894850008704770477047034615
:104FF00010B5C9B202449342184601D1002003E023
:10500000047801338C42F6D110BD2DE9F74F0369C6
:105010000C690746A3427EDB013CA30000F11405A6
:1050200001F11408009305EB8403019358F8243030
:1050300055F8242001339A42B2FBF3F608EB8409B9
:105040002ED34FF0000AC446AE46D3465CF8043B6C
:1050500098B206FB00A01B0C020C06FB0323DEF833
:10506000002080B292B2121A5A44DEF800004FEAD1
:10507000134A9BB2C3EB224303EB104392B242EAC2
:105080000342E1454FEA234B4EF8042BDED2009B4E
:10509000EB582BB9019B043B9D421A462FD33C6130
:1050A000384601F07BF9002825DB2946002058F816
:1050B000042BD1F800C01FFA82FE1FFA8CF3A3EB79
:1050C0000E030344120CC2EB234202EB1C429BB2C0
:1050D00043EA0243C1454FEA224041F8043BE6D28D
:1050E00055F8242005EB840322B9043B9D421A465F
:1050F0000BD33C610136304603B0BDE8F08F126837
:10510000043B002ACBD1013CC6E71268043B002ACD
:10511000EFD1013CEAE70020EEE7000000000000CC
:105120002DE9F04F14461D46C76997B08346CDE977
:105130000245239E7FB9102000F002FE0246CBF804
:105140001C0020B9EF21A84BA84801F067FCC0E97A
:1051500001770760C760DBF81C30196859B15A68DD
:10516000012393404A608B60584600F0DFFE002226
:10517000DBF81C301A602B1EAFBF0023012223F086
:1051800000430393A8BF3360DDF80C80984BB8BF91
:10519000326033EA080312D142F20F73229A13608D
:1051A000C8F31303234300F05085249BDFF844A287
:1051B000002B00F052850AF1030300F04CBDDDE93D
:1051C0000223CDE90C23DDE90C0100220023FBF7CB
:1051D000EBFB074658B10123229A1360249B13B1BD
:1051E000854B249A1360DFF814A200F036BD14AB8F
:1051F000019315AB00935846DDE90C2301F07EF9CD
:10520000C8F30A568146002E77D0DDE90C010D9BCC
:10521000A6F2FF36C3F3130343F07F5343F4401366
:10522000129719460022764BFAF79EFF68A3D3E93E
:105230000023FBF751F968A3D3E90023FAF796FF9F
:10524000044630460D46FBF7DDF865A3D3E900239D
:10525000FBF742F902460B4620462946FAF786FF3D
:1052600004460D46FBF7E8FB0022074600232046D4
:105270002946FBF7A3FB40B13846FBF7C3F82246AB
:105280002B46FBF791FB00B9013F162F53D8DDE900
:105290000C015C4B03EBC703D3E90023FBF78EFB48
:1052A00000284AD00023013F0F93149B9B1B5A1EDA
:1052B00046BFC3F1010800234FF00008099248BF20
:1052C0000993002F3BDB099B0E973B440993002376
:1052D0000A93209B092B66D8052BC4BF043B20935F
:1052E000209BC8BF0024A3F10203D8BF0124032BD5
:1052F00064D8DFE803F02B383656DDE914631E442A
:1053000006F23243202BC1BFC3F1400308FA03F871
:1053100006F2124324FA03F3D6BFC3F1200348EA8E
:10532000030004FA03F0FBF75DF80122A1F1F87322
:10533000013E129275E70123B6E70F90B5E77B4275
:105340000A930023A8EB07080E93C2E700230B93F0
:10535000219B002B35DC01231A46CDE9073321922E
:105360000BE00123F3E700230B93219BFB18089329
:105370000133012B0793B8BF012300210422DBF87E
:105380001C0002F114059D421FD94160584600F0EF
:105390008DFD8246002839D1024640F2AF111A4BEA
:1053A000D2E60123E0E7012400230B9420934FF081
:1053B000FF330022CDE907331223D0E701230B93FB
:1053C000F5E7219BCDE90733D7E701315200D8E754
:1053D00061436F63A787D23FB3C8608B288AC63FFB
:1053E000FB799F501344D33F578200086E82000818
:1053F0000000F07F53820008278200082682000800
:105400000000F83F68830008C6820008DBF81C3003
:105410001860079B0E2B00F2A480002C00F0A180E6
:10542000002F33DD864B07F00F0203EBC203F805B4
:10543000D3E90034CDE904344FEA271416D5DDE969
:105440000C01804B0326D3E90823FBF76FF9CDE964
:10545000020104F00F047B4D54B9DDE90423DDE9BA
:105460000201FBF763F9CDE9020128E00226F2E729
:10547000E10708D5DDE90401D5E90023FBF72CF8A5
:10548000CDE90401013664100835E5E700F0D2806B
:10549000DDE90C017C426A4B04F00F0203EBC2030E
:1054A000D3E90023FBF718F802260023CDE9020117
:1054B000644D2411002C40F0B280002BD3D1DDE9E3
:1054C00002450F9B002B00F0B780002220462946A2
:1054D0005D4BFBF773FA002800F0AE80079B002BB2
:1054E00000F0AA80089B002B37DD7B1E204604932A
:1054F00000222946554BFAF7EFFFCDE90201089C3F
:1055000001363046FAF77EFFDDE90223FAF7E4FFC1
:1055100000224F4BFAF72AFE0546A1F15076002CE7
:1055200040F09A80DDE9020100224A4BFAF71CFEA6
:1055300002460B46CDE902232A463346FBF75CFAC6
:10554000002840F08E82DDE902012A4606F1004380
:10555000FBF734FA002840F02781DDE90C34CDE96F
:105560000234159B002BC0F263810E2F00F3608183
:10557000334B03EBC703D3E90034CDE90434219B5B
:10558000002B03DA079B002B40F30081DDE9024585
:105590005646DDE9042320462946FBF7C7F8FBF70A
:1055A0004BFA8046FAF72EFFDDE90423FAF794FF61
:1055B00002460B4620462946FAF7D6FD08F130048C
:1055C000079D06F8014BA6EB0A04A54202460B46CE
:1055D00040F01681FAF7CAFDDDE9042304460D46C2
:1055E000FBF70AFA002840F0F880DDE904232046A2
:1055F0002946FBF7D9F918B118F0010F40F0ED80FA
:105600004946584600F092FC00233370229B013734
:105610001F60249B002B00F020831E601DE3E20727
:1056200005D5D5E90023FAF757FF012301366410A9
:1056300008353FE7022642E7079C049761E700BF71
:1056400068830008408300080000F03F0000244009
:1056500000001C4000001440704B0B9903EBC40386
:1056600053E902235444002945D000206C49FBF73C
:105670005DF833462A46FAF777FD5646CDE9100124
:10568000DDE90201FBF7D8F90546FAF7BBFE024651
:105690000B46DDE90201FAF767FD02460B4630359D
:1056A000CDE90223DDE9102306F8015BFBF786F95B
:1056B000002863D1DDE9022300205A49FAF754FD9E
:1056C000DDE91023FBF77AF9002840F08780A64235
:1056D0003FF443AFDDE910010022534BFAF7FCFE23
:1056E0000022CDE91001DDE902014F4BFAF7F4FE8B
:1056F000CDE90201C4E731462846FAF7EDFE5646E9
:10570000CDE910011394DDE90201FBF795F9054697
:10571000FAF778FE02460B46DDE90201FAF724FDAE
:1057200002460B46303506F8015BA642CDE902235E
:105730004FF0000224D1DDE91001394BFAF716FDD4
:1057400002460B46DDE90201FBF756F9002845D178
:10575000DDE9102300203249FAF706FD02460B4628
:10576000DDE90201FBF72AF900283FF4F6AE139EAB
:10577000731E139316F8013C302BF8D0049F3FE7BB
:10578000294BFAF7A9FECDE90201BCE70CD1DDE90E
:1057900004010022254BFAF79FFEDDE90223FBF707
:1057A00021F9002800F05B8100242546219B564604
:1057B000DB43049300272146584600F0B7FB002D39
:1057C000DCD02FB1AF4203D03946584600F0AEFBD3
:1057D0002946584600F0AAFBD0E7049733461E46F8
:1057E00013F8012D392A07D19A45F8D1049A0132CC
:1057F000049230228AF800201A7801321A70BDE72C
:105800000022094BFAF768FE0022002304460D46E9
:10581000FBF7CAF800283FF4BCAEF1E66883000845
:105820000000E03F0000F03F000024400000144072
:105830000B9A002A00F0DB80209A012A00F3BF8037
:10584000129A002A00F0B78003F2334346460A9CBE
:10585000099A01211A4458469844099200F01AFC0A
:1058600005465EB1099B002B08DDB342A8BF334655
:10587000099AA8EB0308F61AD31A09930A9BF3B105
:105880000B9B002B00F0B7808CB12946224658466E
:1058900000F0BEFC4A4601460546584600F010FCA2
:1058A00049460490584600F041FB049B99460A9BE8
:1058B0001A1B04D04946584600F0AAFC8146012133
:1058C000584600F0E7FB0E9B0446002B00F0C98110
:1058D0001A460146584600F09BFC209B0446012BCB
:1058E00000F38F80029B002B40F08780039BC3F363
:1058F0001303002B40F08380039B23F000431B0D18
:105900001B052BB1099B08F1010801330993012301
:105910000A930E9B002B00F0AA81236904EB8303FA
:10592000186900F06BFBC0F12000099B184410F0CF
:105930001F0071D0C0F12003042B65DD099BC0F16D
:105940001C000344804406440993B8F1000F05DDB0
:1059500049464246584600F0B5FC8146099B002B5B
:1059600005DD21461A46584600F0ACFC04460F9B64
:10597000002B53D02146484600F010FD00284DDA98
:105980007B1E494604930A220023584600F0F0FA91
:105990000B9B8146002B00F06C81002329460A22D4
:1059A000584600F0E5FA089B0546002B61DC209B79
:1059B000022B3BDC5DE0149BC3F1360346E7079BFB
:1059C0005C1E0A9BA342BFBF0A9B0E9AE31AD21821
:1059D000A8BF1C1B079BBEBF0A940E920024002B7D
:1059E000B5BFA8EB030646460023079B30E74646B3
:1059F0000A9C0B9D35E70A9A5CE7002388E7029B27
:105A000086E700230A9388E79FD0099A1C331A443B
:105A100098441E44099298E70346F6E7079B0497CB
:105A2000002B20DC0893209B022B1EDD089B002B03
:105A30007FF4BCAE21460522584600F099FA014693
:105A40000446484600F0AAFC00287FF7AFAE312399
:105A5000564606F8013B049B01330493AAE6079CD3
:105A600004972546F3E7079B08930B9B002B00F058
:105A70000481002E05DD29463246584600F022FCFE
:105A800005460A9B002B5AD05846696800F00EFA6A
:105A9000064628B9024640F2EF21834BFFF754BB7C
:105AA0002A6905F10C01023292000C3000F0A8FFC7
:105AB00001223146584600F005FC2F4605460AF102
:105AC00001030793089B53440B93029B03F00103CC
:105AD0000A93079B2146013B48460293FFF795FA3C
