:020000040800F2
:100000001007002099010008D3150008CF1500083B
:10001000D1150008D30800084D18000800000000A2
:10002000000000000000000000000000D7150008DC
:10003000D508000800000000D5150008D9150008F3
:10004000B3010008B3010008B3010008B3010008C0
:10005000B3010008B3010008B3010008B3010008B0
:10006000B3010008B3010008B3010008B3010008A0
:10007000B3010008B3010008B3010008B301000890
:10008000B3010008B3010008B3010008B301000880
:10009000B3010008B3010008B3010008B301000870
:1000A000B3010008B3010008B3010008B301000860
:1000B000B3010008B3010008B3010008B301000850
:1000C000B3010008B3010008B3010008B301000840
:1000D000B301000841180008B3010008B30100088B
:1000E000B3010008B3010008B301000800F002F8F2
:1000F00000F043F80AA090E8000C82448344AAF17F
:100100000107DA4501D100F038F8AFF2090EBAE87C
:100110000F0013F0010F18BFFB1A43F0010318473B
:100120000818000028180000103A24BF78C878C1C9
:10013000FAD8520724BF30C830C144BF04680C60ED
:10014000704700000023002400250026103A28BF35
:1001500078C1FBD8520728BF30C148BF0B60704739
:100160001FB500F06BFB04000020002101F0B0FB84
:10017000401C60601FBD10B510BD00F023FB114690
:10018000FFF7EEFF01F074FB00F04AFB03B4FFF74A
:10019000F2FF03BC00F096FB09488047094800477E
:1001A000FEE7FEE7FEE7FEE7FEE7FEE7FEE7FEE727
:1001B000FEE7FEE704480549054A064B7047000084
:1001C0002D160008ED000008100100201007002087
:1001D00010030020100300200FB400B58DB010A94B
:1001E000099000910B904FF0FF300A9000200C9086
:1001F000064878440690064878446A4607900F9966
:1002000009A800F0EBF80DB05DF814FB0702000040
:100210001F0200002DE9FF5F1D464FF0FF3B914696
:100220004FF000085F46D5E90146A96901987F1C97
:100230008847296A824688470028F6D1BAF1FF3FED
:100240000CD0002E24F4C06419DD600614D5BAF178
:100250002B0F09D0BAF12D0F0ED103E0584604B090
:10026000BDE8F09F44F48064A96901987F1C884729
:10027000761E8246002E02DDBAF1300F03D0B9F1AE
:10028000000F26D032E0A969761E01987F1C44F445
:1002900000748847002E824605DDBAF1780F06D03B
:1002A000BAF1580F03D0B9F1000F10D01EE0B9F128
:1002B000000F02D0B9F1100F18D1A969761E01986C
:1002C0007F1C24F4007488478246102002E0082036
:1002D00000E00A20814609E0A96908FB0908761EAA
:1002E00001987F1C44F4007488478246002E05DD87
:1002F0004946504600F05EF80028EDDAE9690198B9
:100300008847A00502D46FF00100A8E7E00725D1D7
:10031000600613D5600502D5C8F1000000E0404634
:1003200029680A1D2A600968220501D5087015E0B0
:10033000220701D5088011E008600FE02868011D40
:1003400029600068210502D580F8008006E02107B9
:1003500002D5A0F8008001E0C0F8008038467EE7B2
:100360004FF0000200B5134694469646203922BF4E
:10037000A0E80C50A0E80C50B1F12001BFF4F7AF99
:10038000090728BFA0E80C5048BF0CC05DF804EB7B
:10039000890028BF40F8042B08BF704748BF20F8E9
:1003A000022B11F0804F18BF00F8012B70477047E7
:1003B000704770473A2800D2303820F02002412A96
:1003C00001D3A2F13700884201D34FF0FF307047CC
:1003D000026811441378016018467047D1600549DE
:1003E0007944516104497944116200211161114637
:1003F00000F02EB8EDFFFFFF53000000426842B14D
:10040000016811F8013B23B1521EC0E900121846E1
:1004100070470121C160881E704742685AB1C368A5
:10042000016843B983688B4205D0491E521CC0E95C
:100430000012002070474FF0FF30704710B504469F
:1004400000F0E6F90068005D00F0010010BD00005A
:100450002DE9F34F4FF0000A0C4656468DB00120AF
:100460000C9001F10C000B9062690B9801219047F0
:10047000051E2DD0252D2CD0216A8847C0B1626978
:100480000B9801219047216A88470028F7D16269BB
:10049000411E0B98904700E0761CA1690D98884793
:1004A000216A88470028F7D1E1690D988847DBE782
:1004B000A1690D988847A842074601D1761CD3E769
:1004C000E1690D9888477F1C02D1BAF1000F6FD007
:1004D0006CE162690B9800273D46394690472A280F
:1004E00004D162690B98012190470125DFF8D08281
:1004F00062690B9801219047A0F130010A290AD2C4
:100500004745E5DC07EB870100EB4107303FDFD4CF
:1005100045F01005ECE7E90601D46FF000476C28C0
:100520000AD04C2814D0682815D06A280DD0742819
:100530001CD07A281AD01DE062690B9801219047DF
:100540006C2802D045F0040514E045F002050DE0EA
:1005500045F020050AE062690B9801219047682860
:1005600002D045F0080505E045F4006562690B9886
:1005700001219047C4E9015765283DD019DC58286E
:100580007AD00CDC452837D004DC252826D0412839
:100590009ED131E046282FD0472899D12CE05B2806
:1005A00077D0612828D063287CD0642823D15AE0F2
:1005B000F7E06F2848D008DC66281DD067281BD0DC
:1005C000692821D06E2816D127E0702845D07328DD
:1005D00068D0752847D078280DD14DE0A1690D98D5
:1005E0008847252805463FF469AFE1690D9888479B
:1005F0006D1C3FF46AAFD9E00D9923466A466FF04F
:100600000100AFF30080C6E045F0400023464FF004
:1006100000026060A80736D43EE0E8077FF447AFE9
:100620002068011D21600068290501D506701BE7BF
:10063000290701D5068017E7A90703D5F117C0E9F7
:10064000006111E706600FE745F0400023464FF0D8
:1006500008026060A80716D41EE040F60E0125EAE5
:100660000100606016E045F0400023464FF00A02AA
:100670006060A80707D40FE045F040006060A8075D
:1006800008D5234610220D996FF00100AFF30080CA
:1006900081E007E0102223460D996FF00100FFF77B
:1006A000B9FD78E04FF0000963284F46C8464B4635
:1006B000CB4602D05B2807D039E02079C00601D4B0
:1006C0000120A060012732E06269D4F80CB00B98D9
:1006D000012190475E2807D14FF001094946626920
:1006E000D4F80CB00B989047216939B900210A461B
:1006F00003AB43F82120491C0829FADBD8B3216950
:1007000049B308F1010862690B98012190475D28FF
:10071000F4D1B9F1000F09D0002003A951F820202D
:10072000D24341F82020401C0828F7DB03AB2069A6
:10073000002820794FEA40701ED05B462246CDF853
:100740000080CDE901970D9900286FF0010020DAB3
:10075000AFF300801FE0C11703AA00EBD1614B117A
:1007600021F01F0102EB8302411A13680120884027
:1007700003431360C7E719E00D99224600286FF084
:100780000100009702DAAFF3008004E0AFF30080CD
:1007900001E0AFF3008000280ADA401C06D10C9873
:1007A00020B14FF0FF300FB0BDE8F08F5046FAE7B0
:1007B000E90701D10AF1010A064400200C9053E632
:1007C000CCCCCC0C754600F035F8AE460500694639
:1007D000534620F00700854618B020B5FFF7EAFC25
:1007E000BDE820404FF000064FF000074FF0000832
:1007F0004FF0000B21F00701AC46ACE8C009ACE8B3
:10080000C009ACE8C009ACE8C0098D4670470000DB
:1008100010B500F013F8001D10BD00BFB5100000AA
:1008200010B50446AFF300802046BDE81040FFF746
:10083000ADBC000000487047B00000200048704781
:10084000D00000204FF0013C50F8042B51F8043B3D
:100850009A4221D1A2EB0C03934313EACC1317D194
:1008600050F8042B51F8043B9A4215D1A2EB0C032B
:10087000934313EACC130BD150F8042B51F8043BEB
:100880009A4209D1A2EB0C03934313EACC13DBD0B9
:100890004FF00000704700BFD01A01BAB1FA81F1E1
:1008A00001F0180122FA01F0CB40C1F12001DBB2C6
:1008B000C0B2C01A2CFA01F3D11A914311EAC31144
:1008C000E6D1704701491820ABBEFEE726000200C2
:1008D0007047FEE7704710B590F8211000220229FA
:1008E00005D00421816380F82020012010BD01681B
:1008F0000B6823F00E030B6001680B6823F0010303
:100900000B6090F84030C46B012101FA03F363607F
:1009100080F8211080F82020104610BD10B590F806
:1009200021100024022903D00421816301243DE029
:1009300001680A6822F00E020A6001680A6822F063
:1009400001020A601A4A0168914201D1012121E0A5
:10095000174A1432914201D110211BE0144A283267
:10096000914201D1891515E0114A3C32914201D1E1
:1009700089140FE00E4A5032914202D14FF4803177
:1009800008E00B4A6432914202D14FF4801101E039
:100990004FF08071064A083A5160012180F8211019
:1009A000002180F82010416B01B18847204610BD1E
:1009B000080002402DE9F84FDFF8B8910024A9F1B2
:1009C000040B23460F2709F1040AABF1040EC9E01A
:1009D0000125A5402A40AA427DD1674ED1F804C026
:1009E000ACEB0608B44532D014DCBCF1030F3AD0AE
:1009F00009DCBCF1000F2AD0BCF1010F1CD0BCF106
:100A0000020F31D11DE0BCF1110F17D0BCF1120F54
:100A10002AD119E0B8F5881F19D006DCB8F5803F57
:100A200015D0B8F5801F1FD111E0B8F5001F0ED00A
:100A3000B8F5041F18D10AE0CB6815E0CB681B1D80
:100A400012E0CB6808330FE0CB680C330CE08B6806
:100A50002BB1012B4FF0080303D0456104E00423C0
:100A600002E0056100E00023FF2A01D8064601E00C
:100A700000F104064FEA840501D9A5F12005D6F856
:100A8000008007FA05FC28EA0C0803FA05F548EA95
:100A90000508C6F800804D68ED0062D5374DAE6997
:100AA00046F00106AE61AD6924F0030605F00105CC
:100AB0000095334D06EB050CDCF80850A607360F01
:100AC00007FA06F825EA0805DFF8B880404503D1A3
:100AD0004FF0000817E044E0DFF8AC80404502D159
:100AE0004FF001080FE0DFF8A480404502D14FF03D
:100AF000020808E0DFF89880404502D14FF0030873
:100B000001E04FF0040808FA06F848EA0508CCF8B6
:100B100008804D68D9F80060ED024D4601D51643B6
:100B200000E096432E604D68DAF80060AD0255464D
:100B300001D5164300E096432E604D68DBF8006057
:100B4000AD035D4601D5164300E096432E604D6827
:100B5000DEF80060ED03754601D5164300E09643CC
:100B60002E60641C0D682A46E5407FF431AFBDE875
:100B7000F88F00000804014000001110001002402E
:100B80000000014000080140000C0140001001403D
:100B900000140140014880687047000024000020D4
:100BA0000248816802781144816070472400002067
:100BB000074810B5016841F010010160032000F002
:100BC00075F8002000F006F800F024F8002010BDB1
:100BD0000020024070B50D4D04464FF47A7128781C
:100BE000B1FBF0F00A490968B1FBF0F000F0DCFA63
:100BF00048B9102C07D200222146501E00F036F8CA
:100C000000206C6070BD012070BD00002400002039
:100C1000300000200C4808B5816941F00101816174
:100C2000816901F001010091C16941F08051C16108
:100C3000C06900F0805000900448416821F0E061F4
:100C400041F00071416008BD001002400000014009
:100C5000002809DB00F01F020121914040098000BB
:100C600000F1E020C0F8001170470000F0B40E4B16
:100C70001B680C46C3F30223C3F10705042D00D9FA
:100C80000425191D072901D2002300E0DB1E0126DF
:100C900006FA05F1491E214099409E40761E1640F5
:100CA0003143F0BC00F0D3BD0CED00E0064900F08C
:100CB000070208684FF6FF03184040EA0220034A83
:100CC00010430860704700000CED00E00000FA05DA
:100CD0002DE9F0470F46050061D0434E306800F023
:100CE0000700B84209D2306820F00700384330606E
:100CF000306800F00700B84251D128683B4C8107AA
:100D000012D5400703D5606840F4E0606060287841
:100D1000000703D5606840F4605060606068A968AF
:100D200020F0F000084360602878C00728D0686889
:100D3000012810D02168022810D0890700292EDA56
:100D4000616821F0030101436160FFF723FF8046E2
:100D500041F288390DE021688903EFE78901EDE769
:100D6000FFF718FFA0EB0801494502D90320BDE8B1
:100D7000F0876068696800F00C00B0EB810FEFD17C
:100D8000306800F00700B8420BD9306820F0070047
:100D900038433060306800F00700B84201D00120CD
:100DA000E5E72878400705D56068E96820F4E06049
:100DB000084360602878000706D56068296920F438
:100DC000605040EAC100606000F038F86168084A8D
:100DD000C1F30311515CC840064908600648006829
:100DE000FFF7F8FE0020C2E700200240001002409A
:100DF0000E19000830000020280000200448054992
:100E000000684968044AC1F30221515CC840704738
:100E100030000020001002401E1900080448054957
:100E200000684968044AC1F3C221515CC840704758
:100E300030000020001002401E1900080E4A5168C0
:100E40000E4801F00C03042B11D0082B0FD10C48D5
:100E5000C1F38343C903C05C0AD55168084AC1F392
:100E60004041921E515C054A5043B0FBF1F070477F
:100E700004494843704700000010024000127A0005
:100E8000FE18000800093D002DE9F84F040070D05D
:100E90002078C04DC00749D06868C0F381000128A0
:100EA00007D06868C0F38100022809D16868C003D0
:100EB00006D52868800339D560680028E7D035E07A
:100EC0006068B0F5803F0BD010B1B0F5A02F11D005
:100ED000286820F480302860286820F4802002E010
:100EE000286840F480302860606890B1FFF752FEB7
:100EF00006460AE0286840F480202860F0E700BF3A
:100F0000FFF748FE801B642873D828688003F7D554
:100F10000CE0FFF73FFE064605E000BFFFF73AFE94
:100F2000801B6428F0D828688003F7D420789A4E74
:100F300080074FF001094FF0000839D5686810F0BC
:100F40000C0F07D06868C0F38100022809D16868D7
:100F5000C00306D42868800714D52069012808D169
:100F600010E02069B0B1C6F80090FFF713FE074605
:100F700005E00AE1FFF70EFEC01B0228C4D828686E
:100F80008007F7D52868616920F0F80040EAC100C1
:100F900028600DE0C6F80080FFF7FCFD074604E07E
:100FA000FFF7F8FDC01B022823D828688007F7D474
:100FB000207800072CD57948A169D9B1C0F80090F4
:100FC000FFF7E8FD074604E0FFF7E4FDC01B022839
:100FD0000FD8686A8007F7D571484FF4FA51006856
:100FE000B0FBF1F0009000BF0098411E0091FAD2D2
:100FF0000EE080E0C0F80080FFF7CCFD074604E07B
:10100000FFF7C8FDC01B022875D8686A8007F7D4AF
:101010002078400760D5E8690027C00008D4E86957
:1010200040F08050E861E869012700F080500090AE
:101030005C480168C90513D40168834641F4807196
:101040000160FFF7A7FD824606E000BFFFF7A2FDA3
:10105000A0EB0A0064284ED8DBF80000C005F5D5E7
:10106000E06801280AD008B1052813D0286A20F0CA
:1010700001002862286A20F0040002E0286A40F09B
:1010800001002862E06841F2883B98B1FFF782FDD9
:1010900082460BE0286A40F004002862EEE700BFB9
:1010A000FFF778FDA0EB0A0159455AD8286A800756
:1010B000F6D50CE0FFF76EFD824605E0FFF76AFD0E
:1010C000A0EB0A0159454CD8286A8007F6D41FB115
:1010D000E86920F08050E861E06988B36968C1F38D
:1010E0008101022944D00228C6F8608004D0FFF7AD
:1010F00051FD044638E034E0FFF74CFD074604E0BC
:10110000FFF748FDC01B02282BD828688001F7D4C0
:10111000206AB0F5803F05D16868A16820F40030EE
:1011200008436860D4E908010843696821F4741130
:1011300008436860C6F86090FFF72CFD044606E09F
:1011400025E000BFFFF726FD001B022809D828680C
:101150008001F7D51BE000BFFFF71CFD001B022834
:1011600002D90320BDE8F88F28688001F4D40EE08E
:101170000128F7D06868226A00F48031914204D1D6
:10118000616A00F47010884201D00120EAE7002073
:10119000E8E70000001002400000424280044242A2
:1011A000300000200070004010B5401EB0F1807F7C
:1011B00001D3012010BD4FF0E02460610F216017C2
:1011C00000F045FB0020A06107202061002010BD39
:1011D00070477047F8B5016804460868CA684B69EB
:1011E00010F00F0F4FF0000559D003F0010602F484
:1011F0009077374365D0C10705D0D10503D5616C21
:1012000041F001016164410705D5D90703D0616C44
:1012100041F002016164810705D5D90703D0616CF3
:1012200041F004016164010707D502F02001314358
:1012300003D0616C41F008016164616C00293AD00F
:10124000800604D5900602D5204600F01FFA2068DB
:101250004069616CC0F38010090700D460B3204678
:1012600000F0EDF920684069400621D5206814306F
:1012700050E8001F21F0400140E80012002AF5D19B
:10128000E06BA8B16D494163E06BFFF747FB0028B5
:1012900011D0E06B416B01B0BDE8F0400847830618
:1012A0000FD593060DD52046BDE8F84000F0EEB905
:1012B0002046FFF78EFFF8BD2046FFF78AFF6564E2
:1012C000F8BD266B2023012E7CD1C6067AD5D60622
:1012D00078D508684868009048694FF002064006D3
:1012E00040D5E16B086840680004000CE8D0A28D8E
:1012F0008242E5D9E085886920282DD020680C300D
:1013000050E8001F21F4807140E80012002AF5D156
:101310002068143050E8001F21F0010140E800125D
:10132000002AF5D12068143050E8001F21F0400158
:1013300040E80012002AF5D184F842302563206885
:101340000C3050E8001F21F0100140E80012002A84
:10135000F5D1E06BFFF7BFFA6663A08DE18D401A0F
:1013600081B22AE0A08DE18D401A81B2E08D002883
:10137000A6D00029A4D022680C3252E8000F20F435
:10138000907042E80007002FF5D12068143050E833
:10139000002F22F0010240E80027002FF5D184F849
:1013A0004230256320680C3050E8002F22F01002F4
:1013B00040E80023002BF5D166632046FFF708FFC5
:1013C000F8BDFFE705062BD5150629D594F8410091
:1013D0002128F5D1A068B0F5805F01D12069B0B1B6
:1013E000206A411C2162216800784860E08C401E20
:1013F0000004000CE084E3D12068C16821F0800182
:10140000C1602068C16841F04001C160D8E7206A2E
:101410000088C0F308004860206A801C2062E5E76D
:101420004006CDD55006CBD5CA68204622F04002F2
:10143000CA6084F8413000F0C9F8C1E72F160008EF
:1014400070B5040004D094F84100002510B106E006
:10145000012070BD84F84050204600F023F824207D
:1014600084F841002068C16821F40051C160204621
:1014700000F06EF92068016921F490410161206853
:10148000416921F02A0141612068C16841F400519D
:10149000C1606564202084F8410084F842006563DF
:1014A000002070BD30B585B00024009401940294F2
:1014B00003940068184988422CD11848816941F486
:1014C00080418161816901F480410491816941F029
:1014D000040181618069124D00F0040004904FF412
:1014E0000070009002200190032003906946284676
:1014F000FFF760FA2815CDE90004694628460294F2
:10150000FFF758FA002201212520FFF7AFFB252025
:10151000FFF79EFB05B030BD0038014000100240CF
:101520000008014090F84230202B01D00220704783
:1015300021B11AB10023036300F066B9012070479E
:1015400010B51A49006886B0096888422CD1184C39
:10155000164A6078217848326129115409D0401C1C
:10156000607006B00122BDE8104011490F48FFF736
:10157000D9BF0F4B0DF1080C20331A1F111F081F84
:101580008CE80F00011F0838031FCDE90001074850
:10159000183A08A14830FEF71FFE044832214830AF
:1015A000FEF7DEFE0020DBE706B010BD34000020B1
:1015B0000000002025642C25642C25642C25642C37
:1015C00025642C25642C25642C2564007047FEE7D7
:1015D000FEE7FEE770477047FFF7E2BA10B590B03C
:1015E00028216846FEF7BCFE14210AA8FEF7B8FEC3
:1015F0000220009001200490102000240590079400
:101600006846FFF741FC08B172B6FEE70F20CDE94E
:101610000A040C940D9400210AA80E94FFF758FBBD
:10162000002801D072B6FEE710B010BD704710B5AB
:10163000406A0021C185C184FFF7CBFD10BD016860
:101640000C3151E8002F22F4907241E80023002B66
:10165000F5D10168143151E8002F22F0010241E870
:101660000023002BF5D1016B012909D101680C3150
:1016700051E8002F22F0100241E80023002BF5D1A1
:10168000202180F8421000210163704708B590F8CE
:101690004210222901D0022008BD82684FF48053F5
:1016A0009A4201D1016921B1816A9A421BD04AB1A3
:1016B0000AE00268816A5268C2F308020A80816AFD
:1016C000891C08E0026972B10268526802F07F0268
:1016D0000A70816A491C8162C18D491E0904090C86
:1016E000C18503D01BE002685268F1E70168CA684F
:1016F00022F02002CA600168CA6822F48072CA60BF
:1017000001684A6922F001024A61202180F84210F2
:1017100000214163026B012A03D0FFF711FF002073
:1017200008BD016301680C3151E8002F22F010025E
:1017300041E80023002BF5D101680A68D20602D5E2
:101740000A6849680091818DFFF742FDE7E70000D4
:1017500070B5044600680169E26821F44051114304
:1017600001612169A0680843616908432168CA686A
:1017700041F20C639A430243CA6020684169A2693E
:1017800021F44071114341611E492068884202D111
:10179000FFF744FB01E0FFF731FB00EBC00101EB79
:1017A0000012606864218000B2FBF0F3B3FBF1F338
:1017B0006FF018067343B2FBF0F5B2FBF0F605EBE1
:1017C0008305322303EB0515B5FBF1F5B6FBF1F606
:1017D00005F0F00505EB0615B2FBF0F6B2FBF0F0F4
:1017E000B0FBF1F06FF01802504306EB800003EB02
:1017F0000010B0FBF1F0216800F00F002844886071
:1018000070BD00000038014081628285C2850021E0
:101810004164222180F84210016921B10168CA683F
:1018200042F48072CA6001684A6942F001024A616A
:101830000068C16841F02001C160002070470000CD
:101840000148FFF7C7BC000034000020FEE709078D
:10185000090E002804DB00F1E02080F80014704736
:1018600000F00F0000F1E02080F8141D7047000028
:1018700008B5FFF79DF9FFF7B1FE1148816941F006
:101880000401816180690F4900F0040000900E4856
:101890000C2201604FF4E131416000218160C160A0
:1018A000C0E904128161C161FFF7CAFD08B172B6D7
:1018B000FEE7012205490448FFF734FEFEE7000079
:1018C00000100240003801403400002000000020D9
:1018D00010B500290AD00878002807D005487844B8
:1018E000FEF7B0FF002801D0002010BD0248784468
:1018F00010BD00006A000000620000000102020347
:101900000405060708090A0B0C0D0E0F1010000045
:10191000000000000000010203040607080900009F
:101920000000010203040000581A00080000002013
:1019300034000000280100088C1A00083400002040
:10194000DC06000044010008100100004300000014
:10195000F8FFFFFF004040404040404040404141D0
:101960004141414040404040404040404040404074
:10197000404040404005020202020202020202020E
:10198000020202020220202020202020202020020B
:10199000020202020202909090909090101010109B
:1019A0001010101010101010101010101010101037
:1019B00002020202020288888888888808080808CB
:1019C0000808080808080808080808080808080897
:1019D00002020202400000000000000000000000BF
:1019E00000000000000000000000000000000000F7
:1019F00000000000000000000000000000000000E7
:101A000000000000000000000000000000000000D6
:101A100000000000000000000000000000000000C6
:101A200000000000000000000000000000000000B6
:101A300000000000000000000000000000000000A6
:101A40000000000000000000000000000000000096
:101A50000000000000000000000000009E070000E1
:101A6000F807000000000000000000000000000077
:101A70000000000000000000000000000100000065
:0C1A800010000000000000000024F40032
:04000005080000ED02
:00000001FF
