:020000040800F2
:10000000B80700209101000803190008DB17000859
:1000100001190008BD050008A91A00080000000029
:1000200000000000000000000000000007190008A8
:10003000BF050008000000000519000809190008A4
:10004000AB010008AB010008AB010008AB010008E0
:10005000AB010008AB010008AB010008AB010008D0
:10006000AB010008AB010008AB010008AB010008C0
:10007000AB010008AB010008AB010008AB010008B0
:10008000AB010008AB010008AB010008AB010008A0
:10009000AB010008AB010008AB010008AB01000890
:1000A000AB010008AB010008AB010008AB01000880
:1000B000AB010008AB010008AB010008AB01000870
:1000C000AB010008AB010008AB010008AB01000860
:1000D000AB010008AB010008AB010008AB01000850
:1000E000AB010008AB010008AB01000800F002F80A
:1000F00000F03FF80AA090E8000C82448344AAF183
:100100000107DA4501D100F034F8AFF2090EBAE880
:100110000F0013F0010F18BFFB1A43F0010318473B
:10012000301C0000501C0000103A24BF78C878C171
:10013000FAD8520724BF30C830C144BF04680C60ED
:10014000704700000023002400250026103A28BF35
:1001500078C1FBD8520728BF30C148BF0B60704739
:10016000642900F08380002070471FB51FBD10B5C3
:1001700010BD00F07EF91146FFF7F7FF01F0A6FC75
:1001800000F09CF903B4FFF7F2FF03BC00F0A4F900
:100190000948804709480047FEE7FEE7FEE7FEE71B
:1001A000FEE7FEE7FEE7FEE7FEE7FEE70448054957
:1001B000054A064B7047000075190008ED0000085D
:1001C000B8010020B8070020B8030020B8030020C1
:1001D0000FB41CB50C0007AA009001D02044401EAB
:1001E000074B7B4469460190069800F022F9002CE9
:1001F00003D06946002000F02FF91CBC5DF814FB09
:100200007D0200002DE9F0410E46044600202062E8
:100210002046E168884730B3252805D0D4E901217C
:100220009047206A401CF2E7E16820460027884793
:10023000050018D0A5F14100192802D820354FF447
:1002400000673246294620462760FFF789FF40B104
:10025000012804D0F61D26F007060836D8E7361D1B
:10026000D6E72846DAE7206ABDE8F0812DE9F041BB
:100270000646002410687529314616A510D0AFF344
:100280000080002802DA404213A507E031688A079F
:1002900001D512A502E0490704D511A5012401E00A
:1002A000AFF3008000210A2206F1240709E0B0FB29
:1002B000F2FCB0FBF2F302FB1C003030785418461D
:1002C000491C0028F3D123462A463046BDE8F041B8
:1002D00000F051B8000000002D0000002B000000CD
:1002E0002000000010B5431C02E010F8011B71B1A2
:1002F0008107FAD14FF0013202C88C1A8C4314EAFC
:10030000C211F9D0C01A0A0603D0C01E10BDC01A0F
:1003100010BD0A0401D0801E10BD0902FCD0401E91
:1003200010BD4FF0000200B51346944696462039A2
:1003300022BFA0E80C50A0E80C50B1F12001BFF49E
:10034000F7AF090728BFA0E80C5048BF0CC05DF804
:1003500004EB890028BF40F8042B08BF704748BF52
:1003600020F8022B11F0804F18BF00F8012B7047C6
:100370007047704770472DE9F0470D469946924601
:10038000044600F124080168880604D5E06921F0DC
:100390001001216000E00120A84201DD471B00E0C0
:1003A0000027A1697A1902EB0900081AA0612078D8
:1003B000C00602D42046AFF30080002608E0D4E94E
:1003C00001211AF806009047206A401C761C206222
:1003D0004E45F4DB2078C0060AD52046AFF30080F6
:1003E00006E0D4E9012130209047206A401C2062B9
:1003F000381EA7F10107F4DC07E0D4E9012118F861
:1004000005009047206A401C2062281EA5F10105C6
:10041000F3DC2046AFF300802078000602D50220EE
:10042000BDE8F0870120FBE701694A1C02610878FA
:10043000704700B58FB0CDE9013100210591054924
:100440007944CDE9031011466846FFF7DBFE0FB093
:1004500000BD0000E5FFFFFF0A6802F8010B0A601B
:100460007047D1E900239A4202D2531C0B601070EE
:100470007047754600F02CF8AE46050069465346B5
:1004800020F00700854618B020B5FFF78FFEBDE8C5
:1004900020404FF000064FF000074FF000084FF0EB
:1004A000000B21F00701AC46ACE8C009ACE8C0097C
:1004B000ACE8C009ACE8C0098D46704710B50446E9
:1004C000AFF300802046BDE81040FFF75BBE0000A0
:1004D000004870475801002001491820ABBEFEE7D4
:1004E000260002007047000070B50446006881686D
:1004F000C943C90717D1816821F00101816000F06B
:10050000EBFB05460AE000BF00F0E6FB401B0228BB
:1005100004D920688068C043C00706D0206880687E
:10052000C043C007F0D0002070BDA06A40F01000AA
:10053000A062E06A40F00100E062012070BD0000AE
:10054000F8B500260446009600688168C943C907CB
:100550002DD0816841F0010181601648164900687C
:10056000B0FBF1F000E0401E00900028FBD100F04D
:10057000B3FB054616E000BF00F0AEFB401B0228AF
:1005800010D920688068C043C0070BD0A06A40F033
:100590001000A062E06A40F00100E06284F824608C
:1005A0000120F8BD20688068C043C007E4D1002066
:1005B000F8BD00002400002040420F00FEE7704715
:1005C0000EB5022000900120019005480290694676
:1005D000044800F01DF8002801D072B6FEE70EBDF9
:1005E0006DDBB600580000200EB5092000900120F8
:1005F0000190054802906946044800F009F8002877
:1006000001D072B6FEE70EBD6DDBB60028000020FB
:10061000F8B50024009490F824202546012A12D031
:10062000012280F824204A681F23072A0DD2066879
:10063000776B521E02EB820293409F430B689340FC
:100640001F43776319E00220F8BD06680D2A0AD21D
:10065000376BD21F02EB820293409F430B6893409B
:100660001F43376309E0F76A0D3A02EB82029340B9
:100670009F430B6893401F43F7620A68072306688D
:100680000A2A0AD3F7680A3A02EB420293409F43D0
:100690008B6893401F43F76008E0376902EB420222
:1006A00093409F438B6893401F4337610A68102A29
:1006B00001D0112A20D1124B02689A4217D19368B7
:1006C0001B0219D4936843F400039360096810294E
:1006D00012D10C490C4A0968B1FBF2F101EB81011E
:1006E000490000E0491E00910029FBD104E0816A25
:1006F00041F020018162012480F824502046F8BD99
:10070000002401402400002040420F000068C06C1B
:10071000704700002DE9F0414FF0000704003D460E
:100720007ED0A06A002628B9E66284F824602046BC
:1007300000F07EF82046FFF7D7FEA16AC90600D474
:1007400020B1A06A40F01000A06269E0A16A21F423
:10075000885141F00201A1626268E169237B0A438A
:1007600047EA43010A43A1684FF48077B94209D0B0
:10077000012907D05FF0000194F814C0BCF1010F0B
:1007800002D00AE03946F7E7F3B1A36A43F0200349
:10079000A362E36A43F00103E3622368D3F804C071
:1007A0002CF4694C4CEA010CC3F804C021688B6836
:1007B000DFF870C003EA0C0313438B60A168B942F1
:1007C0000BD0012909D00CE0DFF85CC0A3690CEB69
:1007D00043330B4343F40061DFE7218A0D05A5F5A0
:1007E00080152168CB6A23F470032B43CB62216808
:1007F00089680E4B1940914208D1E662A16A21F046
:10080000020141F00101A162BDE8F081A06A20F07F
:10081000020040F01000A062E06A40F00100E062D7
:100820000120F1E7FDF7E1FF00E0FFFFFE0E1FFFF3
:1008300000B585B0002100910191029103911C4BFC
:1008400002681C4803219A4215D1826942F4007261
:100850008261826902F400720492826942F00802A5
:100860008261806900F0080004900220CDE9000157
:100870006946114817E0114B9A4216D1826942F439
:1008800080628261826902F480620492826942F02D
:1008900004028261806900F0040004900420CDE924
:1008A00000016946064800F01DF905B000BD0000D2
:1008B0000024014000100240000C014000280140CB
:1008C000000801402DE9F84300270D460446009733
:1008D00000F002FA804620688168C90508D5A06A40
:1008E00040F02000A06284F824700120BDE8F88365
:1008F0004168C90503D4C06A10F4700F2AD00220E1
:1009000000F06CFB3B490968B1FBF0F62068036915
:1009100039490B424FEA61014FEAA1121FD1C36866
:100920004FEA611C13EA0C0F19D103690B4225D160
:10093000C068104222D1142023E0681C0AD02DB1D7
:1009400000F0CAF9A0EB0800A84203D920680068AB
:10095000800725D5206800688007EED52DE0036963
:100960000B4202D1C168114206D0026923490A42F2
:1009700006D1C068084203D1542002E0292000E0DB
:10098000FC204643009816E0681C11D02DB100F001
:10099000A3F9A0EB0800A8420AD90098B04207D2F8
:1009A000A06A40F00400A06284F8247003209DE750
:1009B0000098401C0090B042E6D321686FF012000E
:1009C0000860A06A40F40070A06220688068C0F3EC
:1009D000424007280CD1207B50B9A06A20F48070D7
:1009E000A062A06AC00403D4A06A40F00100A06223
:1009F00000207BE72400002024499224499224000F
:100A000070B5044690F8240001280DD0012084F828
:100A100024002046FFF794FD02004FF0000005D0AF
:100A200084F82400104670BD022070BDA16A40F217
:100A30000123994341F48071A1621F4D23681F492E
:100A4000AB4218D10E6816F4702F14D0A66A46F483
:100A50008016A6620E68760505D5A66A26F40056AD
:100A600046F48056A662A66AF6040AD5E66A26F01F
:100A70000606E66206E0A66A26F48016A6625E68AE
:100A8000E9E7E06284F824006FF002001860206853
:100A90008368C3F34243072B05D1A84208D10968F4
:100AA00011F4702F04D0816841F480118160B9E79E
:100AB000816841F4A001F9E70028014004240140C5
:100AC00070B5044600F008F90546601C02D00448E1
:100AD0000078044400F000F9401BA042FAD370BD36
:100AE000180000202DE9F84FDFF8B8910024A9F193
:100AF000040B23460F2709F1040AABF1040EC9E0E9
:100B00000125A5402A40AA427DD1674ED1F804C0F4
:100B1000ACEB0608B44532D014DCBCF1030F3AD07C
:100B200009DCBCF1000F2AD0BCF1010F1CD0BCF1D4
:100B3000020F31D11DE0BCF1110F17D0BCF1120F23
:100B40002AD119E0B8F5881F19D006DCB8F5803F26
:100B500015D0B8F5801F1FD111E0B8F5001F0ED0D9
:100B6000B8F5041F18D10AE0CB6815E0CB681B1D4F
:100B700012E0CB6808330FE0CB680C330CE08B68D5
:100B80002BB1012B4FF0080303D0456104E004238F
:100B900002E0056100E00023FF2A01D8064601E0DB
:100BA00000F104064FEA840501D9A5F12005D6F825
:100BB000008007FA05FC28EA0C0803FA05F548EA64
:100BC0000508C6F800804D68ED0062D5374DAE6966
:100BD00046F00106AE61AD6924F0030605F001059B
:100BE0000095334D06EB050CDCF80850A607360FD0
:100BF00007FA06F825EA0805DFF8B880404503D172
:100C00004FF0000817E044E0DFF8AC80404502D127
:100C10004FF001080FE0DFF8A480404502D14FF00B
:100C2000020808E0DFF89880404502D14FF0030841
:100C300001E04FF0040808FA06F848EA0508CCF885
:100C400008804D68D9F80060ED024D4601D5164385
:100C500000E096432E604D68DAF80060AD0255461C
:100C600001D5164300E096432E604D68DBF8006026
:100C7000AD035D4601D5164300E096432E604D68F6
:100C8000DEF80060ED03754601D5164300E096439B
:100C90002E60641C0D682A46E5407FF431AFBDE844
:100CA000F88F0000080401400000111000100240FD
:100CB0000000014000080140000C0140001001400C
:100CC000001401408068084000D0012070470AB13C
:100CD000016170470904FBE7014880687047000024
:100CE0001800002070B5040025D094F83D000025C0
:100CF00020B984F83C50204600F0B8F8242084F84D
:100D00003D002068016821F0010101602068016850
:100D100041F4004101602068016821F40041016054
:100D200000F0BAFA4D4A6168914201D84C4900E09E
:100D30004C49884201D2012070BD4B492368B0FB69
:100D4000F1F15E6826F03F060E435E6063689342F1
:100D500006D94FF4967359434FF47A73B1FBF3F10C
:100D60002368491C1E6A26F03F06314319626168F8
:100D7000914210D84900401EB0FBF1F2521CC2F360
:100D80000B02042A01D2042022E0B0FBF1F0401C47
:100D9000C0F30B001CE0A268F2B301EBC10303EB4C
:100DA0000116431EB3FBF6F35B1C43F480431B05A3
:100DB00049D092B301EBC10202EB0111401EB0FB1E
:100DC000F1F0401CC0F30B0040F4804040F40040C0
:100DD0002168CA694CF6FF739A431043C861D4E98D
:100DE000071001432068026822F0C002114301602D
:100DF000D4E9030101432068826848F2FF339A4333
:100E000011438160D4E9050108432168CA6822F0D2
:100E1000FF021043C86001E00EE016E020680168A0
:100E200041F0010101602564202084F83D00256324
:100E300084F83E50002070BD01EB4106431EB3FB19
:100E4000F6F35B1CB3E70120C2E701EB4101401E52
:100E5000B0FBF1F0401CC0F30B00B7E7A086010027
:100E600080841E0000093D0040420F0010B586B08E
:100E70000021009101910291039100680F4988427D
:100E80001AD10F4CA06940F00800A061A069694622
:100E900000F008000490C020009012200190032070
:100EA00003900848FFF71EFEE06940F40010E0617F
:100EB000E06900F40010049006B010BD005400403A
:100EC00000100240000C0140024881680278114481
:100ED0008160704718000020074810B5016841F094
:100EE00010010160032000F067F8002000F006F810
:100EF00000F024F8002010BD0020024070B50D4D18
:100F000004464FF47A712878B1FBF0F00A49096879
:100F1000B1FBF0F000F096FB48B9102C07D200228C
:100F20002146501E00F028F800206C6070BD0120A2
:100F300070BD000018000020240000200C4808B5F7
:100F4000816941F001018161816901F00101009134
:100F5000C16941F08051C161C06900F080500090CA
:100F60000448416821F0E06141F00071416008BD32
:100F70000010024000000140F0B40E4B1B680C460C
:100F8000C3F30223C3F10705042D00D90425191D5D
:100F9000072901D2002300E0DB1E012606FA05F135
:100FA000491E214099409E40761E16403143F0BCB8
:100FB00000F07BBD0CED00E0064900F00702086878
:100FC0004FF6FF03184040EA0220034A104308602E
:100FD000704700000CED00E00000FA0510B5014676
:100FE0000020234C012922D0022939D010291DD1FB
:100FF00061682268D20119D51E48C1F38342C90332
:10100000805C0AD561681B4AC1F34041921E515C65
:10101000194AB2FBF1F1484301E0184948436168BD
:10102000490203D440000321B0FBF1F010BD226A55
:10103000C2F30121012903D1920701D5C80310BDD4
:10104000022905D1626A920702D549F6404010BDD7
:101050000329FCD121688903F9D54FF2244010BD42
:1010600000F02AF96168C1F38131491C4900DBE7CE
:1010700000100240281D000800127A0000093D00FF
:101080002DE9F84305460078354CC00754D0E06997
:101090000026C00008D4E06940F08050E061E069BB
:1010A000012600F0805000902E480168C90512D436
:1010B0000168804641F480710160FFF70DFE07462C
:1010C00005E000BFFFF708FEC01B642823D8D8F84E
:1010D0000000C005F6D5206A10F4407021D0A98820
:1010E00001F4407181421CD0206A1F49012220F482
:1010F00040700A6000220A602062C00711D0FFF72A
:10110000EBFD074641F2883808E000BFFFF7E4FD39
:10111000C11B414502D90320BDE8F883206A80073E
:10112000F4D5206A696820F44070084320621EB13B
:10113000E06920F08050E0612878800705D560687C
:10114000A96820F44040084360602878C00605D5AF
:101150006068E96820F48000084360600020DBE7F5
:101160000010024000700040400442422DE9F04768
:101170000F46050061D0434E306800F00700B842CA
:1011800009D2306820F0070038433060306800F042
:101190000700B84251D128683B4C810712D540075F
:1011A00003D5606840F4E06060602878000703D5EC
:1011B000606840F4605060606068A96820F0F000EA
:1011C000084360602878C00728D06868012810D0DC
:1011D0002168022810D0890700292EDA616821F0E1
:1011E000030101436160FFF777FD804641F28839D2
:1011F0000DE021688903EFE78901EDE7FFF76CFD5A
:10120000A0EB0801494502D90320BDE8F0876068DA
:10121000696800F00C00B0EB810FEFD1306800F08E
:101220000700B8420BD9306820F00700384330601F
:10123000306800F00700B84201D00120E5E72878C7
:10124000400705D56068E96820F4E0600843606005
:101250002878000706D56068296920F4605040EAC4
:10126000C100606000F038F86168084AC1F30311FA
:10127000515CC8400649086006480068FFF73EFE1A
:101280000020C2E70020024000100240381D000884
:10129000240000201C00002004480549006849681B
:1012A000044AC1F30221515CC84070472400002069
:1012B00000100240481D00080448054900684968BC
:1012C000044AC1F3C221515CC84070472400002089
:1012D00000100240481D00080E4A51680E4801F0F7
:1012E0000C03042B11D0082B0FD10C48C1F38343FE
:1012F000C903C05C0AD55168084AC1F34041921E37
:10130000515C054A5043B0FBF1F070470449484333
:10131000704700000010024000127A00161D0008FD
:1013200000093D002DE9F84F040070D02078C04D31
:10133000C00749D06868C0F38100012807D06868F9
:10134000C0F38100022809D16868C00306D5286867
:10135000800339D560680028E7D035E06068B0F5D3
:10136000803F0BD010B1B0F5A02F11D0286820F429
:1013700080302860286820F4802002E0286840F44B
:1013800080302860606890B1FFF7A6FC06460AE04E
:10139000286840F480202860F0E700BFFFF79CFC3D
:1013A000801B642873D828688003F7D50CE0FFF70A
:1013B00093FC064605E000BFFFF78EFC801B642807
:1013C000F0D828688003F7D420789A4E80074FF031
:1013D00001094FF0000839D5686810F00C0F07D0EC
:1013E0006868C0F38100022809D16868C00306D488
:1013F0002868800714D52069012808D110E02069E9
:10140000B0B1C6F80090FFF767FC074605E00AE1B7
:10141000FFF762FCC01B0228C4D828688007F7D5F4
:101420002868616920F0F80040EAC10028600DE0FA
:10143000C6F80080FFF750FC074604E0FFF74CFCBD
:10144000C01B022823D828688007F7D4207800071B
:101450002CD57948A169D9B1C0F80090FFF73CFCC0
:10146000074604E0FFF738FCC01B02280FD8686A63
:101470008007F7D571484FF4FA510068B0FBF1F0DE
:10148000009000BF0098411E0091FAD20EE080E06B
:10149000C0F80080FFF720FC074604E0FFF71CFCC3
:1014A000C01B022875D8686A8007F7D420784007E7
:1014B00060D5E8690027C00008D4E86940F0805092
:1014C000E861E869012700F0805000905C480168FD
:1014D000C90513D40168834641F480710160FFF7A8
:1014E000FBFB824606E000BFFFF7F6FBA0EB0A001D
:1014F00064284ED8DBF80000C005F5D5E068012867
:101500000AD008B1052813D0286A20F0010028620B
:10151000286A20F0040002E0286A40F001002862F6
:10152000E06841F2883B98B1FFF7D6FB82460BE0BA
:10153000286A40F004002862EEE700BFFFF7CCFB0A
:10154000A0EB0A0159455AD8286A8007F6D50CE065
:10155000FFF7C2FB824605E0FFF7BEFBA0EB0A01E6
:1015600059454CD8286A8007F6D41FB1E86920F0A5
:101570008050E861E06988B36968C1F3810102299C
:1015800044D00228C6F8608004D0FFF7A5FB0446CB
:1015900038E034E0FFF7A0FB074604E0FFF79CFBD0
:1015A000C01B02282BD828688001F7D4206AB0F528
:1015B000803F05D16868A16820F400300843686066
:1015C000D4E908010843696821F47411084368608C
:1015D000C6F86090FFF780FB044606E025E000BFF8
:1015E000FFF77AFB001B022809D828688001F7D58D
:1015F0001BE000BFFFF770FB001B022802D903208D
:10160000BDE8F88F28688001F4D40EE00128F7D0F7
:101610006868226A00F48031914204D1616A00F462
:101620007010884201D00120EAE70020E8E70000BE
:101630000010024000004242800442422400002088
:101640000070004010B5401EB0F1807F01D3012032
:1016500010BD4FF0E02460610F21601700F025FA03
:101660000020A06107202061002010BD70B504009B
:1016700004D094F84100002510B106E0012070BDAF
:1016800084F84050204600F023F8242084F84100DC
:101690002068C16821F40051C160204600F06CF957
:1016A0002068016921F4904101612068416921F0BD
:1016B0002A0141612068C16841F40051C16065643C
:1016C000202084F8410084F842006563002070BD4A
:1016D00030B585B00024009401940294039400680E
:1016E0001449884224D11448C16941F48021C16160
:1016F000C16901F480210491816941F0080181618F
:1017000080690E4D00F0080004904FF48060009056
:10171000022001900320039069462846FFF7E2F972
:10172000E814CDE90004694628460294FFF7DAF987
:1017300005B030BD0048004000100240000C0140E0
:101740002DE9F843044690F841001F4616460D4621
:10175000202802D00220BDE8F8837DB176B10020B8
:101760006064212084F84100FFF7B6FAA684804621
:10177000E684A068B0F5805F02D003E00120EAE7CC
:10178000206910B12E4600250EE000260CE08021D5
:10179000204600F04DF9A0B9AEB116F8010B216852
:1017A0004860E08C401EE084E08C43464FF000022D
:1017B00000970028EBD14FF04001204600F038F9A7
:1017C00030B10320C7E735F8020BC0F30800E6E7A5
:1017D000202084F841000020BDE7FEE73EB500214F
:1017E0001148009101910F4A029102600124816029
:1017F000047301754FF460220461C2614160FEF719
:1018000089FF08B172B6FEE70920CDE90004052082
:10181000029069460448FEF7FBFE002801D072B62C
:10182000FEE73EBD00240140280000203EB5002117
:101830001148009101910F4A0291026001248160D8
:10184000047301754FF460220461C2614160FEF7C8
:1018500061FF08B172B6FEE70220CDE90004052061
:10186000029069460448FEF7D3FE002801D072B604
:10187000FEE73EBD002801405800002070B586B04C
:1018800000241C480094019402940394816941F05F
:1018900004018161816901F004010491816941F0D1
:1018A000080181618069144E00F008000490002254
:1018B00004213046FFF70BFA40F6F93001258DE898
:1018C000310069460D48FFF70DF90420CDE9000508
:1018D0000220CDE9024069463046FFF703F94FF494
:1018E00050408DE8310069463046FFF7FBF806B0FE
:1018F00070BD000000100240000C014000080140D3
:10190000FEE7FEE770477047FFF7DEBA30B593B0E9
:1019100028216846FEF705FD14210AA8FEF701FDFF
:10192000002401200F9402250490009510201194AA
:1019300005901094129407946846FFF7F3FC08B1E1
:1019400072B6FEE70F20CDE90A040C940D94002135
:101950000AA80E94FFF70AFC08B172B6FEE70FA8BA
:101960000F951194FFF78CFB002801D072B6FEE7AB
:1019700013B030BD7047000070B5044600680169BF
:10198000E26821F44051114301612169A0680843D4
:10199000616908432168CA6841F20C639A430243B3
:1019A000CA6020684169A26921F440711143416114
:1019B0001E492068884202D1FFF77EFC01E0FFF754
:1019C0006BFC00EBC00101EB001260686421800039
:1019D000B2FBF0F3B3FBF1F36FF018067343B2FB05
:1019E000F0F5B2FBF0F605EB8305322303EB0515AA
:1019F000B5FBF1F5B6FBF1F605F0F00505EB0615C4
:101A0000B2FBF0F6B2FBF0F0B0FBF1F06FF01802B1
:101A1000504306EB800003EB0010B0FBF1F02168AF
:101A200000F00F002844886070BD000000380140BD
:101A30002DE9F041984617460E460446069D27E0DC
:101A4000681C25D02DB1FFF747F9A0EB0800A8428C
:101A50001ED920680C3050E8001F21F4D07140E8F6
:101A60000012002AF5D12068143050E8001F21F040
:101A7000010140E80012002AF5D1202084F841003D
:101A800084F84200002084F840000320BDE8F08183
:101A90002068006836EA000004D00020B842CFD0A9
:101AA0000020F3E70120F9E7FEE70907090E002807
:101AB00004DB00F1E02080F80014704700F00F0014
:101AC00000F1E02080F8141D7047000088B0FFF797
:101AD00003FAFFF71BFFFFF7D1FE81487F4900257E
:101AE00001604FF4E131C0E901150C21C560C0E986
:101AF00004518561C561FFF7B9FD08B172B6FEE713
:101B0000FFF76CFEFFF792FE7548764954384FF4A4
:101B1000804601607449C0E90115C0E9035645617A
:101B20008561C5610562FFF7DDF801276F49704CDB
:101B3000DFF8C091B2104FF4004C08B172B6FEE766
:101B40009246E3464FEA0108FEF73AFD64488438BE
:101B5000FEF756FF62480A218438FEF7B3FE60485C
:101B60008438FEF7D3FD624E123630800220FEF735
:101B7000A7FFFEF739FD5A48B438FEF741FF584831
:101B80000A21B438FEF79EFE5548B438FEF7BEFD74
:101B900070800220FEF794FF4FF480714046FFF7FB
:101BA00091F80028208A09D0A08147F22D51C01E4B
:101BB00088420CD2E089012804D008E0401C208231
:101BC000E78104E02088401C2080E5812582594679
:101BD0004846FFF777F800B967804FF40071404638
:101BE000FFF770F800B9A78008214046FFF76AF8B0
:101BF00000B9E78040214046FFF764F800B927812B
:101C000051464846FFF75EF838B94FF480414846E0
:101C1000FFF758F8012800D167814FF4804148460A
:101C2000FFF750F838B951464846FFF74BF80128FE
:101C300001D102206081A0880DF10C0C63892289FA
:101C4000E1888CE80F007088628821888DE80700A1
:101C50002348338828A232214830FEF7B9FA2048B9
:101C60004830FEF73FFB1E4982B24FF47A73483189
:101C70001B48FFF765FD0220FEF722FF5946484644
:101C8000FFF720F8012800D165804FF40071464627
:101C90004046FFF717F8012800D1A58008213046FB
:101CA000FFF710F8012800D1E58040213046FFF70A
:101CB00009F8012800D125812078C00708D1002229
:101CC00004214846FFF703F82078C0073FF43CAFF3
:101CD000012204214846FEF7FAFF35E7004800409C
:101CE000DC00002000540040A086010000080140F4
:101CF00000000020000C014025642C25642C256484
:101D00002C25642C25642C25642C25642C25642C1E
:101D1000610A0000010202030405060708090A0B14
:101D20000C0D0E0F1010010202030405060708092E
:101D30000A0B0C0D0E0F1010000000000000000038
:101D40000102030406070809000000000102030461
:101D5000701D000800000020280000002801000875
:101D6000981D00082800002090070000440100088A
:101D70000000000000000000000000000000000063
:101D80000000000000000000010000001000000042
:081D9000000000000024F40033
:04000005080000ED02
:00000001FF
