:020000040800F2
:1000000000500020E13200089D300008A3300008B5
:10001000A9300008AF300008B5300008000000002B
:10002000000000000000000000000000BB300008DD
:10003000C730000800000000D3300008DF3000089F
:100040002933000829330008293300082933000820
:100050002933000829330008293300082933000810
:100060002933000829330008293300082933000800
:1000700029330008293300082933000829330008F0
:1000800029330008293300082933000829330008E0
:1000900029330008293300082933000829330008D0
:1000A000F130000805310008193100082D31000831
:1000B00029330008293300082933000829330008B0
:1000C00029330008293300082933000829330008A0
:1000D000293300082933000841310008293300087A
:1000E00029330008293300082933000800000000E4
:1000F0000000000000000000000000000000000000
:0C01000000000000000000005FF808F1A3
:1001100010B5054C237833B9044B13B10448AFF341
:1001200000800123237010BDD801002000000000D2
:10013000BC88000808B5034B1BB103490348AFF363
:10014000008008BD00000000DC010020BC88000821
:10015000034613F8012B002AFBD1181A0138704707
:1001600081F0004102E000BF83F0004330B54FEA68
:1001700041044FEA430594EA050F08BF90EA020FD5
:100180001FBF54EA000C55EA020C7FEA645C7FEA68
:10019000655C00F0E2804FEA5454D4EB5555B8BF8B
:1001A0006D420CDD2C4480EA020281EA030382EAFC
:1001B000000083EA010180EA020281EA0303362D8E
:1001C00088BF30BD11F0004F4FEA01314FF4801C61
:1001D0004CEA113102D0404261EB410113F0004F73
:1001E0004FEA03334CEA133302D0524263EB43032A
:1001F00094EA050F00F0A780A4F10104D5F1200EC8
:100200000DDB02FA0EFC22FA05F2801841F1000122
:1002100003FA0EF2801843FA05F359410EE0A5F1F6
:1002200020050EF1200E012A03FA0EFC28BF4CF027
:10023000020C43FA05F3C01851EBE37101F00045DD
:1002400007D54FF0000EDCF1000C7EEB00006EEBEA
:100250000101B1F5801F1BD3B1F5001F0CD3490874
:100260005FEA30004FEA3C0C04F101044FEA4452CB
:1002700012F5800F80F09A80BCF1004F08BF5FEA52
:10028000500C50F1000041EB045141EA050130BD32
:100290005FEA4C0C404141EB0101013C28BFB1F544
:1002A000801FE9D291F0000F04BF01460020B1FA8F
:1002B00081F308BF2033A3F10B03B3F120020CDA62
:1002C0000C3208DD02F1140CC2F10C0201FA0CF040
:1002D00021FA02F10CE002F11402D8BFC2F1200CA5
:1002E00001FA02F120FA0CFCDCBF41EA0C0190405B
:1002F000E41AA2BF01EB0451294330BD6FEA0404A4
:100300001F3C1CDA0C340EDC04F11404C4F120028E
:1003100020FA04F001FA02F340EA030021FA04F3A0
:1003200045EA030130BDC4F10C04C4F1200220FAF7
:1003300002F001FA04F340EA0300294630BD21FA35
:1003400004F0294630BD94F0000F83F4801306BFFB
:1003500081F480110134013D4EE77FEA645C18BFEF
:100360007FEA655C29D094EA050F08BF90EA020F86
:1003700005D054EA000C04BF1946104630BD91EA7E
:10038000030F1EBF0021002030BD5FEA545C05D181
:100390004000494128BF41F0004130BD14F58004C0
:1003A0003CBF01F5801130BD01F0004545F0FE4134
:1003B00041F470014FF0000030BD7FEA645C1ABF69
:1003C000194610467FEA655C1CBF0B46024650EAA0
:1003D000013406BF52EA033591EA030F41F40021CC
:1003E00030BD00BF90F0000F04BF0021704730B552
:1003F0004FF4806404F132044FF000054FF0000127
:1004000050E700BF90F0000F04BF0021704730B5E7
:100410004FF4806404F1320410F0004548BF4042BC
:100420004FF000013EE700BF42004FEAE2014FEA11
:1004300031014FEA02701FBF12F07F4393F07F4FEC
:1004400081F06051704732F07F4208BF704793F0EF
:100450007F4F04BF41F40021704730B54FF4607402
:1004600001F0004521F000411CE700BF50EA010205
:1004700008BF704730B54FF000050AE050EA0102AE
:1004800008BF704730B511F0004502D5404261EB1E
:1004900041014FF4806404F132045FEA915C3FF45F
:1004A000D8AE4FF003025FEADC0C18BF03325FEAFC
:1004B000DC0C18BF033202EBDC02C2F1200300FAAD
:1004C00003FC20FA02F001FA03FE40EA0E0021FAD2
:1004D00002F11444BDE600BF70B54FF0FF0C4CF4C0
:1004E000E06C1CEA11541DBF1CEA135594EA0C0F72
:1004F00095EA0C0F00F0DEF82C4481EA030621EAAD
:100500004C5123EA4C5350EA013518BF52EA0335E7
:1005100041F4801143F4801338D0A0FB02CE4FF099
:100520000005E1FB02E506F00042E0FB03E54FF0C9
:100530000006E1FB03569CF0000F18BF4EF0010EC1
:10054000A4F1FF04B6F5007F64F5407404D25FEABD
:100550004E0E6D4146EB060642EAC62141EA555170
:100560004FEAC52040EA5E504FEACE2EB4F1FD0CB2
:1005700088BFBCF5E06F1ED8BEF1004F08BF5FEA30
:10058000500E50F1000041EB045170BD06F00046E2
:1005900046EA010140EA020081EA0301B4EB5C048F
:1005A000C2BFD4EB0C0541EA045170BD41F4801187
:1005B0004FF0000E013C00F3AB8014F1360FDEBFAC
:1005C000002001F0004170BDC4F10004203C35DA88
:1005D0000C341BDC04F11404C4F1200500FA05F30B
:1005E00020FA04F001FA05F240EA020001F00042AC
:1005F00021F0004110EBD37021FA04F642EB060122
:100600005EEA430E08BF20EAD37070BDC4F10C044B
:10061000C4F1200500FA04F320FA05F001FA04F20F
:1006200040EA020001F0004110EBD37041F10001FB
:100630005EEA430E08BF20EAD37070BDC4F1200506
:1006400000FA05F24EEA020E20FA04F301FA05F26E
:1006500043EA020321FA04F001F0004121FA04F216
:1006600020EA020000EBD3705EEA430E08BF20EAE6
:10067000D37070BD94F0000F0FD101F00046400020
:1006800041EB010111F4801F08BF013CF7D041EAA2
:10069000060195F0000F18BF704703F000465200A6
:1006A00043EB030313F4801F08BF013DF7D043EA77
:1006B0000603704794EA0C0F0CEA135518BF95EA2D
:1006C0000C0F0CD050EA410618BF52EA4306D1D1B4
:1006D00081EA030101F000414FF0000070BD50EAD3
:1006E000410606BF1046194652EA430619D094EA5D
:1006F0000C0F02D150EA013613D195EA0C0F05D147
:1007000052EA03361CBF104619460AD181EA03019A
:1007100001F0004141F0FE4141F470014FF0000052
:1007200070BD41F0FE4141F4780170BD70B54FF0ED
:10073000FF0C4CF4E06C1CEA11541DBF1CEA13556D
:1007400094EA0C0F95EA0C0F00F0A7F8A4EB05044F
:1007500081EA030E52EA03354FEA013100F0888046
:100760004FEA03334FF0805545EA131343EA12630F
:100770004FEA022245EA111545EA10654FEA0026C4
:100780000EF000419D4208BF964244F1FD0404F57D
:10079000407402D25B084FEA3202B61A65EB0305D9
:1007A0005B084FEA32024FF480104FF4002CB6EB96
:1007B000020E75EB030E22BFB61A754640EA0C0016
:1007C0005B084FEA3202B6EB020E75EB030E22BF56
:1007D000B61A754640EA5C005B084FEA3202B6EB97
:1007E000020E75EB030E22BFB61A754640EA9C0056
:1007F0005B084FEA3202B6EB020E75EB030E22BF26
:10080000B61A754640EADC0055EA060E18D04FEAE3
:10081000051545EA16754FEA06164FEAC30343EA83
:1008200052734FEAC2025FEA1C1CC0D111F4801F50
:100830000BD141EA00014FF000004FF0004CB6E749
:1008400011F4801F04BF01430020B4F1FD0C88BFE8
:10085000BCF5E06F3FF6AFAEB5EB030C04BFB6EBF3
:10086000020C5FEA500C50F1000041EB045170BDE6
:100870000EF0004E4EEA113114EB5C04C2BFD4EB13
:100880000C0541EA045170BD41F480114FF0000E97
:10089000013C90E645EA060E8DE60CEA135594EA13
:1008A0000C0F08BF95EA0C0F3FF43BAF94EA0C0F16
:1008B0000AD150EA01347FF434AF95EA0C0F7FF48B
:1008C00025AF104619462CE795EA0C0F06D152EADF
:1008D00003353FF4FDAE1046194622E750EA4106C3
:1008E00018BF52EA43067FF4C5AE50EA41047FF4D4
:1008F0000DAF52EA43057FF4EBAE12E74FF0FF3C39
:1009000006E000BF4FF0010C02E000BF4FF0010C09
:100910004DF804CD4FEA410C7FEA6C5C4FEA430C82
:1009200018BF7FEA6C5C1BD001B050EA410C0CBFD1
:1009300052EA430C91EA030F02BF90EA020F002033
:10094000704710F1000F91EA030F58BF994208BF9A
:1009500090422CBFD8176FEAE37040F00100704757
:100960004FEA410C7FEA6C5C02D150EA013C07D1AE
:100970004FEA430C7FEA6C5CD6D152EA033CD3D0F9
:100980005DF8040B704700BF8446104662468C46F3
:100990001946634600E000BF01B5FFF7B7FF002826
:1009A00048BF10F1000F01BD4DF808EDFFF7F4FF4F
:1009B0000CBF012000205DF808FB00BF4DF808EDDA
:1009C000FFF7EAFF34BF012000205DF808FB00BFFD
:1009D0004DF808EDFFF7E0FF94BF012000205DF81F
:1009E00008FB00BF4DF808EDFFF7CEFF94BF0120D4
:1009F00000205DF808FB00BF4DF808EDFFF7C4FFCD
:100A000034BF012000205DF808FB00BF4FEA410C15
:100A10007FEA6C5C02D150EA013C0AD14FEA430CF8
:100A20007FEA6C5C02D152EA033C02D14FF0000035
:100A300070474FF0010070474FEA410212F5001273
:100A400015D211D56FF47873B3EB625212D94FEA15
:100A5000C12343F0004343EA505311F0004F23FAFF
:100A600002F018BF404270474FF00000704750EA54
:100A7000013005D111F0004008BF6FF00040704711
:100A80004FF00000704700BF4FF0FF3C06E000BF92
:100A90004FF0010C02E000BF4FF0010C4DF804CD07
:100AA0004FEA40024FEA41037FEA226C18BF7FEA17
:100AB000236C11D001B052EA530C18BF90EA010F19
:100AC00058BFB2EB030088BFC81738BF6FEAE170A8
:100AD00018BF40F0010070477FEA226C02D15FEA44
:100AE000402C05D17FEA236CE4D15FEA412CE1D0B0
:100AF0005DF8040B704700BF844608466146FFE777
:100B00000FB5FFF7C9FF002848BF10F1000F0FBD58
:100B10004DF808EDFFF7F4FF0CBF012000205DF851
:100B200008FB00BF4DF808EDFFF7EAFF34BF0120D6
:100B300000205DF808FB00BF4DF808EDFFF7E0FF6F
:100B400094BF012000205DF808FB00BF4DF808EDC0
:100B5000FFF7D2FF94BF012000205DF808FB00BF23
:100B60004DF808EDFFF7C8FF34BF012000205DF805
:100B700008FB00BF80B582B000AF78607B681A6860
:100B8000044B1B689A4201D100F05AFA00BF0837A3
:100B9000BD4680BDF805002090B587B000AF044683
:100BA000084611461A462346FB710346BB710B46A5
:100BB0007B7113463B710023FB75DCE0FB79BB7551
:100BC000BB7D23F07F03BB75BB797B757B7D23F0F9
:100BD0007F037B757B793B753B7D23F07F033B7502
:100BE0003B79FB74FB7C23F07F03FB7497F8283080
:100BF000BB74BB7C23F07F03BB7497F82C307B74F1
:100C00007B7C23F07F037B7497F830303B743B7C14
:100C100023F07F033B7497F83430FB73FB7B23F0A6
:100C20007F03FB73BB7D802B06D100224FF48071C4
:100C3000554803F038F905E001224FF4807152481D
:100C400003F031F97B7D802B06D100224FF4007137
:100C50004D4803F028F905E001224FF400714A489D
:100C600003F021F93B7D802B06D100224FF4004197
:100C7000454803F018F905E001224FF400414248CD
:100C800003F011F9FB7C802B06D100224FF4804148
:100C90003D4803F008F905E001224FF480413A484D
:100CA00003F001F9BB7C802B06D100224FF40051E8
:100CB000354803F0F8F805E001224FF400513248BE
:100CC00003F0F1F87B7C802B06D100224FF4805199
:100CD0002D4803F0E8F805E001224FF480512A483E
:100CE00003F0E1F83B7C802B05D10022022127484C
:100CF00003F0D9F804E001220221244803F0D3F8DC
:100D0000FB7B802B05D100220121204803F0CBF88A
:100D100004E0012201211D4803F0C5F80022102142
:100D2000194803F0C0F8FB795B00FB71BB795B00ED
:100D3000BB717B795B007B713B795B003B7197F802
:100D400028305B0087F8283097F82C305B0087F854
:100D50002C3097F830305B0087F8303097F834301B
:100D60005B0087F8343001221021074803F09BF81C
:100D7000FB7D0133FB75FB7D072B7FF61FAF00BFAB
:100D800000BF1C37BD4690BD000C0140000801406B
:100D900090B589B000AF0446084611461A4623466E
:100DA000FB710346BB710B46BB8013467B8000235F
:100DB000FB820023BB82BB79203B5B4ADB001344F0
:100DC0005B683B61BB79203B574ADB0013449B784F
:100DD000FB81BB79203B544A12F83330BB8100239E
:100DE000BB8350E00023FB820023FB8344E0BB8AEB
:100DF0005A1CBA821A463B6913441B783B83002372
:100E00007B832FE0BA88FB8A13443F2B2EDC3B8B7D
:100E100003F08003002B0CD0BA88FB8A134498B2ED
:100E20007A88BB8B13449BB20122194600F0CEFA9C
:100E30000BE0BA88FB8A134498B27A88BB8B1344C0
:100E40009BB20022194600F0C1FA3B8B5B003B834A
:100E5000FB8A0133FB82FA8ABB899A4208D27B8BD8
:100E600001337B837B8B072BCCD902E000BF00E0F2
:100E700000BFFB8B0133FB83FA8BFB899A42B6D30D
:100E8000BB8B0133BB83BB8B0E2BABD9274B1B78A2
:100E9000012B43D10023FB833DE00023BB8334E0DF
:100EA000FB8B053398B2BB8B05339BB200221946EE
:100EB00000F08CFAFB8B0E3398B2BB8B10339BB2D5
:100EC0000022194600F082FAFB8B183398B2BB8BD4
:100ED00020339BB20022194600F078FAFB8B2233B4
:100EE00098B2BB8B30339BB20022194600F06EFAE9
:100EF000FB8B2C3398B2BB8B40339BB2002219463C
:100F000000F064FABB8B0133BB83BB8B072BC7D9C3
:100F1000FB8B0133FB83FB8B072BBED9BB89DBB279
:100F200018462437BD4690BD7496000888060020F8
:100F300080B483B000AF0023FB8022E0FB88154A19
:100F40000021D154FB88144A0021D154FB88134A54
:100F50000021D154FB88124A0021D154FB88114A48
:100F60000021D154FB88104A0021D154FB880F4A3C
:100F70000021D154FB880E4A0021D154FB88013353
:100F8000FB80FB887F2BD9D900BF00BF0C37BD4643
:100F900080BC7047F401002074020020F40200209D
:100FA00074030020F403002074040020F4040020E3
:100FB0007405002080B584B000AF396011461A4630
:100FC0000346FB710B46BB7113467B710023FB7319
:100FD00010E03B681978FB7B9AB27B799BB20020CA
:100FE000FFF7D6FE03461A46FB7B1344FB733B68B0
:100FF00001333B603B681B78002BEAD1FB7B184632
:101000001037BD4680BD000080B582B000AF002320
:10101000FB8006E0FB88084A0021D154FB8801339D
:10102000FB80FB887F2BF5D9044803F0B5FB00BF9C
:101030000837BD4680BD00BFF4010020F805002040
:10104000F0B587B004AF0023FB7142E1FB7903F1F7
:101050006002A84B1B78DB001344A74AD55CFB79E0
:1010600003F16002A34B1B78DB001344A34AD65C58
:10107000FB7903F160029F4B1B78DB001344A04A0D
:1010800012F803C0FB7903F160029A4B1B78DB0076
:1010900013449C4A12F803E0FB7903F16002954B7C
:1010A0001B78DB001344984AD35CFA7902F16001A3
:1010B000904A1278D2000A4494498A5CF97901F185
:1010C00060008C490978C90001449148415CF87975
:1010D00000F1600487480078C00020448D4C205CFB
:1010E000039002910192009373466246314628466E
:1010F000FFF752FDFB7903F140027E4B1B78DB00CA
:1011000013447D4AD55CFB7903F14002794B1B788F
:10111000DB001344794AD65CFB7903F14002754B3E
:101120001B78DB001344764A12F803C0FB7903F105
:101130004002704B1B78DB001344724A12F803E044
:10114000FB7903F140026B4B1B78DB0013446E4AC2
:10115000D35CFA7902F14001664A1278D2000A445F
:101160006A498A5CF97901F1400062490978C9004D
:1011700001446748415CF87900F140045D4800781B
:10118000C0002044634C205C0390029101920093C4
:101190007346624631462846FFF7FEFCFB7903F1B1
:1011A0002002544B1B78DB001344534AD55CFB7977
:1011B00003F120024F4B1B78DB0013444F4AD65CEF
:1011C000FB7903F120024B4B1B78DB0013444C4AA4
:1011D00012F803C0FB7903F12002464B1B78DB00B9
:1011E0001344484A12F803E0FB7903F12002414B13
:1011F0001B78DB001344444AD35CFA7902F12001E6
:101200003C4A1278D2000A4440498A5CF97901F1DB
:10121000200038490978C90001443D48415CF8790B
:1012200000F1200433480078C0002044394C205C91
:10123000039002910192009373466246314628461C
:10124000FFF7AAFCFA792B4B1B78DB0013442A4AE0
:10125000D55CFA79274B1B78DB001344274AD65C10
:10126000FA79244B1B78DB001344254A12F803C09B
:10127000FA79204B1B78DB001344224A12F803E072
:10128000FA791C4B1B78DB0013441F4AD35CF979B5
:10129000184A1278D2000A441C498A5CF879154928
:1012A0000978C90001441A48415CFC79114800786A
:1012B000C0002044174C205C0390029101920093DF
:1012C0007346624631462846FFF766FCFB790133D8
:1012D000FB71FB79072B7FF6B9AE002240210E4847
:1012E00002F0E1FD012208210B4802F0DCFD0022A2
:1012F000082113E0F4050020F4010020740200200E
:10130000F402002074030020F40300207404002081
:10131000F404002074050020000C0140294802F06C
:10132000C2FD294B1B78002B0AD1002280212548C1
:1013300002F0B9FD00222021224802F0B4FD2BE08A
:10134000214B1B78012B0AD1012280211D4802F07C
:10135000AAFD002220211B4802F0A5FD1CE01A4B2B
:101360001B78022B0AD100228021164802F09BFD37
:1013700001222021134802F096FD0DE0124B1B784C
:10138000032B09D1012280210E4802F08CFD01229D
:1013900020210C4802F087FD0B4B1B780133DAB299
:1013A000094B1A70084B1B78032B02D9064B0022FD
:1013B0001A7001224021034802F075FD00BF0C376E
:1013C000BD46F0BD000C0140F405002080B485B09E
:1013D00000AF0346FB800B46BB801346FB70FB88C7
:1013E000DB08FB81FB89DB009BB2FA88D31ABB8147
:1013F000BB881B097B817B891B019BB2BA88D31AEE
:101400003B81FB78012B40F0D9807B89002B17D1E1
:101410003B89DA00FB891344944AD35C5AB2BB89F6
:10142000C3F10703012101FA03F35BB2134359B27D
:101430003B89DA00FB891344C9B28C4AD154B5E127
:101440007B89012B17D13B89DA00FB891344884A39
:10145000D35C5AB2BB89C3F10703012101FA03F33C
:101460005BB2134359B23B89DA00FB891344C9B21A
:101470007F4AD1549AE17B89022B17D13B89DA004C
:10148000FB8913447B4AD35C5AB2BB89C3F107037F
:10149000012101FA03F35BB2134359B23B89DA002D
:1014A000FB891344C9B2734AD1547FE17B89032B72
:1014B00017D13B89DA00FB8913446F4AD35C5AB2D7
:1014C000BB89C3F10703012101FA03F35BB21343A4
:1014D00059B23B89DA00FB891344C9B2664AD15438
:1014E00064E17B89042B17D13B89DA00FB89134423
:1014F000624AD35C5AB2BB89C3F10703012101FAE6
:1015000003F35BB2134359B23B89DA00FB891344FE
:10151000C9B25A4AD15449E17B89052B17D13B897D
:10152000DA00FB891344564AD35C5AB2BB89C3F133
:101530000703012101FA03F35BB2134359B23B895C
:10154000DA00FB891344C9B24D4AD1542EE17B899C
:10155000062B17D13B89DA00FB891344494AD35C37
:101560005AB2BB89C3F10703012101FA03F35BB24D
:10157000134359B23B89DA00FB891344C9B2414A8B
:10158000D15413E17B89072B40F010813B89DA00AD
:10159000FB8913443C4AD35C5AB2BB89C3F10703AD
:1015A000012101FA03F35BB2134359B23B89DA001C
:1015B000FB891344C9B2344AD154F7E07B89002B2C
:1015C00019D13B89DA00FB891344284AD35C5AB20B
:1015D000BB89C3F10703012101FA03F35BB2DB43CB
:1015E0005BB2134059B23B89DA00FB891344C9B29C
:1015F0001E4AD154DAE07B89012B19D13B89DA00EC
:10160000FB8913441A4AD35C5AB2BB89C3F107035E
:10161000012101FA03F35BB2DB435BB2134059B221
:101620003B89DA00FB891344C9B2114AD154BDE0A9
:101630007B89022B2AD13B89DA00FB8913440D4AAE
:10164000D35C5AB2BB89C3F10703012101FA03F34A
:101650005BB2DB435BB2134059B23B89DA00FB89D2
:101660001344C9B2034AD154A0E000BFF4010020E2
:1016700074020020F402002074030020F403002010
:1016800074040020F4040020740500207B89032BDF
:1016900019D13B89DA00FB891344474AD35C5AB21B
:1016A000BB89C3F10703012101FA03F35BB2DB43FA
:1016B0005BB2134059B23B89DA00FB891344C9B2CB
:1016C0003D4AD15472E07B89042B19D13B89DA0061
:1016D000FB891344394AD35C5AB2BB89C3F107036F
:1016E000012101FA03F35BB2DB435BB2134059B251
:1016F0003B89DA00FB891344C9B2304AD15455E022
:101700007B89052B19D13B89DA00FB8913442C4ACC
:10171000D35C5AB2BB89C3F10703012101FA03F379
:101720005BB2DB435BB2134059B23B89DA00FB8901
:101730001344C9B2224AD15438E07B89062B19D10F
:101740003B89DA00FB8913441E4AD35C5AB2BB8939
:10175000C3F10703012101FA03F35BB2DB435BB280
:10176000134059B23B89DA00FB891344C9B2154AC8
:10177000D1541BE07B89072B18D13B89DA00FB8908
:101780001344114AD35C5AB2BB89C3F10703012148
:1017900001FA03F35BB2DB435BB2134059B23B89FE
:1017A000DA00FB891344C9B2074AD15400BF143789
:1017B000BD4680BC704700BF74030020F4030020C6
:1017C00074040020F40400207405002080B500AFEC
:1017D00001F004FE02461A4B1B68D31AB3F57A7F58
:1017E0001FD901F0FBFD0346154A1360154B1B681A
:1017F000B3F5E14F10D3134B00221A60124B1B6854
:1018000040F68D0293420CD80F4B1B6801330E4AF1
:10181000136000F067F804E00A4B1B680133094AC3
:101820001360094B1B6840F68D02934203D9074BA6
:1018300001221A7002E0054B00221A7000BF80BD21
:10184000C8060020CC060020940600208806002050
:1018500080B400AF1C4B1D4A1A601B4B1B681B68F1
:101860001B4A1360184B1B680433174A1360164B4E
:101870001B681B68174A1360134B1B680433124A1A
:101880001360114B1B681B68134A13600E4B1B68D7
:1018900004330D4A13600C4B1B681B680F4A13601E
:1018A000094B1B680433084A1360074B1B681B680D
:1018B0000B4A1360044B1B680433034A136000BFD8
:1018C000BD4680BC704700BFB006002000FC000889
:1018D000900600208C060020940600209806002028
:1018E0009C0600202DE9B04F84B000AF01F0B0FF9E
:1018F000354B00221A60344B344A9A60324B012235
:10190000DA603349304802F08BF8324B2F4A1A60C4
:10191000304B1968304B1B6800221C461546224686
:101920002B46022001F024FF2A4B1B680433294A6E
:101930001360284B1968294B1B680022BB60FA60B2
:10194000D7E90223022001F013FF224B1B68043366
:10195000204A13601F4B1968214B1B6800223B6013
:101960007A60D7E90023022001F002FF194B1B68BF
:101970000433184A1360174B19681A4B1B6800226E
:101980009A46934652465B46022001F0F1FE114B07
:101990001B6804330F4A13600E4B1968124B1B6807
:1019A00000229846914642464B46022001F0E0FE56
:1019B000084B1B680433074A136001F06FFF00BF38
:1019C0001037BD46BDE8B08FA006002000FC00081F
:1019D000B4060020B0060020900600208C060020EF
:1019E00094060020980600209C06002080B586B052
:1019F00000AFF860B9607A600023FB7501212748C9
:101A000002F03AFA0346002B1AD1254B1B78002B23
:101A100019D1234B01221A70224BC8221A800123AC
:101A2000FB75FB681B68BA689A4203D8FB68BA6802
:101A30001A6008E0FB681B685A1CFB681A6002E029
:101A4000174B00221A700221144802F015FA0346BF
:101A5000002B1AD1144B1B78002B19D1124B0122E9
:101A60001A70104BC8221A800123FB75FB681B6893
:101A70007A689A4203D3FB687A681A6008E0FB68C8
:101A80001B685A1EFB681A6002E0074B00221A709E
:101A9000FB7D18461837BD4680BD00BF000C0140D5
:101AA000BA060020C0060020BB06002080B584B026
:101AB00000AF78607B68002B03D14FF49653FB6036
:101AC00017E07B68012B03D14FF41653FB6010E045
:101AD0007B68022B03D14FF46153FB6009E07B6804
:101AE000032B03D14FF49643FB6002E04FF41653EF
:101AF000FB60134B134A1A60114AFB685360104B8A
:101B000000229A600E4B0022DA600D4B00221A610F
:101B10000B4B0C225A610A4B00229A61084B00229F
:101B2000DA61074803F0E6F90346002B01D000F024
:101B3000F5FEF86801F098F900BF1037BD4680BD8A
:101B4000400600200044004080B500AF01F046FC94
:101B500002464A4B1B68D31A962B40F28C80802198
:101B6000474802F089F90346002B33D1454B1B88C7
:101B7000132B03D9444B01221A8005E0414B1B88EB
:101B800001339AB23F4B1A80404B1B78002B27D170
:101B90003D4B1B88012B23D13C4B01221A703C4B3F
:101BA000C8221A803B4B1B78032B0AD9FFF7C0F9D8
:101BB000384B00221A70344B00221A80FFF792FE35
:101BC0000EE0FFF7B5F9334B1B780133DAB2314B36
:101BD0001A7005E02D4B00221A702A4B00221A8041
:101BE0002B4B1B88002B0CD12A4B1B78002B0ED0C3
:101BF000284B00221A70244B00221A80FFF772FE35
:101C000005E0234B1B88013B9AB2214B1A80214BE4
:101C10001B78012B05D1002202211F48FFF7E6FEA9
:101C200024E01C4B1B78022B05D1002202211B480B
:101C3000FFF7DCFE1AE0174B1B78032B0DD10022B7
:101C400003211748FFF7D2FE0346002B0ED0144B9A
:101C50001B681846FFF72AFF08E00E4B1B78042B81
:101C600004D10122FF210F48FFF7C0FE01F0B6FBAF
:101C70000346024A136000BF80BD00BFBC060020BF
:101C800000080140C2060020C4060020B90600205A
:101C9000C0060020B8060020900600208C06002018
:101CA000980600209C06002080B592B000AF00236B
:101CB000FB630023BB6300237B64002387F837307A
:101CC000002387F83630002387F84330002387F855
:101CD000423001F02BFB00F0CBFC00F089FD00F05E
:101CE0005DFD00F00BFDFFF7B3FDFFF76FFDFFF7A4
:101CF0008BF9A44B1B681846FFF7D8FE01F06EFB6A
:101D000002467B6CD31A642B40F2A1849E4B1B7855
:101D1000002B40F0D2839D4B1B68002B40F0AF811D
:101D20009B4BB3F900309BB27B82994BB3F90230E5
:101D30009BB23B82964BB3F904309BB2FB81944B30
:101D4000B3F906309BB2BB81914BB3F908309BB21B
:101D50007B818F4BB3F90A309BB23B818C4BB3F93B
:101D60000C309BB2FB808A4BB3F90E309BB2BB8028
:101D7000874BB3F910309BB27B80854BB3F912309F
:101D80009BB23B803B6983491846FEF7CBFE034676
:101D9000002B0BD03B691846FEF746FB02460B466C
:101DA00007F114007C4904F03DFC26E03B697B49C7
:101DB0001846FEF7B7FE0346002B0BD03B691846CA
:101DC000FEF732FB02460B4607F11400744904F09B
:101DD00029FC12E03B6973491846FEF7A3FE03464F
:101DE000002B0AD03B691846FEF71EFB02460B4645
:101DF00007F114006C4904F015FC07F114010023ED
:101E000000220020FFF7D6F80023342225210020ED
:101E1000FEF7BEFFFB685F491846FEF783FE0346E8
:101E2000002B0BD0FB681846FEF7FEFA02460B4665
:101E300007F11400584904F0F5FB26E0FB68574908
:101E40001846FEF76FFE0346002B0BD0FB681846C2
:101E5000FEF7EAFA02460B4607F11400504904F077
:101E6000E1FB12E0FB684F491846FEF75BFE0346B4
:101E7000002B0AD0FB681846FEF7D6FA02460B463E
:101E800007F11400484904F0CDFB07F114011023B9
:101E900000220020FFF78EF8102334222521002095
:101EA000FEF776FFBB683B491846FEF73BFE03464C
:101EB000002B0BD0BB681846FEF7B6FA02460B465D
:101EC00007F11400344904F0ADFB26E0BB68334948
:101ED0001846FEF727FE0346002B0BD0BB681846BA
:101EE000FEF7A2FA02460B4607F114002C4904F053
:101EF00099FB12E0BB682B491846FEF713FE034618
:101F0000002B0AD0BB681846FEF78EFA02460B4635
:101F100007F11400244904F085FB07F11401202384
:101F200000220020FFF746F820233422252100203C
:101F3000FEF72EFF7B6817491846FEF7F3FD0346B0
:101F4000002B0BD07B681846FEF76EFA02460B4654
:101F500007F11400104904F065FB3AE07B680F4973
:101F60001846FEF7DFFD0346002B1FD07B6818469E
:101F7000FEF75AFA02460B4607F11400084904F02E
:101F800051FB26E098060020B806002090060020AD
:101F90009C07002000002041D88800080000C842AB
:101FA000E488000800007A44EC8800087B68AF49A8
:101FB0001846FEF7B7FD0346002B0AD07B6818468B
:101FC000FEF732FA02460B4607F11400A84904F066
:101FD00029FB07F11401302300220020FEF7EAFF5D
:101FE0003023342225210020FEF7D2FE3B68A14990
:101FF0001846FEF797FD0346002B0BD03B681846AA
:10200000FEF712FA02460B4607F114009A4904F053
:1020100009FB26E03B6899491846FEF783FD034615
:10202000002B0BD03B681846FEF7FEF902460B4624
:1020300007F11400924904F0F5FA12E03B688B496D
:102040001846FEF76FFD0346002B0AD03B68184682
:10205000FEF7EAF902460B4607F11400844904F042
:10206000E1FA07F11401402300220020FEF7A2FF4D
:102070004023342225210020FEF78AFED2E1814B45
:10208000B3F900309BB27B827E4BB3F902309BB236
:102090003B827C4BB3F904309BB2FB81794BB3F9A3
:1020A00006309BB2BB81774BB3F908309BB27B8182
:1020B000744BB3F90A309BB23B81724BB3F90C30CD
:1020C0009BB2FB806F4BB3F90E309BB2BB806D4B64
:1020D000B3F910309BB27B806A4BB3F912309BB2DC
:1020E0003B803B6961491846FEF71CFD0346002B07
:1020F0000BD03B691846FEF797F902460B4607F1ED
:102100001400614904F08EFA32E03B695F491846D9
:10211000FEF708FD0346002B0BD03B691846FEF77F
:1021200083F902460B4607F11400594904F07AFA84
:102130001EE03B6957491846FEF7F4FC0346002BA6
:102140000BD03B691846FEF76FF902460B4607F1C4
:102150001400514904F066FA0AE03B691846FEF79C
:1021600063F902460B4607F114004C4904F05AFA91
:1021700007F11401002300220020FEF71BFFFB687B
:102180003A491846FEF7CEFC0346002B0BD0FB68FD
:102190001846FEF749F902460B4607F114003A4982
:1021A00004F040FA32E0FB6838491846FEF7BAFC02
:1021B0000346002B0BD0FB681846FEF735F90246A4
:1021C0000B4607F11400324904F02CFA1EE0FB68BC
:1021D00030491846FEF7A6FC0346002B0BD0FB68DF
:1021E0001846FEF721F902460B4607F114002A496A
:1021F00004F018FA0AE0FB681846FEF715F90246E3
:102200000B4607F11400254904F00CFA07F11401FC
:10221000102300220020FEF7CDFEBB6813491846AC
:10222000FEF780FC0346002B0BD0BB681846FEF778
:10223000FBF802460B4607F11400134904F0F2F9CB
:102240004DE0BB6811491846FEF76CFC0346002BB5
:1022500026D0BB681846FEF7E7F802460B4607F1A2
:1022600014000B4904F0DEF939E000BF00007A44A5
:10227000EC88000800002041D88800080000C8420F
:10228000E48800089C070020F488000800401C46F1
:10229000048900080050C3471489000824890008F5
:1022A000BB68B7491846FEF73DFC0346002B0BD030
:1022B000BB681846FEF7B8F802460B4607F1140053
:1022C000B04904F0AFF90AE0BB681846FEF7ACF875
:1022D00002460B4607F11400AB4904F0A3F907F1DD
:1022E0001401202300220020FEF764FE7B68A7492A
:1022F0001846FEF717FC0346002B0BD07B681846E8
:10230000FEF792F802460B4607F11400A04904F0CC
:1023100089F932E07B689F491846FEF703FC0346C3
:10232000002B0BD07B681846FEF77EF802460B4662
:1023300007F11400984904F075F91EE07B68904994
:102340001846FEF7EFFB0346002B0BD07B681846C0
:10235000FEF76AF802460B4607F11400894904F0BB
:1023600061F90AE07B681846FEF75EF802460B4604
:1023700007F11400844904F055F907F114013023E2
:1023800000220020FEF716FE3B6880491846FEF743
:10239000C9FB0346002B0BD03B681846FEF744F8F8
:1023A00002460B4607F11400794904F03BF932E08C
:1023B0003B6878491846FEF7B5FB0346002B0BD067
:1023C0003B681846FEF730F802460B4607F114004A
:1023D000714904F027F91EE03B6869491846FEF789
:1023E000A1FB0346002B0BD03B681846FEF71CF8F8
:1023F00002460B4607F11400624904F013F90AE0A3
:102400003B681846FEF710F802460B4607F1140029
:102410005D4904F007F907F1140140230022002070
:10242000FEF7C8FD5D4B1B78012B40F0E98097F863
:102430004330012B0ED9002387F8433097F8423000
:10244000002B03D1012387F8423008E0002387F8EE
:10245000423004E097F84330013387F8433097F86F
:102460004230002B14D1012200210020FEF7AEFFE4
:10247000012200210120FEF7A9FF012201210020F5
:10248000FEF7A4FF012201210120FEF79FFFB7E024
:10249000002200210020FEF799FF002200210120E8
:1024A000FEF794FF002201210020FEF78FFF00229B
:1024B00001210120FEF78AFFA2E0394B1B78012B96
:1024C0001CD107F114033749184604F0ABF807F1A3
:1024D0001401002300220020FEF76CFD324B1A6825
:1024E00007F114033149184604F09CF807F1140170
:1024F00010231E220020FEF75DFD81E0284B1B7893
:10250000022B1CD107F114032949184604F08AF85C
:1025100007F11401002300220020FEF74BFD254B9C
:102520001A6807F114032149184604F07BF807F1F3
:10253000140110231E220020FEF73CFD60E0184B22
:102540001B78032B3CD107F114031B49184604F0F8
:1025500069F807F11401002300220020FEF72AFD8C
:10256000164B1A6807F114031049184604F05AF87C
:1025700007F1140110231E220020FEF71BFD3FE08F
:102580000050C347148900082489000800007A44D9
:10259000F488000800401C46048900086A080020EE
:1025A000B806002034890008900600204089000801
:1025B000488900088C0600205489000898060020ED
:1025C000264B1B78042B1BD107F114032449184612
:1025D00004F028F807F11401002300220020FEF780
:1025E000E9FC204B1A6807F114031F49184604F050
:1025F00019F807F1140110231E220020FEF7DAFC5F
:10260000184B1B68DBB240F6B831184600F03EFCB0
:10261000164B1B78012B17D197F84330012B0ED99D
:10262000002387F8433097F84230002B03D1012371
:1026300087F8423008E0002387F8423004E097F83A
:102640004330013387F8433000F0C8FE7864FFF769
:10265000BDF8FFF779FAFFF751BB00BFB8060020BD
:102660005C8900089C060020408900086A08002058
:1026700080B590B000AF07F118032822002118465A
:1026800004F033F83B1D00221A605A609A60DA6049
:102690001A610123BB614FF48033FB6100233B626D
:1026A0000123BB6202237B634FF48033BB634FF48F
:1026B000E013FB6307F11803184601F00DFC034615
:1026C000002B01D000F02AF90F237B600223BB60AE
:1026D0000023FB604FF480633B6100237B613B1D63
:1026E0000221184601F07AFE0346002B01D000F0CB
:1026F00015F900BF4037BD4680BD000080B586B0EB
:1027000000AF07F1080300221A605A609A60DA608D
:102710003B4600221A605A601E4B1F4A1A601D4B2E
:1027200047225A601B4B00229A601A4B40F69F7258
:10273000DA60184B00221A61164B00225A61154BC1
:1027400000229A61134801F0D7FF0346002B01D005
:1027500000F0E4F84FF48053BB6007F1080319461A
:102760000C4802F073F90346002B01D000F0D6F8B4
:1027700000233B6000237B603B461946054802F07E
:1027800049FB0346002B01D000F0C8F800BF183702
:10279000BD4680BDF8050020002C014080B500AF8B
:1027A000114B124A1A60104B4FF4E1325A600E4B33
:1027B00000229A600C4B0022DA600B4B00221A6157
:1027C000094B0C225A61084B00229A61064B0022E9
:1027D000DA61054802F08EFB0346002B01D000F0C1
:1027E0009DF800BF80BD00BF4006002000440040AF
:1027F00080B588B000AF07F1100300221A605A605C
:102800009A60DA60424B9B69414A43F0200393612E
:102810003F4B9B6903F02003FB60FB683C4B9B69CB
:102820003B4A43F004039361394B9B6903F0040373
:10283000BB60BB68364B9B69354A43F00803936124
:10284000334B9B6903F008037B607B6800221321F4
:10285000304801F028FB00224FF6F8712E4801F0B5
:1028600022FB03233B6101237B610023BB61032324
:10287000FB6107F110031946264801F079F910238E
:102880003B6101237B610023BB610223FB6107F1F4
:10289000100319461F4801F06BF9E0233B61002348
:1028A0007B610023BB6107F110031946194801F051
:1028B0005FF903233B6100237B610023BB6107F1C8
:1028C00010031946144801F053F94FF440633B617B
:1028D00001237B610023BB610223FB6107F110032D
:1028E00019460D4801F044F94FF2F8333B610123DA
:1028F0007B610023BB610323FB6107F110031946D1
:10290000054801F035F900BF2037BD4680BD00BF46
:102910000010024000080140000C014080B400AFEC
:1029200072B600BFFEE7000080B485B000AF7860EB
:102930000B467B80FF23FB73FF23BB7313E07B6895
:102940005A1C7A601A78BB7B5340DBB2BB600F4ADB
:10295000BB6813441A78FB7B5340BB730C4ABB68BB
:1029600013441B78FB737B885A1E7A80002BE6D1B8
:10297000FB7B1B021AB2BB7B1BB213431BB29BB285
:1029800018461437BD4680BC704700BF549A0008F3
:10299000549B000880B485B000AFF8600B467A60A5
:1029A0007B817B891B0A9BB2DAB2FB681A70FB68D9
:1029B00001337A89D2B21A707B681B8802339AB2CB
:1029C0007B681A8000BF1437BD4680BC704780B456
:1029D00085B000AF78607B681B789BB21B02FB81DF
:1029E0007B6801331B789AB2FB891343FB81FB8917
:1029F00018461437BD4680BC7047000080B483B0D1
:102A000000AF0346FB710E4B1B7819460D4AFB794C
:102A100053540B4B1B78622B03D9094B00221A70BD
:102A200005E0074B1B780133DAB2054B1A70064BF1
:102A300000221A7000BF0C37BD4680BC704700BF33
:102A400099070020340700209B07002080B400AFC6
:102A50000F4B1B78092B11D90E4B1B78052B06D970
:102A60000D4B01221A700B4B1A780C4B1A70084B45
:102A700000221A70074B00221A7005E0044B1B78E5
:102A80000133DAB2024B1A7000BFBD4680BC7047FA
:102A90009B07002099070020980700209A07002034
:102AA00080B483B000AF0023FB7106E0FB79084AD5
:102AB0000021D154FB790133FB71FB79632BF5D9EC
:102AC000044B00221A7000BF0C37BD4680BC704713
:102AD000340700209A07002080B586B000AFB960A7
:102AE00011461A460346FB730B46BB811346FB8017
:102AF00003237B8201221021294801F0D4F9294ABD
:102B0000FB7B1370274B03225A707B8ADAB2254B6A
:102B10009A700023FB8212E07B8A1A46214BD01860
:102B2000BA89FB8A13445B00BA6813441B8807F117
:102B300012021946FFF72EFFFB8A0133FB82FA8A45
:102B4000FB889A42E8D37B8ADBB2033BDAB2154BAF
:102B50009A707B8A19461348FFF7E6FE0346BB824C
:102B60007B8A1A46BB8AD9B20E4B9954BB8A1B0A80
:102B70009AB27B8A0133D1B20A4AD1547B8A02339A
:102B80009AB24FF47A730749074802F003FA002219
:102B90001021034801F087F900BF1837BD4680BDFA
:102BA00000080140D00600204006002080B586B015
:102BB00000AFB96011461A460346FB730B46BB8152
:102BC0001346FB800223BB8201221021264801F01C
:102BD0006AF9BB895B00BA681344FA881A80234AF1
:102BE000FB7B1370214B06225A70BB8A1A461F4B7F
:102BF000134407F11402B9891846FFF7CBFEBB8ACC
:102C00001A461A4BD018BB895B00BA6813441B885C
:102C100007F114021946FFF7BDFEBB8A1946134897
:102C2000FFF782FE0346FB82BB8A1A46FB8AD9B2B3
:102C30000E4B9954FB8A1B0A9AB2BB8A0133D1B25C
:102C40000A4AD154BB8A02339AB24FF47A730749C5
:102C5000074802F09FF900221021034801F023F9F0
:102C600000BF1837BD4680BD00080140D0060020D7
:102C70004006002090B587B000AFB96011461A46F3
:102C80000346FB730B46BB811346FB8002237B820A
:102C9000012210212E4801F006F90023FB8212E0E8
:102CA000FB8A5B001A46BB6A9918BA89FB8A1344EF
:102CB0005B00BA68D4180846FFF789FE03462380F4
:102CC000FB8A0133FB82FA8AFB889A42E8D3214AC5
:102CD000FB7B13701F4B10225A707B8A1A461D4BC8
:102CE000134407F11202B9891846FFF753FE7B8A95
:102CF0001A46184B134407F11202F9881846FFF7D9
:102D000049FE7B8A19461348FFF70EFE0346BB8235
:102D10007B8A1A46BB8AD9B20E4B9954BB8A1B0ACE
:102D20009AB27B8A0133D1B20A4AD1547B8A0233E8
:102D30009AB24FF47A730749074802F02BF9002240
:102D40001021034801F0AFF800BF1C37BD4690BD0D
:102D500000080140D00600204006002090B587B052
:102D600002AF0346FB710023FB732A4B1B78012B38
:102D70004AD1284B00221A70274B1B78FA799A42C5
:102D80003BD1254B5B78032B0ED12448FFF71FFE68
:102D900003461C462248FFF71AFE0346F8792246EE
:102DA0002049FFF799FE28E01B4B5B78062B0ED1DC
:102DB0001A48FFF70CFE03461C461948FFF707FEAA
:102DC0000346F87922461749FFF7F0FE15E0124B4B
:102DD0005B78102B11D11148FFF7F9FD03461C4613
:102DE0000F48FFF7F4FD03461A46F8790E4B00939F
:102DF000134622460B49FFF73DFF0C4B00221A7089
:102E0000FFF74EFE0123FB73FB7B18461437BD46CC
:102E100090BD00BF9807002034070020360700202F
:102E2000380700209C0700203B070020990700205E
:102E300080B582B000AF78607B681A68084B1B6869
:102E40009A4209D1074B1B781846FFF7D7FD01229C
:102E50000449034802F021F900BF0837BD4680BD90
:102E6000400600206B08002080B582B000AF78607B
:102E700001220449044802F010F900BF0837BD469A
:102E800080BD00BF6B0800204006002080B582B0E6
:102E900000AF03463960FB7100F0A0FA02461B4BFD
:102EA0001B68D31A3A689A421FD200F097FA034679
:102EB000164A1360164B1B880A2B09D9144B0022A3
:102EC0001A80144B01221A700020FFF7CDFF0CE08E
:102ED0000F4B1B8801339AB20D4B1A800D4B1B7898
:102EE000012B02D10020FFF7BFFFFB791846FFF747
:102EF00035FF0346002B05D0054B00221A80054BF9
:102F000000221A7000BF0837BD4680BD640800204B
:102F1000680800206A08002080B485B000AF154B17
:102F20009B69144A43F001039361124B9B6903F0C0
:102F30000103BB60BB680F4BDB690E4A43F0805353
:102F4000D3610C4BDB6903F080537B607B680A4BD9
:102F50005B68FB60FB6823F0E063FB60FB6843F0A9
:102F60000073FB60044AFB68536000BF1437BD4622
:102F700080BC7047001002400000014080B584B062
:102F800000AF78607B681B68194A93422BD1194BBC
:102F90009B69184A43F400639361164B9B6903F4E1
:102FA0000063FB60FB6800220721182000F0F7FA9D
:102FB000182000F010FB00220721192000F0EFFA82
:102FC000192000F008FB002207211A2000F0E7FA80
:102FD0001A2000F000FB002207211B2000F0DFFA7E
:102FE0001B2000F0F8FA00BF1037BD4680BD00BFBF
:102FF000002C01400010024080B588B000AF78601E
:1030000007F1100300221A605A609A60DA607B6848
:103010001B681F4A934237D11E4BDB691D4A43F49C
:103020000033D3611B4BDB6903F40033FB60FB68A7
:10303000184B9B69174A43F004039361154B9B6936
:1030400003F00403BB60BB6804233B6102237B6184
:103050000323FB6107F1100319460F4800F088FDB8
:1030600008233B6100237B610023BB6107F1100350
:103070001946094800F07CFD00220021262000F0BE
:103080008EFA262000F0A7FA00BF2037BD4680BD8B
:1030900000440040001002400008014080B400AF2E
:1030A000FEE780B400AFFEE780B400AFFEE780B477
:1030B00000AFFEE780B400AFFEE780B400AF00BF12
:1030C000BD4680BC704780B400AF00BFBD4680BC29
:1030D000704780B400AF00BFBD4680BC704780B56C
:1030E00000AF00F069F9FFF7B1FC00BF80BD000040
:1030F00080B500AF024801F0A1FB00BF80BD00BF5A
:10310000F805002080B500AF024801F097FB00BF32
:1031100080BD00BFF805002080B500AF024801F077
:103120008DFB00BF80BD00BFF805002080B500AF5B
:10313000024801F083FB00BF80BD00BFF8050020FE
:1031400080B500AF024801F0CDFF00BF80BD00BFD9
:103150004006002080B400AF01231846BD4680BC65
:10316000704780B582B000AF7860396003F010FB23
:10317000034616221A604FF0FF3318460837BD4643
:1031800080BD80B582B000AF78604FF0FF317868C5
:10319000FFF7E7FFFEE780B586B000AFF860B960E3
:1031A0007A6000237B610AE0AFF300800146BB68D0
:1031B0005A1CBA60CAB21A707B6901337B617A69A2
:1031C0007B689A42F0DB7B6818461837BD4680BDA5
:1031D00080B586B000AFF860B9607A6000237B618B
:1031E00009E0BB685A1CBA601B781846AFF3008030
:1031F0007B6901337B617A697B689A42F1DB7B688A
:1032000018461837BD4680BD80B483B000AF7860E3
:103210004FF0FF3318460C37BD4680BC704780B472
:1032200083B000AF786039603B684FF400525A6059
:10323000002318460C37BD4680BC704780B483B06D
:1032400000AF7860012318460C37BD4680BC70473C
:1032500080B485B000AFF860B9607A60002318468A
:103260001437BD4680BC704780B586B000AF78602B
:10327000144A154BD31A7B617B693B61134B1B6866
:10328000002B02D1114B124A1A60104B1A687B684E
:1032900013443A699A4207D203F07AFA03460C22A1
:1032A0001A604FF0FF3309E0084B1B68FB60074BC7
:1032B0001A687B681344054A1360FB681846183780
:1032C000BD4680BD00500020000400006C080020B6
:1032D000E809002080B400AF00BFBD4680BC704745
:1032E000FFF7F8FF0B480C490C4A002302E0D458C2
:1032F000C4500433C4188C42F9D3094A094C002342
:1033000001E013600432A242FBD303F047FAFEF758
:10331000CBFC704700000020D4010020F49F00087F
:10332000D8010020E4090020FEE7000080B500AFCE
:10333000084B1B68074A43F010031360032000F09A
:1033400023F90F2000F008F8FFF7E6FD00231846E8
:1033500080BD00BF0020024080B582B000AF786021
:10336000124B1A68124B1B7819464FF47A73B3FB51
:10337000F1F3B2FBF3F3184600F03BF90346002BE0
:1033800001D001230EE07B680F2B0AD80022796858
:103390004FF0FF3000F003F9064A7B68136000230A
:1033A00000E0012318460837BD4680BD000000201C
:1033B000080000200400002080B400AF054B1B78FB
:1033C0001A46054B1B681344034A136000BFBD46F1
:1033D00080BC7047080000207008002080B400AF57
:1033E000024B1B681846BD4680BC70477008002021
:1033F00080B485B000AF78607B6803F00703FB60A2
:103400000C4BDB68BB60BA684FF6FF031340BB6030
:10341000FB681A02BB68134343F0BF6343F40033F5
:10342000BB60044ABB68D36000BF1437BD4680BC94
:10343000704700BF00ED00E080B400AF044BDB68D4
:103440001B0A03F007031846BD4680BC704700BF47
:1034500000ED00E080B483B000AF0346FB7197F944
:103460000730002B0BDBFB7903F01F02064997F9AD
:1034700007305B09012000FA02F241F8232000BF67
:103480000C37BD4680BC704700E100E080B483B0DB
:1034900000AF03463960FB7197F90730002B0ADB58
:1034A0003B68DAB20C4997F907301201D2B20B44EB
:1034B00083F800230AE03B68DAB20849FB7903F09D
:1034C0000F03043B1201D2B20B441A7600BF0C3733
:1034D000BD4680BC704700BF00E100E000ED00E0A9
:1034E00080B489B000AFF860B9607A60FB6803F01F
:1034F0000703FB61FB69C3F10703042B28BF042307
:10350000BB61FB690433062B02D9FB69033B00E076
:1035100000237B614FF0FF32BB6902FA03F3DA4309
:10352000BB681A407B699A404FF0FF317B6901FA12
:1035300003F3D9437B680B40134318462437BD4639
:1035400080BC704780B582B000AF78607B68013B7B
:10355000B3F1807F01D301230FE00A4A7B68013B6E
:1035600053600F214FF0FF30FFF790FF054B002213
:103570009A60044B07221A60002318460837BD469C
:1035800080BD00BF10E000E080B582B000AF786081
:103590007868FFF72DFF00BF0837BD4680BD80B5B6
:1035A00086B000AF0346B9607A60FB7300237B618D
:1035B000FFF742FF78617A68B9687869FFF790FF92
:1035C000024697F90F3011461846FFF75FFF00BF1C
:1035D0001837BD4680BD80B582B000AF0346FB7191
:1035E00097F907301846FFF735FF00BF0837BD468B
:1035F00080BD80B582B000AF78607868FFF7A2FF29
:10360000034618460837BD4680BD80B485B000AF7C
:1036100078600023FB737B6893F82130DBB2022BC8
:1036200008D07B6804229A637B68002283F82020FC
:10363000012320E07B681B681A687B681B6822F006
:103640000E021A607B681B681A687B681B6822F090
:1036500001021A607B681A6C7B68DB6B012101FA3E
:1036600002F25A607B68012283F821207B680022E5
:1036700083F82020FB7B18461437BD4680BC70477A
:1036800080B584B000AF78600023FB737B6893F84B
:103690002130DBB2022B05D07B6804229A63012320
:1036A000FB7351E07B681B681A687B681B6822F01B
:1036B0000E021A607B681B681A687B681B6822F020
:1036C00001021A607B681B68224A934229D07B68FA
:1036D0001B68214A934222D07B681B681F4A934291
:1036E0001AD07B681B681E4A934212D07B681B6805
:1036F0001C4A93420AD07B681B681B4A934202D142
:103700004FF480130EE04FF080730BE04FF48033E2
:1037100008E04FF4805305E04FF4807302E010237B
:1037200000E00123114A53607B68012283F82120C5
:103730007B68002283F820207B685B6B002B03D022
:103740007B685B6B78689847FB7B18461037BD46F3
:1037500080BD00BF080002401C0002403000024053
:1037600044000240580002406C0002400000024049
:10377000F0B587B000AFF860B960C7E90023012356
:10378000FB750023BB7500237B752F4B1B7E012B24
:1037900001D1022354E02C4B01221A764CF2503016
:1037A00000F0A8F80346FB75FB7D002B44D1FB68B5
:1037B000012B02D101237B7507E0FB68022B02D1AC
:1037C00002237B7501E004237B750023BB752DE08C
:1037D000BB7D5A00BB6802EB030CBB7D1901D7E926
:1037E0000023C1F12006A1F1200022FA01F403FA1E
:1037F00006F6344323FA00F0044323FA01F5A3B29A
:103800001946604600F05AF84CF2503000F072F859
:103810000346FB750D4B1B690C4A23F00103136132
:10382000FB7D002B07D1BB7D0133BB75BA7D7B7D52
:103830009A42CDD300E000BF034B00221A76FB7DF5
:1038400018461C37BD46F0BD780800200020024015
:1038500080B483B000AF0023FB710D4B1B6903F0F4
:103860008003002B0DD00A4B0A4A5A60084B0A4AC3
:103870005A60074B1B6903F08003002B01D0012322
:10388000FB71FB7918460C37BD4680BC704700BF02
:103890000020024023016745AB89EFCD80B400AF23
:1038A000054B1B69044A43F080031361002318464B
:1038B000BD4680BC704700BF0020024080B483B08A
:1038C00000AF78600B467B80084B0022DA61084B22
:1038D0001B69074A43F0010313617B687A881A80E9
:1038E00000BF0C37BD4680BC704700BF7808002081
:1038F0000020024080B584B000AF7860FFF76EFD15
:10390000F86010E07B68B3F1FF3F0CD07B68002BC0
:1039100007D0FFF763FD0246FB68D31A7A689A4224
:1039200001D2032325E0154BDB6803F00103002BD4
:10393000E8D1124BDB6803F02003002B02D00F4BC1
:103940002022DA600D4BDB6803F01003002B0BD153
:103950000A4BDB6903F00103002B05D1074BDB6841
:1039600003F00403002B03D000F00AF8012300E069
:10397000002318461037BD4680BD00BF002002401E
:1039800080B483B000AF00237B60234BDB6803F07F
:103990001003002B09D0214BDB6943F002031F4ABF
:1039A000D3617B6843F010037B601B4BDB6803F043
:1039B0000403002B09D0194BDB6943F00103174ABC
:1039C000D3617B6843F004037B60134BDB6903F036
:1039D0000103002B0BD0114BDB6943F004030F4AAA
:1039E000D3610D4BDB690C4A23F00103D3617B6883
:1039F00040F20112934206D1074BDB69064A23F0DD
:103A00000103D36102E0044A7B68D36000BF0C3736
:103A1000BD4680BC704700BF0020024078080020EF
:103A200080B584B000AF786039600123FB73002358
:103A3000BB602F4B1B7E012B01D1022353E02C4B8B
:103A400001221A767B681B68022B16D14CF250308B
:103A5000FFF750FF0346002B41D1012000F04CF846
:103A60004CF25030FFF746FF0346FB73214B1B69B6
:103A7000204A23F00403136131E04CF25030FFF789
:103A800039FF0346002B2AD13B684FF0FF321A6002
:103A90007B689B68BB6019E0B86800F049F84CF29D
:103AA0005030FFF727FF0346FB73124B1B69114A87
:103AB00023F002031361FB7B002B03D03B68BA6841
:103AC0001A600CE0BB6803F58063BB607B68DB6851
:103AD0009A027B689B681344BA689A42DCD3044B11
:103AE00000221A76FB7B18461037BD4680BD00BF0A
:103AF000780800200020024080B483B000AF7860D6
:103B0000094B0022DA61094B1B69084A43F00403A0
:103B10001361064B1B69054A43F04003136100BF64
:103B20000C37BD4680BC704778080020002002405A
:103B300080B483B000AF78600B4B0022DA610B4B8E
:103B40001B690A4A43F002031361084A7B68536108
:103B5000064B1B69054A43F04003136100BF0C3755
:103B6000BD4680BC704700BF78080020002002409E
:103B700080B48BB000AF7860396000237B62002393
:103B80003B6269E101227B6A02FA03F3FB613B6855
:103B90001B68FA691340BB61BA69FB699A4240F03D
:103BA00058813B685B689A4A93425ED0984A934238
:103BB00075D8984A934258D0964A93426FD8964AFD
:103BC000934252D0944A934269D8944A93424CD03B
:103BD000924A934263D8924A934246D0904A934283
:103BE0005DD8122B2AD8122B59D801A252F823F0F3
:103BF0006B3C0008453C0008573C0008993C000815
:103C00009F3C00089F3C00089F3C00089F3C000828
:103C10009F3C00089F3C00089F3C00089F3C000818
:103C20009F3C00089F3C00089F3C00089F3C000808
:103C30009F3C00084D3C0008613C0008794A9342D3
:103C400013D02CE03B68DB683B6229E03B68DB6813
:103C500004333B6224E03B68DB6808333B621FE0CF
:103C60003B68DB680C333B621AE03B689B68002BC7
:103C700002D104233B6213E03B689B68012B05D112
:103C800008233B627B68FA691A6109E008233B62FA
:103C90007B68FA695A6103E000233B6200E000BFE1
:103CA000BB69FF2B01D87B6801E07B6804337B6133
:103CB000BB69FF2B02D87B6A9B0002E07B6A083B52
:103CC0009B003B617B691A680F213B6901FA03F392
:103CD000DB431A40396A3B6901FA03F31A437B69F3
:103CE0001A603B685B6803F08053002B00F0B180E2
:103CF0004D4B9B694C4A43F0010393614A4B9B69CE
:103D000003F00103BB60BB68484A7B6A9B0802332F
:103D100052F82330FB607B6A03F003039B000F2201
:103D200002FA03F3DB43FA681340FB607B68404A06
:103D3000934213D07B683F4A93420DD07B683E4A42
:103D4000934207D07B683D4A934201D1032306E0AA
:103D5000042304E0022302E0012300E000237A6A46
:103D600002F0030292009340FA681343FB602F496C
:103D70007B6A9B080233FA6841F823203B685B6842
:103D800003F48013002B06D02D4B9A682C49BB6995
:103D900013438B6006E02A4B9A68BB69DB432849D2
:103DA00013408B603B685B6803F40013002B06D064
:103DB000234BDA682249BB691343CB6006E0204BF2
:103DC000DA68BB69DB431E491340CB603B685B6824
:103DD00003F40033002B06D0194B5A681849BB690D
:103DE00013434B6006E0164B5A68BB69DB4314492A
:103DF00013404B603B685B6803F48033002B21D099
:103E00000F4B1A680E49BB6913430B6021E000BFDA
:103E100000003210000031100000221000002110BC
:103E200000001210000011100010024000000140BC
:103E300000080140000C0140001001400014014046
:103E4000000401400B4B1A68BB69DB43094913406E
:103E50000B607B6A01337B623B681A687B6A22FADB
:103E600003F3002B7FF48EAE00BF00BF2C37BD469E
:103E700080BC70470004014080B485B000AF78601A
:103E80000B467B807B689A687B881340002B02D0AE
:103E90000123FB7301E00023FB73FB7B18461437FF
:103EA000BD4680BC704780B483B000AF78600B46DD
:103EB0007B8013467B707B78002B03D07A887B68ED
:103EC0001A6103E07B881A047B681A6100BF0C3713
:103ED000BD4680BC7047000080B586B000AF7860FA
:103EE0007B68002B01D1012372E27B681B6803F021
:103EF0000103002B00F08780924B5B6803F00C03FA
:103F0000042B0CD08F4B5B6803F00C03082B12D1F1
:103F10008C4B5B6803F48033B3F5803F0BD1894B46
:103F20001B6803F40033002B6CD07B685B68002BAC
:103F300068D101234CE27B685B68B3F5803F06D112
:103F4000804B1B687F4A43F4803313602EE07B680C
:103F50005B68002B0CD17B4B1B687A4A23F48033BF
:103F60001360784B1B68774A23F4802313601DE0AD
:103F70007B685B68B3F5A02F0CD1724B1B68714A4C
:103F800043F4802313606F4B1B686E4A43F4803305
:103F900013600BE06B4B1B686A4A23F48033136099
:103FA000684B1B68674A23F4802313607B685B6857
:103FB000002B13D0FFF712FA386108E0FFF70EFA72
:103FC00002463B69D31A642B01D9032300E25D4BFF
:103FD0001B6803F40033002BF0D014E0FFF7FEF968
:103FE000386108E0FFF7FAF902463B69D31A642BFF
:103FF00001D90323ECE1534B1B6803F40033002B7E
:10400000F0D100E000BF7B681B6803F00203002BC7
:1040100063D04C4B5B6803F00C03002B0BD0494B77
:104020005B6803F00C03082B1CD1464B5B6803F460
:104030008033002B16D1434B1B6803F00203002B87
:1040400005D07B681B69012B01D00123C0E13D4BEA
:104050001B6823F0F8027B685B69DB003949134376
:104060000B603AE07B681B69002B20D0364B0122A5
:104070001A60FFF7B3F9386108E0FFF7AFF90246BD
:104080003B69D31A022B01D90323A1E12D4B1B68F5
:1040900003F00203002BF0D02A4B1B6823F0F80238
:1040A0007B685B69DB00274913430B6015E0264BF7
:1040B00000221A60FFF792F9386108E0FFF78EF9E5
:1040C00002463B69D31A022B01D9032380E11D4B21
:1040D0001B6803F00203002BF0D17B681B6803F020
:1040E0000803002B3AD07B689B69002B19D0174B33
:1040F00001221A60FFF772F9386108E0FFF76EF9E4
:1041000002463B69D31A022B01D9032360E10D4B10
:104110005B6A03F00203002BF0D0012000F0CEFA1E
:104120001CE00A4B00221A60FFF758F938610FE0D3
:10413000FFF754F902463B69D31A022B08D903232F
:1041400046E100BF001002400000424280044242AB
:10415000924B5B6A03F00203002BE9D17B681B687A
:1041600003F00403002B00F0A6800023FB758B4BAB
:10417000DB6903F08053002B0DD1884BDB69874A44
:1041800043F08053D361854BDB6903F08053BB6000
:10419000BB680123FB75824B1B6803F48073002B03
:1041A00018D17F4B1B687E4A43F480731360FFF77E
:1041B00015F9386108E0FFF711F902463B69D31A97
:1041C000642B01D9032303E1754B1B6803F480734F
:1041D000002BF0D07B68DB68012B06D16F4B1B6A8C
:1041E0006E4A43F0010313622DE07B68DB68002B0D
:1041F0000CD16A4B1B6A694A23F001031362674BB7
:104200001B6A664A23F0040313621CE07B68DB68C8
:10421000052B0CD1614B1B6A604A43F00403136207
:104220005E4B1B6A5D4A43F0010313620BE05B4B7C
:104230001B6A5A4A23F001031362584B1B6A574A00
:1042400023F0040313627B68DB68002B15D0FFF7B3
:10425000C5F838610AE0FFF7C1F802463B69D31A96
:1042600041F28832934201D90323B1E04B4B1B6AE0
:1042700003F00203002BEED014E0FFF7AFF8386133
:104280000AE0FFF7ABF802463B69D31A41F28832E5
:10429000934201D903239BE0404B1B6A03F00203C6
:1042A000002BEED1FB7D012B05D13C4BDB693B4A5A
:1042B00023F08053D3617B68DB69002B00F087809B
:1042C000364B5B6803F00C03082B61D07B68DB691D
:1042D000022B46D1334B00221A60FFF77FF838617A
:1042E00008E0FFF77BF802463B69D31A022B01D99D
:1042F00003236DE0294B1B6803F00073002BF0D102
:104300007B681B6AB3F5803F08D1244B5B6823F4BC
:1043100000327B689B68214913434B601F4B5B68ED
:1043200023F474127B68196A7B685B6A0B431B4930
:1043300013434B601B4B01221A60FFF74FF83861A3
:1043400008E0FFF74BF802463B69D31A022B01D96C
:1043500003233DE0114B1B6803F00073002BF0D0EA
:1043600035E0104B00221A60FFF738F8386108E09A
:10437000FFF734F802463B69D31A022B01D9032315
:1043800026E0064B1B6803F00073002BF0D11EE003
:104390007B68DB69012B07D1012319E00010024083
:1043A00000700040600042420B4B5B68FB60FB68A2
:1043B00003F480327B681B6A9A4206D1FB6803F4DF
:1043C00070127B685B6A9A4201D0012300E00023EF
:1043D00018461837BD4680BD0010024080B584B035
:1043E00000AF786039607B68002B01D10123D0E0F9
:1043F0006A4B1B6803F007033A689A4210D9674B6F
:104400001B6823F0070265493B6813430B60634B4D
:104410001B6803F007033A689A4201D00123B8E011
:104420007B681B6803F00203002B20D07B681B68AD
:1044300003F00403002B05D0594B5B68584A43F442
:10444000E06353607B681B6803F00803002B05D012
:10445000534B5B68524A43F460535360504B5B6864
:1044600023F0F0027B689B684D4913434B607B68E7
:104470001B6803F00103002B40D07B685B68012BB5
:1044800007D1474B1B6803F40033002B15D10123E0
:104490007FE07B685B68022B07D1414B1B6803F010
:1044A0000073002B09D1012373E03D4B1B6803F01F
:1044B0000203002B01D101236BE0394B5B6823F031
:1044C00003027B685B68364913434B60FEF786FF47
:1044D000F8600AE0FEF782FF0246FB68D31A41F259
:1044E0008832934201D9032353E02D4B5B6803F0DC
:1044F0000C027B685B689B009A42EBD1274B1B68E0
:1045000003F007033A689A4210D2244B1B6823F049
:10451000070222493B6813430B60204B1B6803F0E2
:1045200007033A689A4201D0012332E07B681B6896
:1045300003F00403002B08D0194B5B6823F4E062FE
:104540007B68DB68164913434B607B681B6803F08C
:104550000803002B09D0124B5B6823F460527B6880
:104560001B69DB000E4913434B6000F021F8024643
:104570000B4B5B681B0903F00F030A49CB5C22FA63
:1045800003F3094A1360094B1B681846FEF7E4FE63
:10459000002318461037BD4680BD00BF00200240F2
:1045A00000100240549C000800000020040000207D
:1045B00080B487B000AF0023FB600023BB60002302
:1045C0007B6100237B6000233B611E4B5B68FB60CB
:1045D000FB6803F00C03042B02D0082B03D027E068
:1045E000194B3B6127E0FB689B0C03F00F03174A54
:1045F000D35C7B60FB6803F48033002B10D0114B3D
:104600005B685B0C03F00103114AD35CBB607B6801
:104610000D4A03FB02F2BB68B2FBF3F37B6104E0DB
:104620007B680C4A02FB03F37B617B693B6102E020
:10463000054B3B6100BF3B6918461C37BD4680BC3B
:10464000704700BF0010024000127A006C9C000806
:104650007C9C000800093D0080B400AF024B1B6841
:104660001846BD4680BC70470000002080B500AFF2
:10467000FFF7F2FF0246054B5B681B0A03F00703D6
:104680000349CB5C22FA03F3184680BD00100240B8
:10469000649C000880B500AFFFF7DEFF0246054BC3
:1046A0005B68DB0A03F007030349CB5C22FA03F3E0
:1046B000184680BD00100240649C000880B485B09C
:1046C00000AF78600A4B1B680A4AA2FB03235B0A0F
:1046D0007A6802FB03F3FB6000BFFB685A1EFA60B6
:1046E000002BF9D100BF00BF1437BD4680BC704716
:1046F00000000020D34D621080B582B000AF78601A
:104700007B68002B01D1012341E07B6893F83D30A9
:10471000DBB2002B06D17B68002283F83C2078684E
:10472000FEF72CFC7B68022283F83D207B681A6828
:104730007B6804331946104600F074FA7B68012246
:1047400083F846207B68012283F83E207B680122A3
:1047500083F83F207B68012283F840207B68012298
:1047600083F841207B68012283F842207B68012284
:1047700083F843207B68012283F844207B68012270
:1047800083F845207B68012283F83D2000231846EA
:104790000837BD4680BD000080B485B000AF7860AA
:1047A0007B6893F83D30DBB2012B01D001233AE066
:1047B0007B68022283F83D207B681B68DA687B688F
:1047C0001B6842F00102DA607B681B68184A93425A
:1047D0000ED07B681B68B3F1804F09D07B681B68E3
:1047E000144A934204D07B681B68134A934211D148
:1047F0007B681B689B6803F00703FB60FB68062B64
:1048000010D07B681B681A687B681B6842F0010245
:104810001A6007E07B681B681A687B681B6842F0B7
:1048200001021A60002318461437BD4680BC704749
:10483000002C0140000400400008004080B582B018
:1048400000AF78607B681B681B6903F00203022BD2
:1048500022D17B681B68DB6803F00203022B1BD1AB
:104860007B681B686FF002021A617B6801221A776D
:104870007B681B689B6903F00303002B03D07868F7
:1048800000F0B4F905E0786800F0A7F9786800F066
:10489000B6F97B6800221A777B681B681B6903F0F6
:1048A0000403042B22D17B681B68DB6803F004033C
:1048B000042B1BD17B681B686FF004021A617B68B4
:1048C00002221A777B681B689B6903F44073002BF4
:1048D00003D0786800F08AF905E0786800F07DF987
:1048E000786800F08CF97B6800221A777B681B6877
:1048F0001B6903F00803082B22D17B681B68DB6867
:1049000003F00803082B1BD17B681B686FF00802BB
:104910001A617B6804221A777B681B68DB6903F0E5
:104920000303002B03D0786800F060F905E0786895
:1049300000F053F9786800F062F97B6800221A777A
:104940007B681B681B6903F01003102B22D17B6866
:104950001B68DB6803F01003102B1BD17B681B68FE
:104960006FF010021A617B6808221A777B681B6857
:10497000DB6903F44073002B03D0786800F036F94C
:1049800005E0786800F029F9786800F038F97B686C
:1049900000221A777B681B681B6903F00103012B57
:1049A0000ED17B681B68DB6803F00103012B07D184
:1049B0007B681B686FF001021A617868FCF7DAF80F
:1049C0007B681B681B6903F08003802B0ED17B681A
:1049D0001B68DB6803F08003802B07D17B681B68B2
:1049E0006FF080021A61786800F07BFA7B681B68C0
:1049F0001B6903F04003402B0ED17B681B68DB680A
:104A000003F04003402B07D17B681B686FF0400226
:104A10001A61786800F0FCF87B681B681B6903F07A
:104A20002003202B0ED17B681B68DB6803F020037A
:104A3000202B07D17B681B686FF020021A61786811
:104A400000F046FA00BF0837BD4680BD80B584B08F
:104A500000AF786039600023FB737B6893F83C30CB
:104A6000012B01D10223B4E07B68012283F83C20B2
:104A70007B68022283F83D207B681B689B68BB60D3
:104A8000BB6823F07703BB60BB6823F47F43BB6044
:104A90007B681B68BA689A603B681B68B3F5005F67
:104AA0003ED0B3F5005F00F28780B3F5805F00F081
:104AB0008680B3F5805F7FD8702B1AD0702B7BD89F
:104AC000602B50D0602B77D8502B3CD0502B73D814
:104AD000402B58D0402B6FD8302B64D0302B6BD864
:104AE000202B60D0202B67D8002B5CD0102B5AD005
:104AF00062E07B6818683B6899683B685A683B6865
:104B0000DB6800F068F97B681B689B68BB60BB686A
:104B100043F07703BB607B681B68BA689A604FE01C
:104B20007B6818683B6899683B685A683B68DB6833
:104B300000F051F97B681B689A687B681B6842F437
:104B400080429A603CE07B6818683B6859683B6823
:104B5000DB681A4600F0C8F87B681B6850211846CD
:104B600000F01FF92CE07B6818683B6859683B68C7
:104B7000DB681A4600F0E6F87B681B68602118467F
:104B800000F00FF91CE07B6818683B6859683B68C7
:104B9000DB681A4600F0A8F87B681B6840211846BD
:104BA00000F0FFF80CE07B681A683B681B68194648
:104BB000104600F0F6F803E00123FB7300E000BFAD
:104BC0007B68012283F83D207B68002283F83C202B
:104BD000FB7B18461037BD4680BD80B483B000AF64
:104BE000786000BF0C37BD4680BC704780B483B08E
:104BF00000AF786000BF0C37BD4680BC704780B402
:104C000083B000AF786000BF0C37BD4680BC7047F2
:104C100080B483B000AF786000BF0C37BD4680BC65
:104C20007047000080B485B000AF786039607B6861
:104C30001B68FB607B68294A93420BD07B68B3F109
:104C4000804F07D07B68264A934203D07B68254A71
:104C5000934208D1FB6823F07003FB603B685B68FC
:104C6000FA681343FB607B681C4A93420BD07B6855
:104C7000B3F1804F07D07B68194A934203D07B6819
:104C8000184A934208D1FB6823F44073FB603B68E9
:104C9000DB68FA681343FB60FB6823F080023B6823
:104CA0005B691343FB607B68FA681A603B689A682B
:104CB0007B68DA623B681A687B689A627B68074A9D
:104CC000934203D13B681A697B681A637B680122AF
:104CD0005A6100BF1437BD4680BC7047002C0140AC
:104CE000000400400008004080B487B000AFF860C6
:104CF000B9607A60FB681B6A7B61FB681B6A23F002
:104D00000102FB681A62FB689B693B613B6923F007
:104D1000F0033B617B681B013A6913433B617B698C
:104D200023F00A037B617A69BB6813437B61FB68EC
:104D30003A699A61FB687A691A6200BF1C37BD46FE
:104D400080BC704780B487B000AFF860B9607A600B
:104D5000FB681B6A7B61FB681B6A23F01002FB681F
:104D60001A62FB689B693B613B6923F470433B61BA
:104D70007B681B033A6913433B617B6923F0A00303
:104D80007B61BB681B017A6913437B61FB683A69ED
:104D90009A61FB687A691A6200BF1C37BD4680BC05
:104DA000704780B485B000AF786039607B689B68DD
:104DB000FB60FB6823F07003FB603A68FB681343F9
:104DC00043F00703FB607B68FA689A6000BF143702
:104DD000BD4680BC704780B487B000AFF860B96052
:104DE0007A603B60FB689B687B617B6923F47F434F
:104DF0007B613B681A027B681A43BB6813437A697C
:104E000013437B61FB687A699A6000BF1C37BD461B
:104E100080BC704780B485B000AF786039607B6833
:104E200093F83C30012B01D1022346E07B6801223C
:104E300083F83C207B68022283F83D207B681B6856
:104E40005B68FB607B681B689B68BB60FB6823F04A
:104E50007003FB603B681B68FA681343FB607B6868
:104E60001B68FA685A607B681B68164A93420ED02A
:104E70007B681B68B3F1804F09D07B681B68124ABE
:104E8000934204D07B681B68104A93420CD1BB68E4
:104E900023F08003BB603B685B68BA681343BB6068
:104EA0007B681B68BA689A607B68012283F83D20A2
:104EB0007B68002283F83C20002318461437BD4647
:104EC00080BC7047002C01400004004000080040F6
:104ED00080B483B000AF786000BF0C37BD4680BCA3
:104EE000704780B483B000AF786000BF0C37BD4618
:104EF00080BC704780B582B000AF78607B68002BC3
:104F000001D1012342E07B6893F84130DBB2002BF2
:104F100006D17B68002283F840207868FEF76CF8A1
:104F20007B68242283F841207B681B68DA687B68F1
:104F30001B6822F40052DA60786800F0C5FD7B68D7
:104F40001B681A697B681B6822F490421A617B68AF
:104F50001B685A697B681B6822F02A025A617B68C9
:104F60001B68DA687B681B6842F40052DA607B6871
:104F700000225A647B68202283F841207B6820222B
:104F800083F842207B6800225A63002318460837C2
:104F9000BD4680BD80B58AB002AFF860B9603B60A5
:104FA0001346FB8000237B61FB6893F84130DBB242
:104FB000202B6DD1BB68002B02D0FB88002B01D1C8
:104FC000012366E0FB6800225A64FB68212283F813
:104FD0004120FEF703FA7861FB68FA889A84FB683F
:104FE000FA88DA84FB689B68B3F5805F08D1FB68B8
:104FF0001B69002B04D10023FB61BB68BB6103E08C
:10500000BB68FB610023BB612AE03B6800937B69BE
:1050100000228021F86800F014FB0346002B01D029
:10502000032336E0FB69002B0BD1BB691B881A46B2
:10503000FB681B68C2F308025A60BB690233BB619C
:1050400007E0FB691A78FB681B685A60FB6901334B
:10505000FB61FB68DB8C9BB2013B9AB2FB68DA8494
:10506000FB68DB8C9BB2002BCFD13B6800937B6944
:1050700000224021F86800F0E4FA0346002B01D03A
:10508000032306E0FB68202283F84120002300E090
:10509000022318462037BD4680BD80B584B000AFDE
:1050A000F860B9601346FB80FB6893F84230DBB2CE
:1050B000202B12D1BB68002B02D0FB88002B01D122
:1050C00001230BE0FB6800221A63FB881A46B968CB
:1050D000F86800F024FB034600E00223184610376E
:1050E000BD4680BD80B5BAB000AF78607B681B68F4
:1050F0001B68C7F8E4307B681B68DB68C7F8E030E2
:105100007B681B685B69C7F8DC300023C7F8D830C0
:105110000023C7F8D430D7F8E43003F00F03C7F802
:10512000D830D7F8D830002B0FD1D7F8E43003F0BF
:105130002003002B09D0D7F8E03003F02003002B28
:1051400003D0786800F001FC5BE2D7F8D830002B80
:1051500000F0DE80D7F8DC3003F00103002B06D12D
:10516000D7F8E03003F49073002B00F0D180D7F82B
:10517000E43003F00103002B0BD0D7F8E03003F448
:105180008073002B05D07B685B6C43F001027B6869
:105190005A64D7F8E43003F00403002B0BD0D7F89F
:1051A000DC3003F00103002B05D07B685B6C43F01F
:1051B00002027B685A64D7F8E43003F00203002B44
:1051C0000BD0D7F8DC3003F00103002B05D07B684F
:1051D0005B6C43F004027B685A64D7F8E43003F058
:1051E0000803002B11D0D7F8E03003F02003002B88
:1051F00005D1D7F8DC3003F00103002B05D07B6824
:105200005B6C43F008027B685A647B685B6C002B24
:1052100000F0F281D7F8E43003F02003002B08D02F
:10522000D7F8E03003F02003002B02D0786800F0BC
:105230008CFB7B681B685B6903F04003002B14BF89
:1052400001230023DBB2C7F8D4307B685B6C03F02A
:105250000803002B03D1D7F8D430002B4FD0786847
:1052600000F096FA7B681B685B6903F04003002B33
:1052700041D07B681B681433C7F89C30D7F89C304A
:1052800053E8003FC7F89830D7F8983023F0400330
:10529000C7F8D0307B681B681433D7F8D020C7F824
:1052A000A820C7F8A430D7F8A410D7F8A82041E860
:1052B0000023C7F8A030D7F8A030002BD9D17B68E5
:1052C000DB6B002B13D07B68DB6B7E4A5A637B68F9
:1052D000DB6B1846FEF7D4F90346002B16D07B682B
:1052E000DB6B5B6B7A68D26B104698470EE0786890
:1052F00000F093F90AE0786800F08FF906E078682A
:1053000000F08BF97B6800225A6475E100BF73E1FD
:105310007B681B6B012B40F04F81D7F8E43003F022
:105320001003002B00F04881D7F8E03003F01003A1
:10533000002B00F041810023BB607B681B681B6869
:10534000BB607B681B685B68BB60BB687B681B6875
:105350005B6903F04003002B00F0B6807B68DB6BD9
:105360001B685B68A7F8BE30B7F8BE30002B00F0B2
:1053700045817B689B8DB7F8BE209A4280F03E81C4
:105380007B68B7F8BE20DA857B68DB6B9B69202BD6
:1053900000F088807B681B680C33C7F88830D7F82A
:1053A000883053E8003FC7F88430D7F8843023F4BE
:1053B0008073C7F8B8307B681B680C33D7F8B82007
:1053C000C7F89420C7F89030D7F89010D7F89420F9
:1053D00041E80023C7F88C30D7F88C30002BD9D1A6
:1053E0007B681B6814337B677B6F53E8003F3B6728
:1053F0003B6F23F00103C7F8B4307B681B6814339C
:10540000D7F8B420C7F88020FB67F96FD7F8802061
:1054100041E80023BB67BB6F002BE1D17B681B68B1
:1054200014333B663B6E53E8003FFB65FB6D23F096
:105430004003C7F8B0307B681B681433D7F8B0203E
:10544000FA66BB66B96EFA6E41E800237B667B6E36
:10545000002BE3D17B68202283F842207B68002266
:105460001A637B681B680C33FB64FB6C53E8003FDA
:10547000BB64BB6C23F01003C7F8AC307B681B68BF
:105480000C33D7F8AC20BA657B65796DBA6D41E80D
:1054900000233B653B6D002BE3D17B68DB6B18463B
:1054A000FEF7B3F87B6802225A637B689A8D7B68AB
:1054B000DB8D9BB2D31A9BB21946786800F0B6F820
:1054C0009CE000BF555800087B689A8D7B68DB8D97
:1054D0009BB2D31AA7F8CE307B68DB8D9BB2002B32
:1054E00000F08E80B7F8CE30002B00F089807B680A
:1054F0001B680C33BB63BB6B53E8003F7B637B6B68
:1055000023F49073C7F8C8307B681B680C33D7F856
:10551000C8207A643B64396C7A6C41E80023FB63F1
:10552000FB6B002BE3D17B681B6814337B627B6AC7
:1055300053E8003F3B623B6A23F00103C7F8C430E5
:105540007B681B681433D7F8C4203A63FB62F96A9E
:105550003A6B41E80023BB62BB6A002BE3D17B6856
:10556000202283F842207B6800221A637B681B6834
:105570000C333B613B6953E8003FFB60FB6823F061
:105580001003C7F8C0307B681B680C33D7F8C02005
:10559000FA61BB61B969FA6941E800237B617B6903
:1055A000002BE3D17B6802225A63B7F8CE3019464C
:1055B000786800F03BF823E0D7F8E43003F080038C
:1055C000002B09D0D7F8E03003F08003002B03D084
:1055D000786800F053F914E0D7F8E43003F04003A2
:1055E000002B0ED0D7F8E03003F04003002B08D09A
:1055F000786800F092F904E000BF02E000BF00E02C
:1056000000BFE837BD4680BD80B483B000AF78608E
:1056100000BF0C37BD4680BC704780B483B000AF7C
:10562000786000BF0C37BD4680BC704780B483B043
:1056300000AF78600B467B8000BF0C37BD4680BC56
:10564000704780B590B000AFF860B9603B6013461A
:10565000FB7150E0BB6CB3F1FF3F4CD0BB6C002B37
:1056600007D0FDF7BBFE02463B68D31ABA6C9A42DC
:1056700041D2FB681B680C33BB62BB6A53E8003F36
:105680007B627B6A23F4D073FB63FB681B680C337B
:10569000FA6B7A633B63396B7A6B41E80023FB62F8
:1056A000FB6A002BE5D1FB681B6814337B617B69C7
:1056B00053E8003F3B613B6923F00103BB63FB6898
:1056C0001B681433BA6B3A62FB61F9693A6A41E8C4
:1056D0000023BB61BB69002BE5D1FB68202283F866
:1056E0004120FB68202283F84220FB68002283F8D7
:1056F000402003230FE0FB681B681A68BB68134057
:10570000BA689A420CBF01230023DBB21A46FB7928
:105710009A429FD0002318464037BD4680BD80B4D2
:1057200085B000AFF860B9601346FB80FB68BA68CB
:105730009A62FB68FA889A85FB68FA88DA85FB68C2
:1057400000225A64FB68222283F84220FB681B690E
:10575000002B07D0FB681B68DA68FB681B6842F403
:105760008072DA60FB681B685A69FB681B6842F04C
:1057700001025A61FB681B68DA68FB681B6842F02B
:105780002002DA60002318461437BD4680BC7047FB
:1057900080B495B000AF78607B681B680C337B6386
:1057A0007B6B53E8003F3B633B6B23F49073FB64DC
:1057B0007B681B680C33FA6C3A64FB63F96B3A6CD8
:1057C00041E80023BB63BB6B002BE5D17B681B6802
:1057D00014333B623B6A53E8003FFB61FB6923F0F3
:1057E0000103BB647B681B681433BA6CFA62BB624A
:1057F000B96AFA6A41E800237B627B6A002BE5D133
:105800007B681B6B012B19D17B681B680C33FB6019
:10581000FB6853E8003FBB60BB6823F010037B6468
:105820007B681B680C337A6CBA617B617969BA69F1
:1058300041E800233B613B69002BE5D17B682022D6
:1058400083F842207B6800221A6300BF5437BD46AC
:1058500080BC704780B584B000AF78607B685B6ABD
:10586000FB60FB680022DA85FB680022DA84F868B6
:10587000FFF7D3FE00BF1037BD4680BD80B485B0B2
:1058800000AF78607B6893F84130DBB2212B3ED1CA
:105890007B689B68B3F5805F14D17B681B69002B24
:1058A00010D17B681B6AFB60FB681B881A467B680B
:1058B0001B68C2F308025A607B681B6A9A1C7B68EB
:1058C0001A6208E07B681B6A591C7A6811621A78B0
:1058D0007B681B685A607B68DB8C9BB2013B9BB288
:1058E0007A681946D184002B0FD17B681B68DA686F
:1058F0007B681B6822F08002DA607B681B68DA68CC
:105900007B681B6842F04002DA60002300E002235B
:1059100018461437BD4680BC704780B582B000AFD2
:1059200078607B681B68DA687B681B6822F040023D
:10593000DA607B68202283F841207868FFF764FEF4
:10594000002318460837BD4680BD80B58CB000AF37
:1059500078607B6893F84230DBB2222B40F0AE8057
:105960007B689B68B3F5805F17D17B681B69002B50
:1059700013D10023FB627B689B6ABB627B681B6858
:105980005B689BB2C3F308039AB2BB6A1A807B6858
:105990009B6A9A1C7B689A6226E07B689B6AFB6222
:1059A0000023BB627B689B68B3F5805F07D07B6890
:1059B0009B68002B0AD17B681B69002B06D17B6892
:1059C0001B685B68DAB2FB6A1A7008E07B681B68C8
:1059D0005B68DBB203F07F03DAB2FB6A1A707B68A4
:1059E0009B6A5A1C7B689A627B68DB8D9BB2013B89
:1059F0009BB27A681946D185002B5DD17B681B6804
:105A0000DA687B681B6822F02002DA607B681B681A
:105A1000DA687B681B6822F48072DA607B681B6836
:105A20005A697B681B6822F001025A617B68202258
:105A300083F842207B6800225A637B681B6B012B32
:105A400035D17B6800221A637B681B680C337B614D
:105A50007B6953E8003F3B613B6923F010037B62A5
:105A60007B681B680C337A6A3A62FB61F9693A6AAF
:105A700041E80023BB61BB69002BE5D17B681B6853
:105A80001B6803F01003102B0AD10023FB607B6816
:105A90001B681B68FB607B681B685B68FB60FB68BE
:105AA0007B689B8D19467868FFF7C0FD02E0786837
:105AB000FDF7BEF9002302E0002300E002231846B0
:105AC0003037BD4680BD000080B584B000AF78603F
:105AD0007B681B681B6923F440517B68DA687B682C
